{
  "transactions": [
    {
      "hash": "0x90428b8c1d3003df9c015bbb024ea6e53a66a7997dfd29f5d3abafafeaec197b",
      "transactionType": "CALL",
      "contractName": null,
      "contractAddress": "0x92ecf7da023a1be539d1e3103438fda65f390ba9",
      "function": "setVault(address)",
      "arguments": [
        "0x35cb32cFf5C73287f864d832E5672dc383EDE6Fc"
      ],
      "transaction": {
        "from": "0x42fb09ade4091e9a091815c044af8b5515bd87a9",
        "to": "0x92ecf7da023a1be539d1e3103438fda65f390ba9",
        "gas": "0x1931b",
        "value": "0x0",
        "input": "0x6817031b00000000000000000000000035cb32cff5c73287f864d832e5672dc383ede6fc",
        "nonce": "0x25",
        "chainId": "0x1869f"
      },
      "additionalContracts": [],
      "isFixedGasLimit": false
    },
    {
      "hash": "0x5c77842cefba2a010956209aa3d46a0a3b1745f5dce2b7bd40973c0065fc28a7",
      "transactionType": "CALL",
      "contractName": null,
      "contractAddress": "0x35cb32cff5c73287f864d832e5672dc383ede6fc",
      "function": "setOrchestrator(address)",
      "arguments": [
        "0x92eCF7Da023A1be539D1e3103438fDA65f390Ba9"
      ],
      "transaction": {
        "from": "0x42fb09ade4091e9a091815c044af8b5515bd87a9",
        "to": "0x35cb32cff5c73287f864d832e5672dc383ede6fc",
        "gas": "0xfc27",
        "value": "0x0",
        "input": "0xcd28ef0d00000000000000000000000092ecf7da023a1be539d1e3103438fda65f390ba9",
        "nonce": "0x26",
        "chainId": "0x1869f"
      },
      "additionalContracts": [],
      "isFixedGasLimit": false
    },
    {
      "hash": "0x4aa3b4a9731d31032a4dd88691bad7f1aeb46076ba674ab4fdd8884a4969b212",
      "transactionType": "CALL",
      "contractName": null,
      "contractAddress": "0xc16ba90d15859e3946917c8a78a666d842359118",
      "function": "registerIdentity(address,uint16)",
      "arguments": [
        "0x35cb32cFf5C73287f864d832E5672dc383EDE6Fc",
        "784"
      ],
      "transaction": {
        "from": "0x42fb09ade4091e9a091815c044af8b5515bd87a9",
        "to": "0xc16ba90d15859e3946917c8a78a666d842359118",
        "gas": "0x10516",
        "value": "0x0",
        "input": "0xc5a80fa700000000000000000000000035cb32cff5c73287f864d832e5672dc383ede6fc0000000000000000000000000000000000000000000000000000000000000310",
        "nonce": "0x27",
        "chainId": "0x1869f"
      },
      "additionalContracts": [],
      "isFixedGasLimit": false
    },
    {
      "hash": "0x0ddd383a092215996a434470ce5cc3b4a13abb926a19ec21b7b7e1052386c25b",
      "transactionType": "CALL",
      "contractName": null,
      "contractAddress": "0xc16ba90d15859e3946917c8a78a666d842359118",
      "function": "setKycStatus(address,bool)",
      "arguments": [
        "0x35cb32cFf5C73287f864d832E5672dc383EDE6Fc",
        "true"
      ],
      "transaction": {
        "from": "0x42fb09ade4091e9a091815c044af8b5515bd87a9",
        "to": "0xc16ba90d15859e3946917c8a78a666d842359118",
        "gas": "0xa7f0",
        "value": "0x0",
        "input": "0xe37a35c700000000000000000000000035cb32cff5c73287f864d832e5672dc383ede6fc0000000000000000000000000000000000000000000000000000000000000001",
        "nonce": "0x28",
        "chainId": "0x1869f"
      },
      "additionalContracts": [],
      "isFixedGasLimit": false
    },
    {
      "hash": "0xece23f772a9bc3e85a51305f9b0b2366ef3a10bb51c914af342194188f80f33a",
      "transactionType": "CALL",
      "contractName": null,
      "contractAddress": "0x449931be2c9447c18fd0e1ccf064c6f85f8f5ce2",
      "function": "mint(address,uint256)",
      "arguments": [
        "0x42FB09Ade4091e9a091815C044Af8b5515bD87a9",
        "10000000000000000000000"
      ],
      "transaction": {
        "from": "0x42fb09ade4091e9a091815c044af8b5515bd87a9",
        "to": "0x449931be2c9447c18fd0e1ccf064c6f85f8f5ce2",
        "gas": "0x17b5d",
        "value": "0x0",
        "input": "0x40c10f1900000000000000000000000042fb09ade4091e9a091815c044af8b5515bd87a900000000000000000000000000000000000000000000021e19e0c9bab2400000",
        "nonce": "0x29",
        "chainId": "0x1869f"
      },
      "additionalContracts": [],
      "isFixedGasLimit": false
    },
    {
      "hash": "0x9675b501661baeac98be684393d704304327d6c086de623b60474997aeddc64f",
      "transactionType": "CALL",
      "contractName": null,
      "contractAddress": "0x449931be2c9447c18fd0e1ccf064c6f85f8f5ce2",
      "function": "approve(address,uint256)",
      "arguments": [
        "0x12c1b2b9A6C659b83eb32F825125a703263F114B",
        "10000000000000000000000"
      ],
      "transaction": {
        "from": "0x42fb09ade4091e9a091815c044af8b5515bd87a9",
        "to": "0x449931be2c9447c18fd0e1ccf064c6f85f8f5ce2",
        "gas": "0xf831",
        "value": "0x0",
        "input": "0x095ea7b300000000000000000000000012c1b2b9a6c659b83eb32f825125a703263f114b00000000000000000000000000000000000000000000021e19e0c9bab2400000",
        "nonce": "0x2a",
        "chainId": "0x1869f"
      },
      "additionalContracts": [],
      "isFixedGasLimit": false
    },
    {
      "hash": "0xe0aaf3a3674f73df31f7b7f5438247f264f77530261246231308331119b272d0",
      "transactionType": "CALL",
      "contractName": null,
      "contractAddress": "0x12c1b2b9a6c659b83eb32f825125a703263f114b",
      "function": "depositReserves(address,uint256)",
      "arguments": [
        "0x449931BE2c9447C18FD0e1CcF064c6f85F8F5ce2",
        "10000000000000000000000"
      ],
      "transaction": {
        "from": "0x42fb09ade4091e9a091815c044af8b5515bd87a9",
        "to": "0x12c1b2b9a6c659b83eb32f825125a703263f114b",
        "gas": "0x121b7",
        "value": "0x0",
        "input": "0x5966e733000000000000000000000000449931be2c9447c18fd0e1ccf064c6f85f8f5ce200000000000000000000000000000000000000000000021e19e0c9bab2400000",
        "nonce": "0x2b",
        "chainId": "0x1869f"
      },
      "additionalContracts": [],
      "isFixedGasLimit": false
    },
    {
      "hash": "0xcd32b0162b49855584d341ac66c94205e35448e87a21c50a02f534775ca2db2f",
      "transactionType": "CALL",
      "contractName": null,
      "contractAddress": "0x5637ea17ab6defc4544f2c0020783025a37ae386",
      "function": "mint(address,uint256)",
      "arguments": [
        "0x42FB09Ade4091e9a091815C044Af8b5515bD87a9",
        "10000000000000000000000"
      ],
      "transaction": {
        "from": "0x42fb09ade4091e9a091815c044af8b5515bd87a9",
        "to": "0x5637ea17ab6defc4544f2c0020783025a37ae386",
        "gas": "0x192a8",
        "value": "0x0",
        "input": "0x40c10f1900000000000000000000000042fb09ade4091e9a091815c044af8b5515bd87a900000000000000000000000000000000000000000000021e19e0c9bab2400000",
        "nonce": "0x2c",
        "chainId": "0x1869f"
      },
      "additionalContracts": [],
      "isFixedGasLimit": false
    },
    {
      "hash": "0x1a80007e928f0c853de856fb242aa4b73ed2f077d3d5c4484922755dcddbd618",
      "transactionType": "CALL",
      "contractName": null,
      "contractAddress": "0x5637ea17ab6defc4544f2c0020783025a37ae386",
      "function": "approve(address,uint256)",
      "arguments": [
        "0x12c1b2b9A6C659b83eb32F825125a703263F114B",
        "10000000000000000000000"
      ],
      "transaction": {
        "from": "0x42fb09ade4091e9a091815c044af8b5515bd87a9",
        "to": "0x5637ea17ab6defc4544f2c0020783025a37ae386",
        "gas": "0x106e3",
        "value": "0x0",
        "input": "0x095ea7b300000000000000000000000012c1b2b9a6c659b83eb32f825125a703263f114b00000000000000000000000000000000000000000000021e19e0c9bab2400000",
        "nonce": "0x2d",
        "chainId": "0x1869f"
      },
      "additionalContracts": [],
      "isFixedGasLimit": false
    },
    {
      "hash": "0xc8e4a5d8ad609574bd21eb5b2394f7b056125579919b347ce5ffb0e2487d6824",
      "transactionType": "CALL",
      "contractName": null,
      "contractAddress": "0x12c1b2b9a6c659b83eb32f825125a703263f114b",
      "function": "depositReserves(address,uint256)",
      "arguments": [
        "0x5637eA17AB6DEfC4544f2c0020783025a37aE386",
        "10000000000000000000000"
      ],
      "transaction": {
        "from": "0x42fb09ade4091e9a091815c044af8b5515bd87a9",
        "to": "0x12c1b2b9a6c659b83eb32f825125a703263f114b",
        "gas": "0x132d0",
        "value": "0x0",
        "input": "0x5966e7330000000000000000000000005637ea17ab6defc4544f2c0020783025a37ae38600000000000000000000000000000000000000000000021e19e0c9bab2400000",
        "nonce": "0x2e",
        "chainId": "0x1869f"
      },
      "additionalContracts": [],
      "isFixedGasLimit": false
    }
  ],
  "receipts": [
    {
      "status": "0x1",
      "cumulativeGasUsed": "0x113a1",
      "logs": [
        {
          "address": "0x92ecf7da023a1be539d1e3103438fda65f390ba9",
          "topics": [
            "0x2f8788117e7eff1d82e926ec794901d17c78024a50270940304540a733656f0d",
            "0x31e0210044b4f6757ce6aa31f9c6e8d4896d24a755014887391a926c5224d959",
            "0x00000000000000000000000035cb32cff5c73287f864d832e5672dc383ede6fc",
            "0x00000000000000000000000042fb09ade4091e9a091815c044af8b5515bd87a9"
          ],
          "data": "0x",
          "blockHash": "0x9630b163e79da67a6354f4be3104b63a4aaa0f84f1b19a079c2ff1601db3a2aa",
          "blockNumber": "0xa139",
          "blockTimestamp": "0x69995b57",
          "transactionHash": "0x90428b8c1d3003df9c015bbb024ea6e53a66a7997dfd29f5d3abafafeaec197b",
          "transactionIndex": "0x0",
          "logIndex": "0x0",
          "removed": false
        }
      ],
      "logsBloom": "0x080000040000000000000000000000000000000000000000000000000000000000000000000000000000000000000000000000000000000000000000000000000000000000000000000000000000000000000000000000000000000000000000000000000000000000000000000000000000c0000020000080002000000000000000000000000000000000000000010000000000000000000000000000000000000000000000000000000000000000000000000020000000001000000000000000000000000000000000000000020000000000000000000100000010000000000000000000080000000000000000000000000000004000000000000000000000",
      "type": "0x2",
      "transactionHash": "0x90428b8c1d3003df9c015bbb024ea6e53a66a7997dfd29f5d3abafafeaec197b",
      "transactionIndex": "0x0",
      "blockHash": "0x9630b163e79da67a6354f4be3104b63a4aaa0f84f1b19a079c2ff1601db3a2aa",
      "blockNumber": "0xa139",
      "gasUsed": "0x113a1",
      "effectiveGasPrice": "0x8085c39001",
      "from": "0x42fb09ade4091e9a091815c044af8b5515bd87a9",
      "to": "0x92ecf7da023a1be539d1e3103438fda65f390ba9",
      "contractAddress": null,
      "l2ToL1Logs": []
    },
    {
      "status": "0x1",
      "cumulativeGasUsed": "0x1ca30",
      "logs": [],
      "logsBloom": "0x00000000000000000000000000000000000000000000000000000000000000000000000000000000000000000000000000000000000000000000000000000000000000000000000000000000000000000000000000000000000000000000000000000000000000000000000000000000000000000000000000000000000000000000000000000000000000000000000000000000000000000000000000000000000000000000000000000000000000000000000000000000000000000000000000000000000000000000000000000000000000000000000000000000000000000000000000000000000000000000000000000000000000000000000000000000",
      "type": "0x2",
      "transactionHash": "0x5c77842cefba2a010956209aa3d46a0a3b1745f5dce2b7bd40973c0065fc28a7",
      "transactionIndex": "0x1",
      "blockHash": "0x9630b163e79da67a6354f4be3104b63a4aaa0f84f1b19a079c2ff1601db3a2aa",
      "blockNumber": "0xa139",
      "gasUsed": "0xb68f",
      "effectiveGasPrice": "0x8085c39001",
      "from": "0x42fb09ade4091e9a091815c044af8b5515bd87a9",
      "to": "0x35cb32cff5c73287f864d832e5672dc383ede6fc",
      "contractAddress": null,
      "l2ToL1Logs": []
    },
    {
      "status": "0x1",
      "cumulativeGasUsed": "0x28736",
      "logs": [
        {
          "address": "0xc16ba90d15859e3946917c8a78a666d842359118",
          "topics": [
            "0x04b5780035dfc2873ad5e358af8f2b2554e53a40a87a9c1c63bdca629eb4b427",
            "0x00000000000000000000000035cb32cff5c73287f864d832e5672dc383ede6fc"
          ],
          "data": "0x0000000000000000000000000000000000000000000000000000000000000310",
          "blockHash": "0x9630b163e79da67a6354f4be3104b63a4aaa0f84f1b19a079c2ff1601db3a2aa",
          "blockNumber": "0xa139",
          "blockTimestamp": "0x69995b57",
          "transactionHash": "0x4aa3b4a9731d31032a4dd88691bad7f1aeb46076ba674ab4fdd8884a4969b212",
          "transactionIndex": "0x2",
          "logIndex": "0x1",
          "removed": false
        }
      ],
      "logsBloom": "0x08000000000000000000000000000000000000000000000000000000000000000010000000000000000000000000000000000000000000000000000000000000000000000000000000000000000000000000000000000000000000000000000000000000000000000002000000000000000040000000000000000000000000000000000000000000000000000000010000000000000000000000000100000000000000000000000000000000000000000000000000000000000000000000000000000000000000000000000000000000000000000000800000000000000000000000000000000000000000000000000000000000000000000000000000004000",
      "type": "0x2",
      "transactionHash": "0x4aa3b4a9731d31032a4dd88691bad7f1aeb46076ba674ab4fdd8884a4969b212",
      "transactionIndex": "0x2",
      "blockHash": "0x9630b163e79da67a6354f4be3104b63a4aaa0f84f1b19a079c2ff1601db3a2aa",
      "blockNumber": "0xa139",
      "gasUsed": "0xbd06",
      "effectiveGasPrice": "0x8085c39001",
      "from": "0x42fb09ade4091e9a091815c044af8b5515bd87a9",
      "to": "0xc16ba90d15859e3946917c8a78a666d842359118",
      "contractAddress": null,
      "l2ToL1Logs": []
    },
    {
      "status": "0x1",
      "cumulativeGasUsed": "0x300cc",
      "logs": [
        {
          "address": "0xc16ba90d15859e3946917c8a78a666d842359118",
          "topics": [
            "0x2df1cad2a2659e001c3804c872f69655356013e35c18c2e77a5d568078ab788f",
            "0x00000000000000000000000035cb32cff5c73287f864d832e5672dc383ede6fc"
          ],
          "data": "0x0000000000000000000000000000000000000000000000000000000000000001",
          "blockHash": "0x9630b163e79da67a6354f4be3104b63a4aaa0f84f1b19a079c2ff1601db3a2aa",
          "blockNumber": "0xa139",
          "blockTimestamp": "0x69995b57",
          "transactionHash": "0x0ddd383a092215996a434470ce5cc3b4a13abb926a19ec21b7b7e1052386c25b",
          "transactionIndex": "0x3",
          "logIndex": "0x2",
          "removed": false
        }
      ],
      "logsBloom": "0x08000000000000000000000000000000000000000000000000000000000000000000010000000000000000000000000000000000000000000000000000000000000000000000000000000000000000000000000000000000200000000000000000000000000000000002000000000000000040000000000000000000000200000000000000000000000000000000010000000000000000000000000000000000000000000000000000000000000000000000000000000000000000000000000000000000000000000000000000000000000000000000000000000000000000000000000000000000000000000000000000000000000000000000000000004000",
      "type": "0x2",
      "transactionHash": "0x0ddd383a092215996a434470ce5cc3b4a13abb926a19ec21b7b7e1052386c25b",
      "transactionIndex": "0x3",
      "blockHash": "0x9630b163e79da67a6354f4be3104b63a4aaa0f84f1b19a079c2ff1601db3a2aa",
      "blockNumber": "0xa139",
      "gasUsed": "0x7996",
      "effectiveGasPrice": "0x8085c39001",
      "from": "0x42fb09ade4091e9a091815c044af8b5515bd87a9",
      "to": "0xc16ba90d15859e3946917c8a78a666d842359118",
      "contractAddress": null,
      "l2ToL1Logs": []
    },
    {
      "status": "0x1",
      "cumulativeGasUsed": "0x41374",
      "logs": [
        {
          "address": "0x449931be2c9447c18fd0e1ccf064c6f85f8f5ce2",
          "topics": [
            "0xddf252ad1be2c89b69c2b068fc378daa952ba7f163c4a11628f55a4df523b3ef",
            "0x0000000000000000000000000000000000000000000000000000000000000000",
            "0x00000000000000000000000042fb09ade4091e9a091815c044af8b5515bd87a9"
          ],
          "data": "0x00000000000000000000000000000000000000000000021e19e0c9bab2400000",
          "blockHash": "0x9630b163e79da67a6354f4be3104b63a4aaa0f84f1b19a079c2ff1601db3a2aa",
          "blockNumber": "0xa139",
          "blockTimestamp": "0x69995b57",
          "transactionHash": "0xece23f772a9bc3e85a51305f9b0b2366ef3a10bb51c914af342194188f80f33a",
          "transactionIndex": "0x4",
          "logIndex": "0x3",
          "removed": false
        }
      ],
      "logsBloom": "0x00000000000000000000000000000000000000000000000000000000000000000000000000000000000000000000000000000000000000000000000000000000000000000000000000000008000000000000000000000000000000020000000000000000020000000000000000000800000000000020000080002010000000000000000000000000000000000000000000000000000000000000000000000000000000000004000000000000000000000000000000000000000000000000000000000002000000000000000000000000000000100000000000000000000020000000000000000000000000000000000000000000000000000000000000000000",
      "type": "0x2",
      "transactionHash": "0xece23f772a9bc3e85a51305f9b0b2366ef3a10bb51c914af342194188f80f33a",
      "transactionIndex": "0x4",
      "blockHash": "0x9630b163e79da67a6354f4be3104b63a4aaa0f84f1b19a079c2ff1601db3a2aa",
      "blockNumber": "0xa139",
      "gasUsed": "0x112a8",
      "effectiveGasPrice": "0x8085c39001",
      "from": "0x42fb09ade4091e9a091815c044af8b5515bd87a9",
      "to": "0x449931be2c9447c18fd0e1ccf064c6f85f8f5ce2",
      "contractAddress": null,
      "l2ToL1Logs": []
    },
    {
      "status": "0x1",
      "cumulativeGasUsed": "0x4c724",
      "logs": [
        {
          "address": "0x449931be2c9447c18fd0e1ccf064c6f85f8f5ce2",
          "topics": [
            "0x8c5be1e5ebec7d5bd14f71427d1e84f3dd0314c0f7b2291e5b200ac8c7c3b925",
            "0x00000000000000000000000042fb09ade4091e9a091815c044af8b5515bd87a9",
            "0x00000000000000000000000012c1b2b9a6c659b83eb32f825125a703263f114b"
          ],
          "data": "0x00000000000000000000000000000000000000000000021e19e0c9bab2400000",
          "blockHash": "0x9630b163e79da67a6354f4be3104b63a4aaa0f84f1b19a079c2ff1601db3a2aa",
          "blockNumber": "0xa139",
          "blockTimestamp": "0x69995b57",
          "transactionHash": "0x9675b501661baeac98be684393d704304327d6c086de623b60474997aeddc64f",
          "transactionIndex": "0x5",
          "logIndex": "0x4",
          "removed": false
        }
      ],
      "logsBloom": "0x00000000000000000000000000000000000000000000000000000000000000000000000000000000000000000000000000000000000000000000000000200000100000000000000000000000000000000000000000000000000000020001000000000000000000000000000000000000000000000020000080002000000000000000000002000000000000000000000000000000000000000000000000000000020000000004000000000000000000000000000000000000000000000000000000000000000000000000000000000000000000100000000000000000000000000010000000000000000000000000000000000000000000000000000000000000",
      "type": "0x2",
      "transactionHash": "0x9675b501661baeac98be684393d704304327d6c086de623b60474997aeddc64f",
      "transactionIndex": "0x5",
      "blockHash": "0x9630b163e79da67a6354f4be3104b63a4aaa0f84f1b19a079c2ff1601db3a2aa",
      "blockNumber": "0xa139",
      "gasUsed": "0xb3b0",
      "effectiveGasPrice": "0x8085c39001",
      "from": "0x42fb09ade4091e9a091815c044af8b5515bd87a9",
      "to": "0x449931be2c9447c18fd0e1ccf064c6f85f8f5ce2",
      "contractAddress": null,
      "l2ToL1Logs": []
    },
    {
      "status": "0x1",
      "cumulativeGasUsed": "0x598e4",
      "logs": [
        {
          "address": "0x449931be2c9447c18fd0e1ccf064c6f85f8f5ce2",
          "topics": [
            "0xddf252ad1be2c89b69c2b068fc378daa952ba7f163c4a11628f55a4df523b3ef",
            "0x00000000000000000000000042fb09ade4091e9a091815c044af8b5515bd87a9",
            "0x00000000000000000000000012c1b2b9a6c659b83eb32f825125a703263f114b"
          ],
          "data": "0x00000000000000000000000000000000000000000000021e19e0c9bab2400000",
          "blockHash": "0x9630b163e79da67a6354f4be3104b63a4aaa0f84f1b19a079c2ff1601db3a2aa",
          "blockNumber": "0xa139",
          "blockTimestamp": "0x69995b57",
          "transactionHash": "0xe0aaf3a3674f73df31f7b7f5438247f264f77530261246231308331119b272d0",
          "transactionIndex": "0x6",
          "logIndex": "0x5",
          "removed": false
        },
        {
          "address": "0x12c1b2b9a6c659b83eb32f825125a703263f114b",
          "topics": [
            "0xcea2aa568570e239e616fd2e9bcf2301307aa1c1c1f355305a87e5cdd46bbc79",
            "0x000000000000000000000000449931be2c9447c18fd0e1ccf064c6f85f8f5ce2"
          ],
          "data": "0x00000000000000000000000000000000000000000000021e19e0c9bab2400000",
          "blockHash": "0x9630b163e79da67a6354f4be3104b63a4aaa0f84f1b19a079c2ff1601db3a2aa",
          "blockNumber": "0xa139",
          "blockTimestamp": "0x69995b57",
          "transactionHash": "0xe0aaf3a3674f73df31f7b7f5438247f264f77530261246231308331119b272d0",
          "transactionIndex": "0x6",
          "logIndex": "0x6",
          "removed": false
        }
      ],
      "logsBloom": "0x00000000000000040000000000000000000000000000000000000000000000000000000000000000000000000000000000000000000000000000000000001040100000000000000000000008000000000000000000000000000000020001000000000000000000000000100000000000000000000020000080002010000000000040000002000020000000000000000000000000000000000000020000000000000000000004000000000000000000000000000000000000000000000000000000000002004000000000000000000000000000100000000000000000000000000000000000000000000000000000000000000000000000008000000000000000",
      "type": "0x2",
      "transactionHash": "0xe0aaf3a3674f73df31f7b7f5438247f264f77530261246231308331119b272d0",
      "transactionIndex": "0x6",
      "blockHash": "0x9630b163e79da67a6354f4be3104b63a4aaa0f84f1b19a079c2ff1601db3a2aa",
      "blockNumber": "0xa139",
      "gasUsed": "0xd1c0",
      "effectiveGasPrice": "0x8085c39001",
      "from": "0x42fb09ade4091e9a091815c044af8b5515bd87a9",
      "to": "0x12c1b2b9a6c659b83eb32f825125a703263f114b",
      "contractAddress": null,
      "l2ToL1Logs": []
    },
    {
      "status": "0x1",
      "cumulativeGasUsed": "0x6ac37",
      "logs": [
        {
          "address": "0x5637ea17ab6defc4544f2c0020783025a37ae386",
          "topics": [
            "0xddf252ad1be2c89b69c2b068fc378daa952ba7f163c4a11628f55a4df523b3ef",
            "0x0000000000000000000000000000000000000000000000000000000000000000",
            "0x00000000000000000000000042fb09ade4091e9a091815c044af8b5515bd87a9"
          ],
          "data": "0x00000000000000000000000000000000000000000000021e19e0c9bab2400000",
          "blockHash": "0x9630b163e79da67a6354f4be3104b63a4aaa0f84f1b19a079c2ff1601db3a2aa",
          "blockNumber": "0xa139",
          "blockTimestamp": "0x69995b57",
          "transactionHash": "0xcd32b0162b49855584d341ac66c94205e35448e87a21c50a02f534775ca2db2f",
          "transactionIndex": "0x7",
          "logIndex": "0x7",
          "removed": false
        }
      ],
      "logsBloom": "0x00000000000000000000000000000000000000000000000000000000000000000000000000000000000000000000000000000000000000000000000000000000000000000000000000000008000000000000000000000000000200000000000000000000020000000000000000000800000000000020000080002010000000000000000000004000000000000004000000000000000000000000000000000000000000000000000000000000000000000000000000000000000000000000000000000002000000000000000000000000000000000000000000000000000020000000000000000000000000000000000000000000000000000000000000000000",
      "type": "0x2",
      "transactionHash": "0xcd32b0162b49855584d341ac66c94205e35448e87a21c50a02f534775ca2db2f",
      "transactionIndex": "0x7",
      "blockHash": "0x9630b163e79da67a6354f4be3104b63a4aaa0f84f1b19a079c2ff1601db3a2aa",
      "blockNumber": "0xa139",
      "gasUsed": "0x11353",
      "effectiveGasPrice": "0x8085c39001",
      "from": "0x42fb09ade4091e9a091815c044af8b5515bd87a9",
      "to": "0x5637ea17ab6defc4544f2c0020783025a37ae386",
      "contractAddress": null,
      "l2ToL1Logs": []
    },
    {
      "status": "0x1",
      "cumulativeGasUsed": "0x75ff8",
      "logs": [
        {
          "address": "0x5637ea17ab6defc4544f2c0020783025a37ae386",
          "topics": [
            "0x8c5be1e5ebec7d5bd14f71427d1e84f3dd0314c0f7b2291e5b200ac8c7c3b925",
            "0x00000000000000000000000042fb09ade4091e9a091815c044af8b5515bd87a9",
            "0x00000000000000000000000012c1b2b9a6c659b83eb32f825125a703263f114b"
          ],
          "data": "0x00000000000000000000000000000000000000000000021e19e0c9bab2400000",
          "blockHash": "0x9630b163e79da67a6354f4be3104b63a4aaa0f84f1b19a079c2ff1601db3a2aa",
          "blockNumber": "0xa139",
          "blockTimestamp": "0x69995b57",
          "transactionHash": "0x1a80007e928f0c853de856fb242aa4b73ed2f077d3d5c4484922755dcddbd618",
          "transactionIndex": "0x8",
          "logIndex": "0x8",
          "removed": false
        }
      ],
      "logsBloom": "0x00000000000000000000000000000000000000000000000000000000000000000000000000000000000000000000000000000000000000000000000000200000100000000000000000000000000000000000000000000000000200000001000000000000000000000000000000000000000000000020000080002000000000000000000002004000000000000004000000000000000000000000000000000000020000000000000000000000000000000000000000000000000000000000000000000000000000000000000000000000000000000000000000000000000000000010000000000000000000000000000000000000000000000000000000000000",
      "type": "0x2",
      "transactionHash": "0x1a80007e928f0c853de856fb242aa4b73ed2f077d3d5c4484922755dcddbd618",
      "transactionIndex": "0x8",
      "blockHash": "0x9630b163e79da67a6354f4be3104b63a4aaa0f84f1b19a079c2ff1601db3a2aa",
      "blockNumber": "0xa139",
      "gasUsed": "0xb3c1",
      "effectiveGasPrice": "0x8085c39001",
      "from": "0x42fb09ade4091e9a091815c044af8b5515bd87a9",
      "to": "0x5637ea17ab6defc4544f2c0020783025a37ae386",
      "contractAddress": null,
      "l2ToL1Logs": []
    },
    {
      "status": "0x1",
      "cumulativeGasUsed": "0x831c2",
      "logs": [
        {
          "address": "0x5637ea17ab6defc4544f2c0020783025a37ae386",
          "topics": [
            "0xddf252ad1be2c89b69c2b068fc378daa952ba7f163c4a11628f55a4df523b3ef",
            "0x00000000000000000000000042fb09ade4091e9a091815c044af8b5515bd87a9",
            "0x00000000000000000000000012c1b2b9a6c659b83eb32f825125a703263f114b"
          ],
          "data": "0x00000000000000000000000000000000000000000000021e19e0c9bab2400000",
          "blockHash": "0x9630b163e79da67a6354f4be3104b63a4aaa0f84f1b19a079c2ff1601db3a2aa",
          "blockNumber": "0xa139",
          "blockTimestamp": "0x69995b57",
          "transactionHash": "0xc8e4a5d8ad609574bd21eb5b2394f7b056125579919b347ce5ffb0e2487d6824",
          "transactionIndex": "0x9",
          "logIndex": "0x9",
          "removed": false
        },
        {
          "address": "0x12c1b2b9a6c659b83eb32f825125a703263f114b",
          "topics": [
            "0xcea2aa568570e239e616fd2e9bcf2301307aa1c1c1f355305a87e5cdd46bbc79",
            "0x0000000000000000000000005637ea17ab6defc4544f2c0020783025a37ae386"
          ],
          "data": "0x00000000000000000000000000000000000000000000021e19e0c9bab2400000",
          "blockHash": "0x9630b163e79da67a6354f4be3104b63a4aaa0f84f1b19a079c2ff1601db3a2aa",
          "blockNumber": "0xa139",
          "blockTimestamp": "0x69995b57",
          "transactionHash": "0xc8e4a5d8ad609574bd21eb5b2394f7b056125579919b347ce5ffb0e2487d6824",
          "transactionIndex": "0x9",
          "logIndex": "0xa",
          "removed": false
        }
      ],
      "logsBloom": "0x00000000000000040000000000000000000000000000000000000000000000000000000000000000000000000000000000000000000000000000000000001040100000000000000800000008000000000000000000000000000200000001000000000000000000000000000000000000000000000020000080002410000000000000000002004020000000000004000000000000000000000000020000000000000000000000000000000000000000000000000000000000000000000000000000000002004000000000000000000000000000000000000000000000000000000000000080000000000000000000000000000000000000000000000000000000",
      "type": "0x2",
      "transactionHash": "0xc8e4a5d8ad609574bd21eb5b2394f7b056125579919b347ce5ffb0e2487d6824",
      "transactionIndex": "0x9",
      "blockHash": "0x9630b163e79da67a6354f4be3104b63a4aaa0f84f1b19a079c2ff1601db3a2aa",
      "blockNumber": "0xa139",
      "gasUsed": "0xd1ca",
      "effectiveGasPrice": "0x8085c39001",
      "from": "0x42fb09ade4091e9a091815c044af8b5515bd87a9",
      "to": "0x12c1b2b9a6c659b83eb32f825125a703263f114b",
      "contractAddress": null,
      "l2ToL1Logs": []
    }
  ],
  "libraries": [],
  "pending": [],
  "returns": {},
  "timestamp": 1771658074774,
  "chain": 99999,
  "commit": "55a7a7bd"
}