{
  "transactions": [
    {
      "hash": "0xc1d6924ac66771d87261eb5fa59411ed659279e1874a015895b12f2b268daaf4",
      "transactionType": "CALL",
      "contractName": null,
      "contractAddress": "0x8a791620dd6260079bf849dc5567adc3f2fdc318",
      "function": "setVault(address)",
      "arguments": [
        "0x0DCd1Bf9A1b36cE34237eEaFef220932846BCD82"
      ],
      "transaction": {
        "from": "0xf39fd6e51aad88f6f4ce6ab8827279cfffb92266",
        "to": "0x8a791620dd6260079bf849dc5567adc3f2fdc318",
        "gas": "0x1931b",
        "value": "0x0",
        "input": "0x6817031b0000000000000000000000000dcd1bf9a1b36ce34237eeafef220932846bcd82",
        "nonce": "0x17",
        "chainId": "0x7a69"
      },
      "additionalContracts": [],
      "isFixedGasLimit": false
    },
    {
      "hash": "0xca951bef81cf01dec47fc63f1e87cbbe2de0026ae0db22e29ad27e43e19f5a34",
      "transactionType": "CALL",
      "contractName": null,
      "contractAddress": "0x0dcd1bf9a1b36ce34237eeafef220932846bcd82",
      "function": "setOrchestrator(address)",
      "arguments": [
        "0x8A791620dd6260079BF849Dc5567aDC3F2FdC318"
      ],
      "transaction": {
        "from": "0xf39fd6e51aad88f6f4ce6ab8827279cfffb92266",
        "to": "0x0dcd1bf9a1b36ce34237eeafef220932846bcd82",
        "gas": "0xfc27",
        "value": "0x0",
        "input": "0xcd28ef0d0000000000000000000000008a791620dd6260079bf849dc5567adc3f2fdc318",
        "nonce": "0x18",
        "chainId": "0x7a69"
      },
      "additionalContracts": [],
      "isFixedGasLimit": false
    },
    {
      "hash": "0x47dd63402502b37931f0e97f82476ec2563b2ca08dde1b0b1887c4d3fc14085f",
      "transactionType": "CALL",
      "contractName": null,
      "contractAddress": "0xdc64a140aa3e981100a9beca4e685f962f0cf6c9",
      "function": "registerIdentity(address,uint16)",
      "arguments": [
        "0x0DCd1Bf9A1b36cE34237eEaFef220932846BCD82",
        "784"
      ],
      "transaction": {
        "from": "0xf39fd6e51aad88f6f4ce6ab8827279cfffb92266",
        "to": "0xdc64a140aa3e981100a9beca4e685f962f0cf6c9",
        "gas": "0x10516",
        "value": "0x0",
        "input": "0xc5a80fa70000000000000000000000000dcd1bf9a1b36ce34237eeafef220932846bcd820000000000000000000000000000000000000000000000000000000000000310",
        "nonce": "0x19",
        "chainId": "0x7a69"
      },
      "additionalContracts": [],
      "isFixedGasLimit": false
    },
    {
      "hash": "0x660569c891242cb31fa89be3c639363c39b25363374bfd0672d5e8d1dd61ccf9",
      "transactionType": "CALL",
      "contractName": null,
      "contractAddress": "0xdc64a140aa3e981100a9beca4e685f962f0cf6c9",
      "function": "setKycStatus(address,bool)",
      "arguments": [
        "0x0DCd1Bf9A1b36cE34237eEaFef220932846BCD82",
        "true"
      ],
      "transaction": {
        "from": "0xf39fd6e51aad88f6f4ce6ab8827279cfffb92266",
        "to": "0xdc64a140aa3e981100a9beca4e685f962f0cf6c9",
        "gas": "0xa7f0",
        "value": "0x0",
        "input": "0xe37a35c70000000000000000000000000dcd1bf9a1b36ce34237eeafef220932846bcd820000000000000000000000000000000000000000000000000000000000000001",
        "nonce": "0x1a",
        "chainId": "0x7a69"
      },
      "additionalContracts": [],
      "isFixedGasLimit": false
    },
    {
      "hash": "0x80ce21c2c73c055cd49e528409d415fadaf1f93f9ae01041897cffbea7568efd",
      "transactionType": "CALL",
      "contractName": null,
      "contractAddress": "0x5fbdb2315678afecb367f032d93f642f64180aa3",
      "function": "mint(address,uint256)",
      "arguments": [
        "0xf39Fd6e51aad88F6F4ce6aB8827279cffFb92266",
        "10000000000000000000000"
      ],
      "transaction": {
        "from": "0xf39fd6e51aad88f6f4ce6ab8827279cfffb92266",
        "to": "0x5fbdb2315678afecb367f032d93f642f64180aa3",
        "gas": "0x17b5d",
        "value": "0x0",
        "input": "0x40c10f19000000000000000000000000f39fd6e51aad88f6f4ce6ab8827279cfffb9226600000000000000000000000000000000000000000000021e19e0c9bab2400000",
        "nonce": "0x1b",
        "chainId": "0x7a69"
      },
      "additionalContracts": [],
      "isFixedGasLimit": false
    },
    {
      "hash": "0x9a4288fd10633542cd1ad6a939ce892c5d54220432fe33a9546446af353f1c35",
      "transactionType": "CALL",
      "contractName": null,
      "contractAddress": "0x5fbdb2315678afecb367f032d93f642f64180aa3",
      "function": "approve(address,uint256)",
      "arguments": [
        "0x3Aa5ebB10DC797CAC828524e59A333d0A371443c",
        "10000000000000000000000"
      ],
      "transaction": {
        "from": "0xf39fd6e51aad88f6f4ce6ab8827279cfffb92266",
        "to": "0x5fbdb2315678afecb367f032d93f642f64180aa3",
        "gas": "0xf831",
        "value": "0x0",
        "input": "0x095ea7b30000000000000000000000003aa5ebb10dc797cac828524e59a333d0a371443c00000000000000000000000000000000000000000000021e19e0c9bab2400000",
        "nonce": "0x1c",
        "chainId": "0x7a69"
      },
      "additionalContracts": [],
      "isFixedGasLimit": false
    },
    {
      "hash": "0xd50acc0561cccba4c044ce5eeef3a29f04e66f95e70bf75f13892db6646b0e17",
      "transactionType": "CALL",
      "contractName": null,
      "contractAddress": "0x3aa5ebb10dc797cac828524e59a333d0a371443c",
      "function": "depositReserves(address,uint256)",
      "arguments": [
        "0x5FbDB2315678afecb367f032d93F642f64180aa3",
        "10000000000000000000000"
      ],
      "transaction": {
        "from": "0xf39fd6e51aad88f6f4ce6ab8827279cfffb92266",
        "to": "0x3aa5ebb10dc797cac828524e59a333d0a371443c",
        "gas": "0x121b7",
        "value": "0x0",
        "input": "0x5966e7330000000000000000000000005fbdb2315678afecb367f032d93f642f64180aa300000000000000000000000000000000000000000000021e19e0c9bab2400000",
        "nonce": "0x1d",
        "chainId": "0x7a69"
      },
      "additionalContracts": [],
      "isFixedGasLimit": false
    },
    {
      "hash": "0xb749ac4f441aaa83918813d0ce163c126d3ad5e390459f8ec0796e60b1a86a4a",
      "transactionType": "CALL",
      "contractName": null,
      "contractAddress": "0xe7f1725e7734ce288f8367e1bb143e90bb3f0512",
      "function": "mint(address,uint256)",
      "arguments": [
        "0xf39Fd6e51aad88F6F4ce6aB8827279cffFb92266",
        "10000000000000000000000"
      ],
      "transaction": {
        "from": "0xf39fd6e51aad88f6f4ce6ab8827279cfffb92266",
        "to": "0xe7f1725e7734ce288f8367e1bb143e90bb3f0512",
        "gas": "0x192a8",
        "value": "0x0",
        "input": "0x40c10f19000000000000000000000000f39fd6e51aad88f6f4ce6ab8827279cfffb9226600000000000000000000000000000000000000000000021e19e0c9bab2400000",
        "nonce": "0x1e",
        "chainId": "0x7a69"
      },
      "additionalContracts": [],
      "isFixedGasLimit": false
    },
    {
      "hash": "0xf6f5a3a929dc1507b741e4b43cf89c172bdc9c27ccfbaff1dd5075d88f8e1b92",
      "transactionType": "CALL",
      "contractName": null,
      "contractAddress": "0xe7f1725e7734ce288f8367e1bb143e90bb3f0512",
      "function": "approve(address,uint256)",
      "arguments": [
        "0x3Aa5ebB10DC797CAC828524e59A333d0A371443c",
        "10000000000000000000000"
      ],
      "transaction": {
        "from": "0xf39fd6e51aad88f6f4ce6ab8827279cfffb92266",
        "to": "0xe7f1725e7734ce288f8367e1bb143e90bb3f0512",
        "gas": "0x106e3",
        "value": "0x0",
        "input": "0x095ea7b30000000000000000000000003aa5ebb10dc797cac828524e59a333d0a371443c00000000000000000000000000000000000000000000021e19e0c9bab2400000",
        "nonce": "0x1f",
        "chainId": "0x7a69"
      },
      "additionalContracts": [],
      "isFixedGasLimit": false
    },
    {
      "hash": "0x03bf4def8d96f9b78ad88eb3326ed0437a96733917642511d727eba8aeb7f607",
      "transactionType": "CALL",
      "contractName": null,
      "contractAddress": "0x3aa5ebb10dc797cac828524e59a333d0a371443c",
      "function": "depositReserves(address,uint256)",
      "arguments": [
        "0xe7f1725E7734CE288F8367e1Bb143E90bb3F0512",
        "10000000000000000000000"
      ],
      "transaction": {
        "from": "0xf39fd6e51aad88f6f4ce6ab8827279cfffb92266",
        "to": "0x3aa5ebb10dc797cac828524e59a333d0a371443c",
        "gas": "0x121d5",
        "value": "0x0",
        "input": "0x5966e733000000000000000000000000e7f1725e7734ce288f8367e1bb143e90bb3f051200000000000000000000000000000000000000000000021e19e0c9bab2400000",
        "nonce": "0x20",
        "chainId": "0x7a69"
      },
      "additionalContracts": [],
      "isFixedGasLimit": false
    }
  ],
  "receipts": [
    {
      "status": "0x1",
      "cumulativeGasUsed": "0x113a1",
      "logs": [
        {
          "address": "0x8a791620dd6260079bf849dc5567adc3f2fdc318",
          "topics": [
            "0x2f8788117e7eff1d82e926ec794901d17c78024a50270940304540a733656f0d",
            "0x31e0210044b4f6757ce6aa31f9c6e8d4896d24a755014887391a926c5224d959",
            "0x0000000000000000000000000dcd1bf9a1b36ce34237eeafef220932846bcd82",
            "0x000000000000000000000000f39fd6e51aad88f6f4ce6ab8827279cfffb92266"
          ],
          "data": "0x",
          "blockHash": "0xd731126f0dd796454bc9a9e1c71b520ed1cc893e512b5784fbe9e9daa940f7fd",
          "blockNumber": "0xe",
          "blockTimestamp": "0x69990495",
          "transactionHash": "0xc1d6924ac66771d87261eb5fa59411ed659279e1874a015895b12f2b268daaf4",
          "transactionIndex": "0x0",
          "logIndex": "0x0",
          "removed": false
        }
      ],
      "logsBloom": "0x00000004000000000000000000000000000000000000000000000000000000000000000000000000000000000000000000000000000000000000000000000000000000000000000000000000000000000000000000000010000000000000000000000000000000000000000100000008000080000000000000000000000000000000000000000000000000000000000000000000000000000000000000000000002000000000000000000000008000000000000000000000001000000000000000000000000000200000000000020000040000002000000100000000000000000000000000080000000000000000000000000000080000000000000000000000",
      "type": "0x2",
      "transactionHash": "0xc1d6924ac66771d87261eb5fa59411ed659279e1874a015895b12f2b268daaf4",
      "transactionIndex": "0x0",
      "blockHash": "0xd731126f0dd796454bc9a9e1c71b520ed1cc893e512b5784fbe9e9daa940f7fd",
      "blockNumber": "0xe",
      "gasUsed": "0x113a1",
      "effectiveGasPrice": "0xbff5677",
      "blobGasPrice": "0x1",
      "from": "0xf39fd6e51aad88f6f4ce6ab8827279cfffb92266",
      "to": "0x8a791620dd6260079bf849dc5567adc3f2fdc318",
      "contractAddress": null
    },
    {
      "status": "0x1",
      "cumulativeGasUsed": "0xb68f",
      "logs": [],
      "logsBloom": "0x00000000000000000000000000000000000000000000000000000000000000000000000000000000000000000000000000000000000000000000000000000000000000000000000000000000000000000000000000000000000000000000000000000000000000000000000000000000000000000000000000000000000000000000000000000000000000000000000000000000000000000000000000000000000000000000000000000000000000000000000000000000000000000000000000000000000000000000000000000000000000000000000000000000000000000000000000000000000000000000000000000000000000000000000000000000",
      "type": "0x2",
      "transactionHash": "0xca951bef81cf01dec47fc63f1e87cbbe2de0026ae0db22e29ad27e43e19f5a34",
      "transactionIndex": "0x0",
      "blockHash": "0x9c4b7acff951718b91d961ff837e0b80976fef4234052f76a1869fa54948a833",
      "blockNumber": "0xf",
      "gasUsed": "0xb68f",
      "effectiveGasPrice": "0xa8139fd",
      "blobGasPrice": "0x1",
      "from": "0xf39fd6e51aad88f6f4ce6ab8827279cfffb92266",
      "to": "0x0dcd1bf9a1b36ce34237eeafef220932846bcd82",
      "contractAddress": null
    },
    {
      "status": "0x1",
      "cumulativeGasUsed": "0x17395",
      "logs": [
        {
          "address": "0xdc64a140aa3e981100a9beca4e685f962f0cf6c9",
          "topics": [
            "0x04b5780035dfc2873ad5e358af8f2b2554e53a40a87a9c1c63bdca629eb4b427",
            "0x0000000000000000000000000dcd1bf9a1b36ce34237eeafef220932846bcd82"
          ],
          "data": "0x0000000000000000000000000000000000000000000000000000000000000310",
          "blockHash": "0x9c4b7acff951718b91d961ff837e0b80976fef4234052f76a1869fa54948a833",
          "blockNumber": "0xf",
          "blockTimestamp": "0x69990495",
          "transactionHash": "0x47dd63402502b37931f0e97f82476ec2563b2ca08dde1b0b1887c4d3fc14085f",
          "transactionIndex": "0x1",
          "logIndex": "0x0",
          "removed": false
        }
      ],
      "logsBloom": "0x00000000000000000000000000000000000000000000000000000000000000000010000000000000000000000000000000000000000000000000000000000000000000000000000000000000000000000000000000000010000000000000000000000000000000000000000000000008000000000000000000000000000000000000000000000000000000000000000000000000000000000000000100000000000000000000000000000000000000000000000000000000000000000000000000000000000000000000000000000000000000000020800000000000000000000000000000000000000000000000000000000001080000000100000000000000",
      "type": "0x2",
      "transactionHash": "0x47dd63402502b37931f0e97f82476ec2563b2ca08dde1b0b1887c4d3fc14085f",
      "transactionIndex": "0x1",
      "blockHash": "0x9c4b7acff951718b91d961ff837e0b80976fef4234052f76a1869fa54948a833",
      "blockNumber": "0xf",
      "gasUsed": "0xbd06",
      "effectiveGasPrice": "0xa8139fd",
      "blobGasPrice": "0x1",
      "from": "0xf39fd6e51aad88f6f4ce6ab8827279cfffb92266",
      "to": "0xdc64a140aa3e981100a9beca4e685f962f0cf6c9",
      "contractAddress": null
    },
    {
      "status": "0x1",
      "cumulativeGasUsed": "0x7996",
      "logs": [
        {
          "address": "0xdc64a140aa3e981100a9beca4e685f962f0cf6c9",
          "topics": [
            "0x2df1cad2a2659e001c3804c872f69655356013e35c18c2e77a5d568078ab788f",
            "0x0000000000000000000000000dcd1bf9a1b36ce34237eeafef220932846bcd82"
          ],
          "data": "0x0000000000000000000000000000000000000000000000000000000000000001",
          "blockHash": "0xab65af29bdcd27cef90cc51e4376cfad915b7a3827f7a05fcc35a31093948266",
          "blockNumber": "0x10",
          "blockTimestamp": "0x69990495",
          "transactionHash": "0x660569c891242cb31fa89be3c639363c39b25363374bfd0672d5e8d1dd61ccf9",
          "transactionIndex": "0x0",
          "logIndex": "0x0",
          "removed": false
        }
      ],
      "logsBloom": "0x00000000000000000000000000000000000000000000000000000000000000000000010000000000000000000000000000000000000000000000000000000000000000000000000000000000000000000000000000000010200000000000000000000000000000000000000000000008000000000000000000000000000200000000000000000000000000000000000000000000000000000000000000000000000000000000000000000000000000000000000000000000000000000000000000000000000000000000000000000000000000000020000000000000000000000000000000000000000000000000000000000001080000000100000000000000",
      "type": "0x2",
      "transactionHash": "0x660569c891242cb31fa89be3c639363c39b25363374bfd0672d5e8d1dd61ccf9",
      "transactionIndex": "0x0",
      "blockHash": "0xab65af29bdcd27cef90cc51e4376cfad915b7a3827f7a05fcc35a31093948266",
      "blockNumber": "0x10",
      "gasUsed": "0x7996",
      "effectiveGasPrice": "0x933347a",
      "blobGasPrice": "0x1",
      "from": "0xf39fd6e51aad88f6f4ce6ab8827279cfffb92266",
      "to": "0xdc64a140aa3e981100a9beca4e685f962f0cf6c9",
      "contractAddress": null
    },
    {
      "status": "0x1",
      "cumulativeGasUsed": "0x18c3e",
      "logs": [
        {
          "address": "0x5fbdb2315678afecb367f032d93f642f64180aa3",
          "topics": [
            "0xddf252ad1be2c89b69c2b068fc378daa952ba7f163c4a11628f55a4df523b3ef",
            "0x0000000000000000000000000000000000000000000000000000000000000000",
            "0x000000000000000000000000f39fd6e51aad88f6f4ce6ab8827279cfffb92266"
          ],
          "data": "0x00000000000000000000000000000000000000000000021e19e0c9bab2400000",
          "blockHash": "0xab65af29bdcd27cef90cc51e4376cfad915b7a3827f7a05fcc35a31093948266",
          "blockNumber": "0x10",
          "blockTimestamp": "0x69990495",
          "transactionHash": "0x80ce21c2c73c055cd49e528409d415fadaf1f93f9ae01041897cffbea7568efd",
          "transactionIndex": "0x1",
          "logIndex": "0x1",
          "removed": false
        }
      ],
      "logsBloom": "0x00000000000000000000000000000000000000000000000000000000000000000000000000000000000000000000000000000000000000000000000000000000000000000000000000000008000000000000000000000000000000000000000000000040020000000000000100000800000000000000000000000010000000000000000000000000000000000000000000000000000000000000000200000000000000000000000000000000000000000000000000000000000000000000000000000042000000200000000000000000000000002000000000000000000020000000000000000000000000000000000000000000000000000000000000000000",
      "type": "0x2",
      "transactionHash": "0x80ce21c2c73c055cd49e528409d415fadaf1f93f9ae01041897cffbea7568efd",
      "transactionIndex": "0x1",
      "blockHash": "0xab65af29bdcd27cef90cc51e4376cfad915b7a3827f7a05fcc35a31093948266",
      "blockNumber": "0x10",
      "gasUsed": "0x112a8",
      "effectiveGasPrice": "0x933347a",
      "blobGasPrice": "0x1",
      "from": "0xf39fd6e51aad88f6f4ce6ab8827279cfffb92266",
      "to": "0x5fbdb2315678afecb367f032d93f642f64180aa3",
      "contractAddress": null
    },
    {
      "status": "0x1",
      "cumulativeGasUsed": "0xb3b0",
      "logs": [
        {
          "address": "0x5fbdb2315678afecb367f032d93f642f64180aa3",
          "topics": [
            "0x8c5be1e5ebec7d5bd14f71427d1e84f3dd0314c0f7b2291e5b200ac8c7c3b925",
            "0x000000000000000000000000f39fd6e51aad88f6f4ce6ab8827279cfffb92266",
            "0x0000000000000000000000003aa5ebb10dc797cac828524e59a333d0a371443c"
          ],
          "data": "0x00000000000000000000000000000000000000000000021e19e0c9bab2400000",
          "blockHash": "0x32f77c92bc83af758c940f7b2e7488a8a87cc0d7d4b7139c5016d6cea8073457",
          "blockNumber": "0x11",
          "blockTimestamp": "0x69990495",
          "transactionHash": "0x9a4288fd10633542cd1ad6a939ce892c5d54220432fe33a9546446af353f1c35",
          "transactionIndex": "0x0",
          "logIndex": "0x0",
          "removed": false
        }
      ],
      "logsBloom": "0x00040000000000000000000000000000000000000000000000000000000000000000000000000000000000000000000000000000000000000000000000200000000000002000000100000000000000000000000000000000000000000000000000000040000000000000000100000000000000000000000000000000000000000000000000000000000000000000000000000000000000000000000200000000020000000000000000000000000000000000000000000000000000000000000000000040000000200000000000000000000000002000000000000000000000000010000000000000000000000000000000000000000000000000000000000000",
      "type": "0x2",
      "transactionHash": "0x9a4288fd10633542cd1ad6a939ce892c5d54220432fe33a9546446af353f1c35",
      "transactionIndex": "0x0",
      "blockHash": "0x32f77c92bc83af758c940f7b2e7488a8a87cc0d7d4b7139c5016d6cea8073457",
      "blockNumber": "0x11",
      "gasUsed": "0xb3b0",
      "effectiveGasPrice": "0x80ecb97",
      "blobGasPrice": "0x1",
      "from": "0xf39fd6e51aad88f6f4ce6ab8827279cfffb92266",
      "to": "0x5fbdb2315678afecb367f032d93f642f64180aa3",
      "contractAddress": null
    },
    {
      "status": "0x1",
      "cumulativeGasUsed": "0x18570",
      "logs": [
        {
          "address": "0x5fbdb2315678afecb367f032d93f642f64180aa3",
          "topics": [
            "0xddf252ad1be2c89b69c2b068fc378daa952ba7f163c4a11628f55a4df523b3ef",
            "0x000000000000000000000000f39fd6e51aad88f6f4ce6ab8827279cfffb92266",
            "0x0000000000000000000000003aa5ebb10dc797cac828524e59a333d0a371443c"
          ],
          "data": "0x00000000000000000000000000000000000000000000021e19e0c9bab2400000",
          "blockHash": "0x32f77c92bc83af758c940f7b2e7488a8a87cc0d7d4b7139c5016d6cea8073457",
          "blockNumber": "0x11",
          "blockTimestamp": "0x69990495",
          "transactionHash": "0xd50acc0561cccba4c044ce5eeef3a29f04e66f95e70bf75f13892db6646b0e17",
          "transactionIndex": "0x1",
          "logIndex": "0x1",
          "removed": false
        },
        {
          "address": "0x3aa5ebb10dc797cac828524e59a333d0a371443c",
          "topics": [
            "0xcea2aa568570e239e616fd2e9bcf2301307aa1c1c1f355305a87e5cdd46bbc79",
            "0x0000000000000000000000005fbdb2315678afecb367f032d93f642f64180aa3"
          ],
          "data": "0x00000000000000000000000000000000000000000000021e19e0c9bab2400000",
          "blockHash": "0x32f77c92bc83af758c940f7b2e7488a8a87cc0d7d4b7139c5016d6cea8073457",
          "blockNumber": "0x11",
          "blockTimestamp": "0x69990495",
          "transactionHash": "0xd50acc0561cccba4c044ce5eeef3a29f04e66f95e70bf75f13892db6646b0e17",
          "transactionIndex": "0x1",
          "logIndex": "0x2",
          "removed": false
        }
      ],
      "logsBloom": "0x00040000000000000000000000000000000000000000000000000000000000000000000000000000000800000010000000000000000000000000000000000000000000002000000100000008000000000000000000000000000000000000000000000040000000000000000100800000000004000000000000000010000000000000000000000020000000000000000000000000000000000000020200000000000000000000000000000000000000000000000000000000000000000000000000000042004000200000000000000000000000002008000000000000000000000000000000000000000000004000000000000000000000000000000000000000",
      "type": "0x2",
      "transactionHash": "0xd50acc0561cccba4c044ce5eeef3a29f04e66f95e70bf75f13892db6646b0e17",
      "transactionIndex": "0x1",
      "blockHash": "0x32f77c92bc83af758c940f7b2e7488a8a87cc0d7d4b7139c5016d6cea8073457",
      "blockNumber": "0x11",
      "gasUsed": "0xd1c0",
      "effectiveGasPrice": "0x80ecb97",
      "blobGasPrice": "0x1",
      "from": "0xf39fd6e51aad88f6f4ce6ab8827279cfffb92266",
      "to": "0x3aa5ebb10dc797cac828524e59a333d0a371443c",
      "contractAddress": null
    },
    {
      "status": "0x1",
      "cumulativeGasUsed": "0x298c3",
      "logs": [
        {
          "address": "0xe7f1725e7734ce288f8367e1bb143e90bb3f0512",
          "topics": [
            "0xddf252ad1be2c89b69c2b068fc378daa952ba7f163c4a11628f55a4df523b3ef",
            "0x0000000000000000000000000000000000000000000000000000000000000000",
            "0x000000000000000000000000f39fd6e51aad88f6f4ce6ab8827279cfffb92266"
          ],
          "data": "0x00000000000000000000000000000000000000000000021e19e0c9bab2400000",
          "blockHash": "0x32f77c92bc83af758c940f7b2e7488a8a87cc0d7d4b7139c5016d6cea8073457",
          "blockNumber": "0x11",
          "blockTimestamp": "0x69990495",
          "transactionHash": "0xb749ac4f441aaa83918813d0ce163c126d3ad5e390459f8ec0796e60b1a86a4a",
          "transactionIndex": "0x2",
          "logIndex": "0x3",
          "removed": false
        }
      ],
      "logsBloom": "0x00000000000000000000000000000000000000000000000000000000000000000000000000000000000000000000000010000000000000000000000000000000000000000000000000000008000000000000000000000000000000000000000000000000020000000000000100000800000000000000000000000010000000000000000000000000000000000000000000000000000000000000000000000000000000000000000000000000000000000000000000000000000000000000000000000002000000200000000000001000000000002000000000000000000020000000000000000000000000000000000000000000000000800000000000000000",
      "type": "0x2",
      "transactionHash": "0xb749ac4f441aaa83918813d0ce163c126d3ad5e390459f8ec0796e60b1a86a4a",
      "transactionIndex": "0x2",
      "blockHash": "0x32f77c92bc83af758c940f7b2e7488a8a87cc0d7d4b7139c5016d6cea8073457",
      "blockNumber": "0x11",
      "gasUsed": "0x11353",
      "effectiveGasPrice": "0x80ecb97",
      "blobGasPrice": "0x1",
      "from": "0xf39fd6e51aad88f6f4ce6ab8827279cfffb92266",
      "to": "0xe7f1725e7734ce288f8367e1bb143e90bb3f0512",
      "contractAddress": null
    },
    {
      "status": "0x1",
      "cumulativeGasUsed": "0xb3c1",
      "logs": [
        {
          "address": "0xe7f1725e7734ce288f8367e1bb143e90bb3f0512",
          "topics": [
            "0x8c5be1e5ebec7d5bd14f71427d1e84f3dd0314c0f7b2291e5b200ac8c7c3b925",
            "0x000000000000000000000000f39fd6e51aad88f6f4ce6ab8827279cfffb92266",
            "0x0000000000000000000000003aa5ebb10dc797cac828524e59a333d0a371443c"
          ],
          "data": "0x00000000000000000000000000000000000000000000021e19e0c9bab2400000",
          "blockHash": "0xd61daa678a159f24206e8e583477ad44c1f244545be12f80b37f46155623f2d7",
          "blockNumber": "0x12",
          "blockTimestamp": "0x69990495",
          "transactionHash": "0xf6f5a3a929dc1507b741e4b43cf89c172bdc9c27ccfbaff1dd5075d88f8e1b92",
          "transactionIndex": "0x0",
          "logIndex": "0x0",
          "removed": false
        }
      ],
      "logsBloom": "0x00040000000000000000000000000000000000000000000000000000000000000000000000000000000000000000000010000000000000000000000000200000000000002000000100000000000000000000000000000000000000000000000000000000000000000000000100000000000000000000000000000000000000000000000000000000000000000000000000000000000000000000000000000000020000000000000000000000000000000000000000000000000000000000000000000000000000200000000000001000000000002000000000000000000000000010000000000000000000000000000000000000000000800000000000000000",
      "type": "0x2",
      "transactionHash": "0xf6f5a3a929dc1507b741e4b43cf89c172bdc9c27ccfbaff1dd5075d88f8e1b92",
      "transactionIndex": "0x0",
      "blockHash": "0xd61daa678a159f24206e8e583477ad44c1f244545be12f80b37f46155623f2d7",
      "blockNumber": "0x12",
      "gasUsed": "0xb3c1",
      "effectiveGasPrice": "0x70fdf0a",
      "blobGasPrice": "0x1",
      "from": "0xf39fd6e51aad88f6f4ce6ab8827279cfffb92266",
      "to": "0xe7f1725e7734ce288f8367e1bb143e90bb3f0512",
      "contractAddress": null
    },
    {
      "status": "0x1",
      "cumulativeGasUsed": "0xd1d6",
      "logs": [
        {
          "address": "0xe7f1725e7734ce288f8367e1bb143e90bb3f0512",
          "topics": [
            "0xddf252ad1be2c89b69c2b068fc378daa952ba7f163c4a11628f55a4df523b3ef",
            "0x000000000000000000000000f39fd6e51aad88f6f4ce6ab8827279cfffb92266",
            "0x0000000000000000000000003aa5ebb10dc797cac828524e59a333d0a371443c"
          ],
          "data": "0x00000000000000000000000000000000000000000000021e19e0c9bab2400000",
          "blockHash": "0xf662fc69eae01d8b8379f4c8d392ab51d95f82002471ba7c65cab5706ebdd48b",
          "blockNumber": "0x13",
          "blockTimestamp": "0x69990495",
          "transactionHash": "0x03bf4def8d96f9b78ad88eb3326ed0437a96733917642511d727eba8aeb7f607",
          "transactionIndex": "0x0",
          "logIndex": "0x0",
          "removed": false
        },
        {
          "address": "0x3aa5ebb10dc797cac828524e59a333d0a371443c",
          "topics": [
            "0xcea2aa568570e239e616fd2e9bcf2301307aa1c1c1f355305a87e5cdd46bbc79",
            "0x000000000000000000000000e7f1725e7734ce288f8367e1bb143e90bb3f0512"
          ],
          "data": "0x00000000000000000000000000000000000000000000021e19e0c9bab2400000",
          "blockHash": "0xf662fc69eae01d8b8379f4c8d392ab51d95f82002471ba7c65cab5706ebdd48b",
          "blockNumber": "0x13",
          "blockTimestamp": "0x69990495",
          "transactionHash": "0x03bf4def8d96f9b78ad88eb3326ed0437a96733917642511d727eba8aeb7f607",
          "transactionIndex": "0x0",
          "logIndex": "0x1",
          "removed": false
        }
      ],
      "logsBloom": "0x00040000000000000400000000000000000000000000000000000000000000000000000000000000000800000010000010000000000000000000000000000000000000002000000100000008000000000000000000000000000000000000000000000000000000000000000100000000000000000000000000000014000000000000000000000020000000000000000000000000000000000000020000000000000000000000000000000002000000000000000000000000000000000000000000000002004000200000000000001000000000002000000000000000000000000000000000000000000000004000000000000000000000800000000000000000",
      "type": "0x2",
      "transactionHash": "0x03bf4def8d96f9b78ad88eb3326ed0437a96733917642511d727eba8aeb7f607",
      "transactionIndex": "0x0",
      "blockHash": "0xf662fc69eae01d8b8379f4c8d392ab51d95f82002471ba7c65cab5706ebdd48b",
      "blockNumber": "0x13",
      "gasUsed": "0xd1d6",
      "effectiveGasPrice": "0x62e94a4",
      "blobGasPrice": "0x1",
      "from": "0xf39fd6e51aad88f6f4ce6ab8827279cfffb92266",
      "to": "0x3aa5ebb10dc797cac828524e59a333d0a371443c",
      "contractAddress": null
    }
  ],
  "libraries": [],
  "pending": [],
  "returns": {},
  "timestamp": 1771635861753,
  "chain": 31337,
  "commit": null
}