{
  "transactions": [
    {
      "hash": "0x703eb2dbce229b273317b1c3dbce977e0467cb4532590e4e03051e18ff157f2e",
      "transactionType": "CALL",
      "contractName": null,
      "contractAddress": "0x8a791620dd6260079bf849dc5567adc3f2fdc318",
      "function": "setVault(address)",
      "arguments": [
        "0x0DCd1Bf9A1b36cE34237eEaFef220932846BCD82"
      ],
      "transaction": {
        "from": "0xf39fd6e51aad88f6f4ce6ab8827279cfffb92266",
        "to": "0x8a791620dd6260079bf849dc5567adc3f2fdc318",
        "gas": "0x1931b",
        "value": "0x0",
        "input": "0x6817031b0000000000000000000000000dcd1bf9a1b36ce34237eeafef220932846bcd82",
        "nonce": "0x17",
        "chainId": "0x7a69"
      },
      "additionalContracts": [],
      "isFixedGasLimit": false
    },
    {
      "hash": "0xd1c433f03a7790e4ab7d43b2f339dd322ae8f8020fac3cef49aa641b0c709cb8",
      "transactionType": "CALL",
      "contractName": null,
      "contractAddress": "0x0dcd1bf9a1b36ce34237eeafef220932846bcd82",
      "function": "setOrchestrator(address)",
      "arguments": [
        "0x8A791620dd6260079BF849Dc5567aDC3F2FdC318"
      ],
      "transaction": {
        "from": "0xf39fd6e51aad88f6f4ce6ab8827279cfffb92266",
        "to": "0x0dcd1bf9a1b36ce34237eeafef220932846bcd82",
        "gas": "0xfc27",
        "value": "0x0",
        "input": "0xcd28ef0d0000000000000000000000008a791620dd6260079bf849dc5567adc3f2fdc318",
        "nonce": "0x18",
        "chainId": "0x7a69"
      },
      "additionalContracts": [],
      "isFixedGasLimit": false
    },
    {
      "hash": "0x95aa42c5a2708aa62bafc0015faa977f80634b4b4adf0c4f7340dc73d9f067de",
      "transactionType": "CALL",
      "contractName": null,
      "contractAddress": "0xdc64a140aa3e981100a9beca4e685f962f0cf6c9",
      "function": "registerIdentity(address,uint16)",
      "arguments": [
        "0x0DCd1Bf9A1b36cE34237eEaFef220932846BCD82",
        "784"
      ],
      "transaction": {
        "from": "0xf39fd6e51aad88f6f4ce6ab8827279cfffb92266",
        "to": "0xdc64a140aa3e981100a9beca4e685f962f0cf6c9",
        "gas": "0x10516",
        "value": "0x0",
        "input": "0xc5a80fa70000000000000000000000000dcd1bf9a1b36ce34237eeafef220932846bcd820000000000000000000000000000000000000000000000000000000000000310",
        "nonce": "0x19",
        "chainId": "0x7a69"
      },
      "additionalContracts": [],
      "isFixedGasLimit": false
    },
    {
      "hash": "0x0db62d047894228219f9dd16f8d2978766e0ff70fc6ab27f982f635dbcecd5b0",
      "transactionType": "CALL",
      "contractName": null,
      "contractAddress": "0xdc64a140aa3e981100a9beca4e685f962f0cf6c9",
      "function": "setKycStatus(address,bool)",
      "arguments": [
        "0x0DCd1Bf9A1b36cE34237eEaFef220932846BCD82",
        "true"
      ],
      "transaction": {
        "from": "0xf39fd6e51aad88f6f4ce6ab8827279cfffb92266",
        "to": "0xdc64a140aa3e981100a9beca4e685f962f0cf6c9",
        "gas": "0xa7f0",
        "value": "0x0",
        "input": "0xe37a35c70000000000000000000000000dcd1bf9a1b36ce34237eeafef220932846bcd820000000000000000000000000000000000000000000000000000000000000001",
        "nonce": "0x1a",
        "chainId": "0x7a69"
      },
      "additionalContracts": [],
      "isFixedGasLimit": false
    },
    {
      "hash": "0xee2c9a68612d3732afcfd1ce2858da34e5d2c2120eb8a5496e50ae6b76a1581e",
      "transactionType": "CALL",
      "contractName": null,
      "contractAddress": "0x5fbdb2315678afecb367f032d93f642f64180aa3",
      "function": "mint(address,uint256)",
      "arguments": [
        "0xf39Fd6e51aad88F6F4ce6aB8827279cffFb92266",
        "10000000000000000000000"
      ],
      "transaction": {
        "from": "0xf39fd6e51aad88f6f4ce6ab8827279cfffb92266",
        "to": "0x5fbdb2315678afecb367f032d93f642f64180aa3",
        "gas": "0x17b5d",
        "value": "0x0",
        "input": "0x40c10f19000000000000000000000000f39fd6e51aad88f6f4ce6ab8827279cfffb9226600000000000000000000000000000000000000000000021e19e0c9bab2400000",
        "nonce": "0x1b",
        "chainId": "0x7a69"
      },
      "additionalContracts": [],
      "isFixedGasLimit": false
    },
    {
      "hash": "0x1dbbc985668ab3eb2bfa479fb69cf69e143754b3636696739adc02b4c7172d41",
      "transactionType": "CALL",
      "contractName": null,
      "contractAddress": "0x5fbdb2315678afecb367f032d93f642f64180aa3",
      "function": "approve(address,uint256)",
      "arguments": [
        "0x3Aa5ebB10DC797CAC828524e59A333d0A371443c",
        "10000000000000000000000"
      ],
      "transaction": {
        "from": "0xf39fd6e51aad88f6f4ce6ab8827279cfffb92266",
        "to": "0x5fbdb2315678afecb367f032d93f642f64180aa3",
        "gas": "0xf831",
        "value": "0x0",
        "input": "0x095ea7b30000000000000000000000003aa5ebb10dc797cac828524e59a333d0a371443c00000000000000000000000000000000000000000000021e19e0c9bab2400000",
        "nonce": "0x1c",
        "chainId": "0x7a69"
      },
      "additionalContracts": [],
      "isFixedGasLimit": false
    },
    {
      "hash": "0x8d1ed1386755c4dd1f9bfabfb93e3c9333c88fe2e4c54adb7740a83885305114",
      "transactionType": "CALL",
      "contractName": null,
      "contractAddress": "0x3aa5ebb10dc797cac828524e59a333d0a371443c",
      "function": "depositReserves(address,uint256)",
      "arguments": [
        "0x5FbDB2315678afecb367f032d93F642f64180aa3",
        "10000000000000000000000"
      ],
      "transaction": {
        "from": "0xf39fd6e51aad88f6f4ce6ab8827279cfffb92266",
        "to": "0x3aa5ebb10dc797cac828524e59a333d0a371443c",
        "gas": "0x121b7",
        "value": "0x0",
        "input": "0x5966e7330000000000000000000000005fbdb2315678afecb367f032d93f642f64180aa300000000000000000000000000000000000000000000021e19e0c9bab2400000",
        "nonce": "0x1d",
        "chainId": "0x7a69"
      },
      "additionalContracts": [],
      "isFixedGasLimit": false
    },
    {
      "hash": "0x96e0466ac3dd3446d09fe86bf31022118a4ad52ab42df13c7f17ab0dcffad4f0",
      "transactionType": "CALL",
      "contractName": null,
      "contractAddress": "0xe7f1725e7734ce288f8367e1bb143e90bb3f0512",
      "function": "mint(address,uint256)",
      "arguments": [
        "0xf39Fd6e51aad88F6F4ce6aB8827279cffFb92266",
        "10000000000000000000000"
      ],
      "transaction": {
        "from": "0xf39fd6e51aad88f6f4ce6ab8827279cfffb92266",
        "to": "0xe7f1725e7734ce288f8367e1bb143e90bb3f0512",
        "gas": "0x192a8",
        "value": "0x0",
        "input": "0x40c10f19000000000000000000000000f39fd6e51aad88f6f4ce6ab8827279cfffb9226600000000000000000000000000000000000000000000021e19e0c9bab2400000",
        "nonce": "0x1e",
        "chainId": "0x7a69"
      },
      "additionalContracts": [],
      "isFixedGasLimit": false
    },
    {
      "hash": "0xf57c0120094925fd2b3b20285d76788223d5ea12d6c0b7131048f3f9b636915e",
      "transactionType": "CALL",
      "contractName": null,
      "contractAddress": "0xe7f1725e7734ce288f8367e1bb143e90bb3f0512",
      "function": "approve(address,uint256)",
      "arguments": [
        "0x3Aa5ebB10DC797CAC828524e59A333d0A371443c",
        "10000000000000000000000"
      ],
      "transaction": {
        "from": "0xf39fd6e51aad88f6f4ce6ab8827279cfffb92266",
        "to": "0xe7f1725e7734ce288f8367e1bb143e90bb3f0512",
        "gas": "0x106e3",
        "value": "0x0",
        "input": "0x095ea7b30000000000000000000000003aa5ebb10dc797cac828524e59a333d0a371443c00000000000000000000000000000000000000000000021e19e0c9bab2400000",
        "nonce": "0x1f",
        "chainId": "0x7a69"
      },
      "additionalContracts": [],
      "isFixedGasLimit": false
    },
    {
      "hash": "0x100a68f6d30b064a0a4ec34699481b6e57c729ea65a9dc9d6a80e89225015d91",
      "transactionType": "CALL",
      "contractName": null,
      "contractAddress": "0x3aa5ebb10dc797cac828524e59a333d0a371443c",
      "function": "depositReserves(address,uint256)",
      "arguments": [
        "0xe7f1725E7734CE288F8367e1Bb143E90bb3F0512",
        "10000000000000000000000"
      ],
      "transaction": {
        "from": "0xf39fd6e51aad88f6f4ce6ab8827279cfffb92266",
        "to": "0x3aa5ebb10dc797cac828524e59a333d0a371443c",
        "gas": "0x121d5",
        "value": "0x0",
        "input": "0x5966e733000000000000000000000000e7f1725e7734ce288f8367e1bb143e90bb3f051200000000000000000000000000000000000000000000021e19e0c9bab2400000",
        "nonce": "0x20",
        "chainId": "0x7a69"
      },
      "additionalContracts": [],
      "isFixedGasLimit": false
    }
  ],
  "receipts": [
    {
      "status": "0x1",
      "cumulativeGasUsed": "0x113a1",
      "logs": [
        {
          "address": "0x8a791620dd6260079bf849dc5567adc3f2fdc318",
          "topics": [
            "0x2f8788117e7eff1d82e926ec794901d17c78024a50270940304540a733656f0d",
            "0x31e0210044b4f6757ce6aa31f9c6e8d4896d24a755014887391a926c5224d959",
            "0x0000000000000000000000000dcd1bf9a1b36ce34237eeafef220932846bcd82",
            "0x000000000000000000000000f39fd6e51aad88f6f4ce6ab8827279cfffb92266"
          ],
          "data": "0x",
          "blockHash": "0xd685fa0203f56c5c5810e9dc592046d1fcdac5f5c3792a63cd33d52907c96de6",
          "blockNumber": "0xf",
          "blockTimestamp": "0x69990ddb",
          "transactionHash": "0x703eb2dbce229b273317b1c3dbce977e0467cb4532590e4e03051e18ff157f2e",
          "transactionIndex": "0x0",
          "logIndex": "0x0",
          "removed": false
        }
      ],
      "logsBloom": "0x00000004000000000000000000000000000000000000000000000000000000000000000000000000000000000000000000000000000000000000000000000000000000000000000000000000000000000000000000000010000000000000000000000000000000000000000100000008000080000000000000000000000000000000000000000000000000000000000000000000000000000000000000000000002000000000000000000000008000000000000000000000001000000000000000000000000000200000000000020000040000002000000100000000000000000000000000080000000000000000000000000000080000000000000000000000",
      "type": "0x2",
      "transactionHash": "0x703eb2dbce229b273317b1c3dbce977e0467cb4532590e4e03051e18ff157f2e",
      "transactionIndex": "0x0",
      "blockHash": "0xd685fa0203f56c5c5810e9dc592046d1fcdac5f5c3792a63cd33d52907c96de6",
      "blockNumber": "0xf",
      "gasUsed": "0x113a1",
      "effectiveGasPrice": "0xa7f714d",
      "blobGasPrice": "0x1",
      "from": "0xf39fd6e51aad88f6f4ce6ab8827279cfffb92266",
      "to": "0x8a791620dd6260079bf849dc5567adc3f2fdc318",
      "contractAddress": null
    },
    {
      "status": "0x1",
      "cumulativeGasUsed": "0xb68f",
      "logs": [],
      "logsBloom": "0x00000000000000000000000000000000000000000000000000000000000000000000000000000000000000000000000000000000000000000000000000000000000000000000000000000000000000000000000000000000000000000000000000000000000000000000000000000000000000000000000000000000000000000000000000000000000000000000000000000000000000000000000000000000000000000000000000000000000000000000000000000000000000000000000000000000000000000000000000000000000000000000000000000000000000000000000000000000000000000000000000000000000000000000000000000000",
      "type": "0x2",
      "transactionHash": "0xd1c433f03a7790e4ab7d43b2f339dd322ae8f8020fac3cef49aa641b0c709cb8",
      "transactionIndex": "0x0",
      "blockHash": "0x6c8f3b6d86344092ebe46594c2677919f2ffb8590c80b9989099fe50e84de740",
      "blockNumber": "0x10",
      "gasUsed": "0xb68f",
      "effectiveGasPrice": "0x93117af",
      "blobGasPrice": "0x1",
      "from": "0xf39fd6e51aad88f6f4ce6ab8827279cfffb92266",
      "to": "0x0dcd1bf9a1b36ce34237eeafef220932846bcd82",
      "contractAddress": null
    },
    {
      "status": "0x1",
      "cumulativeGasUsed": "0x17395",
      "logs": [
        {
          "address": "0xdc64a140aa3e981100a9beca4e685f962f0cf6c9",
          "topics": [
            "0x04b5780035dfc2873ad5e358af8f2b2554e53a40a87a9c1c63bdca629eb4b427",
            "0x0000000000000000000000000dcd1bf9a1b36ce34237eeafef220932846bcd82"
          ],
          "data": "0x0000000000000000000000000000000000000000000000000000000000000310",
          "blockHash": "0x6c8f3b6d86344092ebe46594c2677919f2ffb8590c80b9989099fe50e84de740",
          "blockNumber": "0x10",
          "blockTimestamp": "0x69990ddb",
          "transactionHash": "0x95aa42c5a2708aa62bafc0015faa977f80634b4b4adf0c4f7340dc73d9f067de",
          "transactionIndex": "0x1",
          "logIndex": "0x0",
          "removed": false
        }
      ],
      "logsBloom": "0x00000000000000000000000000000000000000000000000000000000000000000010000000000000000000000000000000000000000000000000000000000000000000000000000000000000000000000000000000000010000000000000000000000000000000000000000000000008000000000000000000000000000000000000000000000000000000000000000000000000000000000000000100000000000000000000000000000000000000000000000000000000000000000000000000000000000000000000000000000000000000000020800000000000000000000000000000000000000000000000000000000001080000000100000000000000",
      "type": "0x2",
      "transactionHash": "0x95aa42c5a2708aa62bafc0015faa977f80634b4b4adf0c4f7340dc73d9f067de",
      "transactionIndex": "0x1",
      "blockHash": "0x6c8f3b6d86344092ebe46594c2677919f2ffb8590c80b9989099fe50e84de740",
      "blockNumber": "0x10",
      "gasUsed": "0xbd06",
      "effectiveGasPrice": "0x93117af",
      "blobGasPrice": "0x1",
      "from": "0xf39fd6e51aad88f6f4ce6ab8827279cfffb92266",
      "to": "0xdc64a140aa3e981100a9beca4e685f962f0cf6c9",
      "contractAddress": null
    },
    {
      "status": "0x1",
      "cumulativeGasUsed": "0x7996",
      "logs": [
        {
          "address": "0xdc64a140aa3e981100a9beca4e685f962f0cf6c9",
          "topics": [
            "0x2df1cad2a2659e001c3804c872f69655356013e35c18c2e77a5d568078ab788f",
            "0x0000000000000000000000000dcd1bf9a1b36ce34237eeafef220932846bcd82"
          ],
          "data": "0x0000000000000000000000000000000000000000000000000000000000000001",
          "blockHash": "0xed60853fed539b3c58586042bc8c4a28a7d6d344d44b4ea08516c9408be560e2",
          "blockNumber": "0x11",
          "blockTimestamp": "0x69990ddb",
          "transactionHash": "0x0db62d047894228219f9dd16f8d2978766e0ff70fc6ab27f982f635dbcecd5b0",
          "transactionIndex": "0x0",
          "logIndex": "0x0",
          "removed": false
        }
      ],
      "logsBloom": "0x00000000000000000000000000000000000000000000000000000000000000000000010000000000000000000000000000000000000000000000000000000000000000000000000000000000000000000000000000000010200000000000000000000000000000000000000000000008000000000000000000000000000200000000000000000000000000000000000000000000000000000000000000000000000000000000000000000000000000000000000000000000000000000000000000000000000000000000000000000000000000000020000000000000000000000000000000000000000000000000000000000001080000000100000000000000",
      "type": "0x2",
      "transactionHash": "0x0db62d047894228219f9dd16f8d2978766e0ff70fc6ab27f982f635dbcecd5b0",
      "transactionIndex": "0x0",
      "blockHash": "0xed60853fed539b3c58586042bc8c4a28a7d6d344d44b4ea08516c9408be560e2",
      "blockNumber": "0x11",
      "gasUsed": "0x7996",
      "effectiveGasPrice": "0x80cd23f",
      "blobGasPrice": "0x1",
      "from": "0xf39fd6e51aad88f6f4ce6ab8827279cfffb92266",
      "to": "0xdc64a140aa3e981100a9beca4e685f962f0cf6c9",
      "contractAddress": null
    },
    {
      "status": "0x1",
      "cumulativeGasUsed": "0x18c3e",
      "logs": [
        {
          "address": "0x5fbdb2315678afecb367f032d93f642f64180aa3",
          "topics": [
            "0xddf252ad1be2c89b69c2b068fc378daa952ba7f163c4a11628f55a4df523b3ef",
            "0x0000000000000000000000000000000000000000000000000000000000000000",
            "0x000000000000000000000000f39fd6e51aad88f6f4ce6ab8827279cfffb92266"
          ],
          "data": "0x00000000000000000000000000000000000000000000021e19e0c9bab2400000",
          "blockHash": "0xed60853fed539b3c58586042bc8c4a28a7d6d344d44b4ea08516c9408be560e2",
          "blockNumber": "0x11",
          "blockTimestamp": "0x69990ddb",
          "transactionHash": "0xee2c9a68612d3732afcfd1ce2858da34e5d2c2120eb8a5496e50ae6b76a1581e",
          "transactionIndex": "0x1",
          "logIndex": "0x1",
          "removed": false
        }
      ],
      "logsBloom": "0x00000000000000000000000000000000000000000000000000000000000000000000000000000000000000000000000000000000000000000000000000000000000000000000000000000008000000000000000000000000000000000000000000000040020000000000000100000800000000000000000000000010000000000000000000000000000000000000000000000000000000000000000200000000000000000000000000000000000000000000000000000000000000000000000000000042000000200000000000000000000000002000000000000000000020000000000000000000000000000000000000000000000000000000000000000000",
      "type": "0x2",
      "transactionHash": "0xee2c9a68612d3732afcfd1ce2858da34e5d2c2120eb8a5496e50ae6b76a1581e",
      "transactionIndex": "0x1",
      "blockHash": "0xed60853fed539b3c58586042bc8c4a28a7d6d344d44b4ea08516c9408be560e2",
      "blockNumber": "0x11",
      "gasUsed": "0x112a8",
      "effectiveGasPrice": "0x80cd23f",
      "blobGasPrice": "0x1",
      "from": "0xf39fd6e51aad88f6f4ce6ab8827279cfffb92266",
      "to": "0x5fbdb2315678afecb367f032d93f642f64180aa3",
      "contractAddress": null
    },
    {
      "status": "0x1",
      "cumulativeGasUsed": "0x23fee",
      "logs": [
        {
          "address": "0x5fbdb2315678afecb367f032d93f642f64180aa3",
          "topics": [
            "0x8c5be1e5ebec7d5bd14f71427d1e84f3dd0314c0f7b2291e5b200ac8c7c3b925",
            "0x000000000000000000000000f39fd6e51aad88f6f4ce6ab8827279cfffb92266",
            "0x0000000000000000000000003aa5ebb10dc797cac828524e59a333d0a371443c"
          ],
          "data": "0x00000000000000000000000000000000000000000000021e19e0c9bab2400000",
          "blockHash": "0xed60853fed539b3c58586042bc8c4a28a7d6d344d44b4ea08516c9408be560e2",
          "blockNumber": "0x11",
          "blockTimestamp": "0x69990ddb",
          "transactionHash": "0x1dbbc985668ab3eb2bfa479fb69cf69e143754b3636696739adc02b4c7172d41",
          "transactionIndex": "0x2",
          "logIndex": "0x2",
          "removed": false
        }
      ],
      "logsBloom": "0x00040000000000000000000000000000000000000000000000000000000000000000000000000000000000000000000000000000000000000000000000200000000000002000000100000000000000000000000000000000000000000000000000000040000000000000000100000000000000000000000000000000000000000000000000000000000000000000000000000000000000000000000200000000020000000000000000000000000000000000000000000000000000000000000000000040000000200000000000000000000000002000000000000000000000000010000000000000000000000000000000000000000000000000000000000000",
      "type": "0x2",
      "transactionHash": "0x1dbbc985668ab3eb2bfa479fb69cf69e143754b3636696739adc02b4c7172d41",
      "transactionIndex": "0x2",
      "blockHash": "0xed60853fed539b3c58586042bc8c4a28a7d6d344d44b4ea08516c9408be560e2",
      "blockNumber": "0x11",
      "gasUsed": "0xb3b0",
      "effectiveGasPrice": "0x80cd23f",
      "blobGasPrice": "0x1",
      "from": "0xf39fd6e51aad88f6f4ce6ab8827279cfffb92266",
      "to": "0x5fbdb2315678afecb367f032d93f642f64180aa3",
      "contractAddress": null
    },
    {
      "status": "0x1",
      "cumulativeGasUsed": "0xd1c0",
      "logs": [
        {
          "address": "0x5fbdb2315678afecb367f032d93f642f64180aa3",
          "topics": [
            "0xddf252ad1be2c89b69c2b068fc378daa952ba7f163c4a11628f55a4df523b3ef",
            "0x000000000000000000000000f39fd6e51aad88f6f4ce6ab8827279cfffb92266",
            "0x0000000000000000000000003aa5ebb10dc797cac828524e59a333d0a371443c"
          ],
          "data": "0x00000000000000000000000000000000000000000000021e19e0c9bab2400000",
          "blockHash": "0xc565496d2816939d26f24c2c329c4ac4927aea8d8254a1491570a18f2f335266",
          "blockNumber": "0x12",
          "blockTimestamp": "0x69990ddb",
          "transactionHash": "0x8d1ed1386755c4dd1f9bfabfb93e3c9333c88fe2e4c54adb7740a83885305114",
          "transactionIndex": "0x0",
          "logIndex": "0x0",
          "removed": false
        },
        {
          "address": "0x3aa5ebb10dc797cac828524e59a333d0a371443c",
          "topics": [
            "0xcea2aa568570e239e616fd2e9bcf2301307aa1c1c1f355305a87e5cdd46bbc79",
            "0x0000000000000000000000005fbdb2315678afecb367f032d93f642f64180aa3"
          ],
          "data": "0x00000000000000000000000000000000000000000000021e19e0c9bab2400000",
          "blockHash": "0xc565496d2816939d26f24c2c329c4ac4927aea8d8254a1491570a18f2f335266",
          "blockNumber": "0x12",
          "blockTimestamp": "0x69990ddb",
          "transactionHash": "0x8d1ed1386755c4dd1f9bfabfb93e3c9333c88fe2e4c54adb7740a83885305114",
          "transactionIndex": "0x0",
          "logIndex": "0x1",
          "removed": false
        }
      ],
      "logsBloom": "0x00040000000000000000000000000000000000000000000000000000000000000000000000000000000800000010000000000000000000000000000000000000000000002000000100000008000000000000000000000000000000000000000000000040000000000000000100800000000004000000000000000010000000000000000000000020000000000000000000000000000000000000020200000000000000000000000000000000000000000000000000000000000000000000000000000042004000200000000000000000000000002008000000000000000000000000000000000000000000004000000000000000000000000000000000000000",
      "type": "0x2",
      "transactionHash": "0x8d1ed1386755c4dd1f9bfabfb93e3c9333c88fe2e4c54adb7740a83885305114",
      "transactionIndex": "0x0",
      "blockHash": "0xc565496d2816939d26f24c2c329c4ac4927aea8d8254a1491570a18f2f335266",
      "blockNumber": "0x12",
      "gasUsed": "0xd1c0",
      "effectiveGasPrice": "0x70dc02b",
      "blobGasPrice": "0x1",
      "from": "0xf39fd6e51aad88f6f4ce6ab8827279cfffb92266",
      "to": "0x3aa5ebb10dc797cac828524e59a333d0a371443c",
      "contractAddress": null
    },
    {
      "status": "0x1",
      "cumulativeGasUsed": "0x11353",
      "logs": [
        {
          "address": "0xe7f1725e7734ce288f8367e1bb143e90bb3f0512",
          "topics": [
            "0xddf252ad1be2c89b69c2b068fc378daa952ba7f163c4a11628f55a4df523b3ef",
            "0x0000000000000000000000000000000000000000000000000000000000000000",
            "0x000000000000000000000000f39fd6e51aad88f6f4ce6ab8827279cfffb92266"
          ],
          "data": "0x00000000000000000000000000000000000000000000021e19e0c9bab2400000",
          "blockHash": "0x23cebd94bac88549aa25a9f074fb40bb46d501853f5a8eed16cb6aabc6b5e5ed",
          "blockNumber": "0x13",
          "blockTimestamp": "0x69990ddb",
          "transactionHash": "0x96e0466ac3dd3446d09fe86bf31022118a4ad52ab42df13c7f17ab0dcffad4f0",
          "transactionIndex": "0x0",
          "logIndex": "0x0",
          "removed": false
        }
      ],
      "logsBloom": "0x00000000000000000000000000000000000000000000000000000000000000000000000000000000000000000000000010000000000000000000000000000000000000000000000000000008000000000000000000000000000000000000000000000000020000000000000100000800000000000000000000000010000000000000000000000000000000000000000000000000000000000000000000000000000000000000000000000000000000000000000000000000000000000000000000000002000000200000000000001000000000002000000000000000000020000000000000000000000000000000000000000000000000800000000000000000",
      "type": "0x2",
      "transactionHash": "0x96e0466ac3dd3446d09fe86bf31022118a4ad52ab42df13c7f17ab0dcffad4f0",
      "transactionIndex": "0x0",
      "blockHash": "0x23cebd94bac88549aa25a9f074fb40bb46d501853f5a8eed16cb6aabc6b5e5ed",
      "blockNumber": "0x13",
      "gasUsed": "0x11353",
      "effectiveGasPrice": "0x62cd700",
      "blobGasPrice": "0x1",
      "from": "0xf39fd6e51aad88f6f4ce6ab8827279cfffb92266",
      "to": "0xe7f1725e7734ce288f8367e1bb143e90bb3f0512",
      "contractAddress": null
    },
    {
      "status": "0x1",
      "cumulativeGasUsed": "0xb3c1",
      "logs": [
        {
          "address": "0xe7f1725e7734ce288f8367e1bb143e90bb3f0512",
          "topics": [
            "0x8c5be1e5ebec7d5bd14f71427d1e84f3dd0314c0f7b2291e5b200ac8c7c3b925",
            "0x000000000000000000000000f39fd6e51aad88f6f4ce6ab8827279cfffb92266",
            "0x0000000000000000000000003aa5ebb10dc797cac828524e59a333d0a371443c"
          ],
          "data": "0x00000000000000000000000000000000000000000000021e19e0c9bab2400000",
          "blockHash": "0x56761a78d30a9772725a56833c41a2cac1b449c973c980c306fb96dc6d489b1a",
          "blockNumber": "0x14",
          "blockTimestamp": "0x69990ddb",
          "transactionHash": "0xf57c0120094925fd2b3b20285d76788223d5ea12d6c0b7131048f3f9b636915e",
          "transactionIndex": "0x0",
          "logIndex": "0x0",
          "removed": false
        }
      ],
      "logsBloom": "0x00040000000000000000000000000000000000000000000000000000000000000000000000000000000000000000000010000000000000000000000000200000000000002000000100000000000000000000000000000000000000000000000000000000000000000000000100000000000000000000000000000000000000000000000000000000000000000000000000000000000000000000000000000000020000000000000000000000000000000000000000000000000000000000000000000000000000200000000000001000000000002000000000000000000000000010000000000000000000000000000000000000000000800000000000000000",
      "type": "0x2",
      "transactionHash": "0xf57c0120094925fd2b3b20285d76788223d5ea12d6c0b7131048f3f9b636915e",
      "transactionIndex": "0x0",
      "blockHash": "0x56761a78d30a9772725a56833c41a2cac1b449c973c980c306fb96dc6d489b1a",
      "blockNumber": "0x14",
      "gasUsed": "0xb3c1",
      "effectiveGasPrice": "0x56829d4",
      "blobGasPrice": "0x1",
      "from": "0xf39fd6e51aad88f6f4ce6ab8827279cfffb92266",
      "to": "0xe7f1725e7734ce288f8367e1bb143e90bb3f0512",
      "contractAddress": null
    },
    {
      "status": "0x1",
      "cumulativeGasUsed": "0xd1d6",
      "logs": [
        {
          "address": "0xe7f1725e7734ce288f8367e1bb143e90bb3f0512",
          "topics": [
            "0xddf252ad1be2c89b69c2b068fc378daa952ba7f163c4a11628f55a4df523b3ef",
            "0x000000000000000000000000f39fd6e51aad88f6f4ce6ab8827279cfffb92266",
            "0x0000000000000000000000003aa5ebb10dc797cac828524e59a333d0a371443c"
          ],
          "data": "0x00000000000000000000000000000000000000000000021e19e0c9bab2400000",
          "blockHash": "0x6dedf3fa78d50f84a162b15f6a3f6d77278dc6ecb05676898a17104b87934ceb",
          "blockNumber": "0x15",
          "blockTimestamp": "0x69990ddb",
          "transactionHash": "0x100a68f6d30b064a0a4ec34699481b6e57c729ea65a9dc9d6a80e89225015d91",
          "transactionIndex": "0x0",
          "logIndex": "0x0",
          "removed": false
        },
        {
          "address": "0x3aa5ebb10dc797cac828524e59a333d0a371443c",
          "topics": [
            "0xcea2aa568570e239e616fd2e9bcf2301307aa1c1c1f355305a87e5cdd46bbc79",
            "0x000000000000000000000000e7f1725e7734ce288f8367e1bb143e90bb3f0512"
          ],
          "data": "0x00000000000000000000000000000000000000000000021e19e0c9bab2400000",
          "blockHash": "0x6dedf3fa78d50f84a162b15f6a3f6d77278dc6ecb05676898a17104b87934ceb",
          "blockNumber": "0x15",
          "blockTimestamp": "0x69990ddb",
          "transactionHash": "0x100a68f6d30b064a0a4ec34699481b6e57c729ea65a9dc9d6a80e89225015d91",
          "transactionIndex": "0x0",
          "logIndex": "0x1",
          "removed": false
        }
      ],
      "logsBloom": "0x00040000000000000400000000000000000000000000000000000000000000000000000000000000000800000010000010000000000000000000000000000000000000002000000100000008000000000000000000000000000000000000000000000000000000000000000100000000000000000000000000000014000000000000000000000020000000000000000000000000000000000000020000000000000000000000000000000002000000000000000000000000000000000000000000000002004000200000000000001000000000002000000000000000000000000000000000000000000000004000000000000000000000800000000000000000",
      "type": "0x2",
      "transactionHash": "0x100a68f6d30b064a0a4ec34699481b6e57c729ea65a9dc9d6a80e89225015d91",
      "transactionIndex": "0x0",
      "blockHash": "0x6dedf3fa78d50f84a162b15f6a3f6d77278dc6ecb05676898a17104b87934ceb",
      "blockNumber": "0x15",
      "gasUsed": "0xd1d6",
      "effectiveGasPrice": "0x4bbac7c",
      "blobGasPrice": "0x1",
      "from": "0xf39fd6e51aad88f6f4ce6ab8827279cfffb92266",
      "to": "0x3aa5ebb10dc797cac828524e59a333d0a371443c",
      "contractAddress": null
    }
  ],
  "libraries": [],
  "pending": [],
  "returns": {},
  "timestamp": 1771638235118,
  "chain": 31337,
  "commit": "55a7a7bd"
}