{
  "transactions": [
    {
      "hash": "0x1210db8752e547636088d0d15f29caeeb8814b90474a2770552dbbbab6747ebd",
      "transactionType": "CALL",
      "contractName": null,
      "contractAddress": "0x8a791620dd6260079bf849dc5567adc3f2fdc318",
      "function": "setVault(address)",
      "arguments": [
        "0x0DCd1Bf9A1b36cE34237eEaFef220932846BCD82"
      ],
      "transaction": {
        "from": "0xf39fd6e51aad88f6f4ce6ab8827279cfffb92266",
        "to": "0x8a791620dd6260079bf849dc5567adc3f2fdc318",
        "gas": "0x1931b",
        "value": "0x0",
        "input": "0x6817031b0000000000000000000000000dcd1bf9a1b36ce34237eeafef220932846bcd82",
        "nonce": "0x17",
        "chainId": "0x7a69"
      },
      "additionalContracts": [],
      "isFixedGasLimit": false
    },
    {
      "hash": "0x899adba06c5c2f81520a92592f9315cef5da7f51da9f029880083ef3e88c08e0",
      "transactionType": "CALL",
      "contractName": null,
      "contractAddress": "0x0dcd1bf9a1b36ce34237eeafef220932846bcd82",
      "function": "setOrchestrator(address)",
      "arguments": [
        "0x8A791620dd6260079BF849Dc5567aDC3F2FdC318"
      ],
      "transaction": {
        "from": "0xf39fd6e51aad88f6f4ce6ab8827279cfffb92266",
        "to": "0x0dcd1bf9a1b36ce34237eeafef220932846bcd82",
        "gas": "0xfc27",
        "value": "0x0",
        "input": "0xcd28ef0d0000000000000000000000008a791620dd6260079bf849dc5567adc3f2fdc318",
        "nonce": "0x18",
        "chainId": "0x7a69"
      },
      "additionalContracts": [],
      "isFixedGasLimit": false
    },
    {
      "hash": "0x12ef914b78321372f2c7e9c0c0552a0954794d90106d7c477eb7ac5419ce0c24",
      "transactionType": "CALL",
      "contractName": null,
      "contractAddress": "0xdc64a140aa3e981100a9beca4e685f962f0cf6c9",
      "function": "registerIdentity(address,uint16)",
      "arguments": [
        "0x0DCd1Bf9A1b36cE34237eEaFef220932846BCD82",
        "784"
      ],
      "transaction": {
        "from": "0xf39fd6e51aad88f6f4ce6ab8827279cfffb92266",
        "to": "0xdc64a140aa3e981100a9beca4e685f962f0cf6c9",
        "gas": "0x10516",
        "value": "0x0",
        "input": "0xc5a80fa70000000000000000000000000dcd1bf9a1b36ce34237eeafef220932846bcd820000000000000000000000000000000000000000000000000000000000000310",
        "nonce": "0x19",
        "chainId": "0x7a69"
      },
      "additionalContracts": [],
      "isFixedGasLimit": false
    },
    {
      "hash": "0xf826eef6f2b1c10ed4315f83b15103674b42117d54a2a29f491c2b2ca0b0f9a0",
      "transactionType": "CALL",
      "contractName": null,
      "contractAddress": "0xdc64a140aa3e981100a9beca4e685f962f0cf6c9",
      "function": "setKycStatus(address,bool)",
      "arguments": [
        "0x0DCd1Bf9A1b36cE34237eEaFef220932846BCD82",
        "true"
      ],
      "transaction": {
        "from": "0xf39fd6e51aad88f6f4ce6ab8827279cfffb92266",
        "to": "0xdc64a140aa3e981100a9beca4e685f962f0cf6c9",
        "gas": "0xa7f0",
        "value": "0x0",
        "input": "0xe37a35c70000000000000000000000000dcd1bf9a1b36ce34237eeafef220932846bcd820000000000000000000000000000000000000000000000000000000000000001",
        "nonce": "0x1a",
        "chainId": "0x7a69"
      },
      "additionalContracts": [],
      "isFixedGasLimit": false
    },
    {
      "hash": "0xab5f428437c2224cb94a59fdf521fc940bce9c2b5b022f9bae4fc38e541612d8",
      "transactionType": "CALL",
      "contractName": null,
      "contractAddress": "0x5fbdb2315678afecb367f032d93f642f64180aa3",
      "function": "mint(address,uint256)",
      "arguments": [
        "0xf39Fd6e51aad88F6F4ce6aB8827279cffFb92266",
        "10000000000000000000000"
      ],
      "transaction": {
        "from": "0xf39fd6e51aad88f6f4ce6ab8827279cfffb92266",
        "to": "0x5fbdb2315678afecb367f032d93f642f64180aa3",
        "gas": "0x17b5d",
        "value": "0x0",
        "input": "0x40c10f19000000000000000000000000f39fd6e51aad88f6f4ce6ab8827279cfffb9226600000000000000000000000000000000000000000000021e19e0c9bab2400000",
        "nonce": "0x1b",
        "chainId": "0x7a69"
      },
      "additionalContracts": [],
      "isFixedGasLimit": false
    },
    {
      "hash": "0xe81ca5ab6492268bcd4e1b2f4c1d73d96787ffb30fe4942e993bcf22bfd45719",
      "transactionType": "CALL",
      "contractName": null,
      "contractAddress": "0x5fbdb2315678afecb367f032d93f642f64180aa3",
      "function": "approve(address,uint256)",
      "arguments": [
        "0x3Aa5ebB10DC797CAC828524e59A333d0A371443c",
        "10000000000000000000000"
      ],
      "transaction": {
        "from": "0xf39fd6e51aad88f6f4ce6ab8827279cfffb92266",
        "to": "0x5fbdb2315678afecb367f032d93f642f64180aa3",
        "gas": "0xf831",
        "value": "0x0",
        "input": "0x095ea7b30000000000000000000000003aa5ebb10dc797cac828524e59a333d0a371443c00000000000000000000000000000000000000000000021e19e0c9bab2400000",
        "nonce": "0x1c",
        "chainId": "0x7a69"
      },
      "additionalContracts": [],
      "isFixedGasLimit": false
    },
    {
      "hash": "0x3a936d53402ce20bf61b3969ce5e86ad5797edc44b0621e5155a03b0dede6cf5",
      "transactionType": "CALL",
      "contractName": null,
      "contractAddress": "0x3aa5ebb10dc797cac828524e59a333d0a371443c",
      "function": "depositReserves(address,uint256)",
      "arguments": [
        "0x5FbDB2315678afecb367f032d93F642f64180aa3",
        "10000000000000000000000"
      ],
      "transaction": {
        "from": "0xf39fd6e51aad88f6f4ce6ab8827279cfffb92266",
        "to": "0x3aa5ebb10dc797cac828524e59a333d0a371443c",
        "gas": "0x121b7",
        "value": "0x0",
        "input": "0x5966e7330000000000000000000000005fbdb2315678afecb367f032d93f642f64180aa300000000000000000000000000000000000000000000021e19e0c9bab2400000",
        "nonce": "0x1d",
        "chainId": "0x7a69"
      },
      "additionalContracts": [],
      "isFixedGasLimit": false
    },
    {
      "hash": "0x50ab190f79f3788712787127267650c7e0e68c0f25bd0b978e30689f2162a70b",
      "transactionType": "CALL",
      "contractName": null,
      "contractAddress": "0xe7f1725e7734ce288f8367e1bb143e90bb3f0512",
      "function": "mint(address,uint256)",
      "arguments": [
        "0xf39Fd6e51aad88F6F4ce6aB8827279cffFb92266",
        "10000000000000000000000"
      ],
      "transaction": {
        "from": "0xf39fd6e51aad88f6f4ce6ab8827279cfffb92266",
        "to": "0xe7f1725e7734ce288f8367e1bb143e90bb3f0512",
        "gas": "0x192a8",
        "value": "0x0",
        "input": "0x40c10f19000000000000000000000000f39fd6e51aad88f6f4ce6ab8827279cfffb9226600000000000000000000000000000000000000000000021e19e0c9bab2400000",
        "nonce": "0x1e",
        "chainId": "0x7a69"
      },
      "additionalContracts": [],
      "isFixedGasLimit": false
    },
    {
      "hash": "0xe2c97915d1b14f497379cafaa5ec1e62461a1ff6e804cee5963d2844fe8568a9",
      "transactionType": "CALL",
      "contractName": null,
      "contractAddress": "0xe7f1725e7734ce288f8367e1bb143e90bb3f0512",
      "function": "approve(address,uint256)",
      "arguments": [
        "0x3Aa5ebB10DC797CAC828524e59A333d0A371443c",
        "10000000000000000000000"
      ],
      "transaction": {
        "from": "0xf39fd6e51aad88f6f4ce6ab8827279cfffb92266",
        "to": "0xe7f1725e7734ce288f8367e1bb143e90bb3f0512",
        "gas": "0x106e3",
        "value": "0x0",
        "input": "0x095ea7b30000000000000000000000003aa5ebb10dc797cac828524e59a333d0a371443c00000000000000000000000000000000000000000000021e19e0c9bab2400000",
        "nonce": "0x1f",
        "chainId": "0x7a69"
      },
      "additionalContracts": [],
      "isFixedGasLimit": false
    },
    {
      "hash": "0x02c332fa982c01d507dfa74fcccaf4440620293e30515a27f3fc8dbbec5b015a",
      "transactionType": "CALL",
      "contractName": null,
      "contractAddress": "0x3aa5ebb10dc797cac828524e59a333d0a371443c",
      "function": "depositReserves(address,uint256)",
      "arguments": [
        "0xe7f1725E7734CE288F8367e1Bb143E90bb3F0512",
        "10000000000000000000000"
      ],
      "transaction": {
        "from": "0xf39fd6e51aad88f6f4ce6ab8827279cfffb92266",
        "to": "0x3aa5ebb10dc797cac828524e59a333d0a371443c",
        "gas": "0x121d5",
        "value": "0x0",
        "input": "0x5966e733000000000000000000000000e7f1725e7734ce288f8367e1bb143e90bb3f051200000000000000000000000000000000000000000000021e19e0c9bab2400000",
        "nonce": "0x20",
        "chainId": "0x7a69"
      },
      "additionalContracts": [],
      "isFixedGasLimit": false
    }
  ],
  "receipts": [
    {
      "status": "0x1",
      "cumulativeGasUsed": "0x113a1",
      "logs": [
        {
          "address": "0x8a791620dd6260079bf849dc5567adc3f2fdc318",
          "topics": [
            "0x2f8788117e7eff1d82e926ec794901d17c78024a50270940304540a733656f0d",
            "0x31e0210044b4f6757ce6aa31f9c6e8d4896d24a755014887391a926c5224d959",
            "0x0000000000000000000000000dcd1bf9a1b36ce34237eeafef220932846bcd82",
            "0x000000000000000000000000f39fd6e51aad88f6f4ce6ab8827279cfffb92266"
          ],
          "data": "0x",
          "blockHash": "0xb88d9c7617da436d3c30fcf48f399a30152ee01a4ca5ebe68e18cb7353145c83",
          "blockNumber": "0x11",
          "blockTimestamp": "0x699948df",
          "transactionHash": "0x1210db8752e547636088d0d15f29caeeb8814b90474a2770552dbbbab6747ebd",
          "transactionIndex": "0x0",
          "logIndex": "0x0",
          "removed": false
        }
      ],
      "logsBloom": "0x00000004000000000000000000000000000000000000000000000000000000000000000000000000000000000000000000000000000000000000000000000000000000000000000000000000000000000000000000000010000000000000000000000000000000000000000100000008000080000000000000000000000000000000000000000000000000000000000000000000000000000000000000000000002000000000000000000000008000000000000000000000001000000000000000000000000000200000000000020000040000002000000100000000000000000000000000080000000000000000000000000000080000000000000000000000",
      "type": "0x2",
      "transactionHash": "0x1210db8752e547636088d0d15f29caeeb8814b90474a2770552dbbbab6747ebd",
      "transactionIndex": "0x0",
      "blockHash": "0xb88d9c7617da436d3c30fcf48f399a30152ee01a4ca5ebe68e18cb7353145c83",
      "blockNumber": "0x11",
      "gasUsed": "0x113a1",
      "effectiveGasPrice": "0x809aa12",
      "blobGasPrice": "0x1",
      "from": "0xf39fd6e51aad88f6f4ce6ab8827279cfffb92266",
      "to": "0x8a791620dd6260079bf849dc5567adc3f2fdc318",
      "contractAddress": null
    },
    {
      "status": "0x1",
      "cumulativeGasUsed": "0xb68f",
      "logs": [],
      "logsBloom": "0x00000000000000000000000000000000000000000000000000000000000000000000000000000000000000000000000000000000000000000000000000000000000000000000000000000000000000000000000000000000000000000000000000000000000000000000000000000000000000000000000000000000000000000000000000000000000000000000000000000000000000000000000000000000000000000000000000000000000000000000000000000000000000000000000000000000000000000000000000000000000000000000000000000000000000000000000000000000000000000000000000000000000000000000000000000000",
      "type": "0x2",
      "transactionHash": "0x899adba06c5c2f81520a92592f9315cef5da7f51da9f029880083ef3e88c08e0",
      "transactionIndex": "0x0",
      "blockHash": "0xf1015cb65b3aef43c9b8bd51c37912c4a5283c34163378692dcb946065809216",
      "blockNumber": "0x12",
      "gasUsed": "0xb68f",
      "effectiveGasPrice": "0x709aa8e",
      "blobGasPrice": "0x1",
      "from": "0xf39fd6e51aad88f6f4ce6ab8827279cfffb92266",
      "to": "0x0dcd1bf9a1b36ce34237eeafef220932846bcd82",
      "contractAddress": null
    },
    {
      "status": "0x1",
      "cumulativeGasUsed": "0x17395",
      "logs": [
        {
          "address": "0xdc64a140aa3e981100a9beca4e685f962f0cf6c9",
          "topics": [
            "0x04b5780035dfc2873ad5e358af8f2b2554e53a40a87a9c1c63bdca629eb4b427",
            "0x0000000000000000000000000dcd1bf9a1b36ce34237eeafef220932846bcd82"
          ],
          "data": "0x0000000000000000000000000000000000000000000000000000000000000310",
          "blockHash": "0xf1015cb65b3aef43c9b8bd51c37912c4a5283c34163378692dcb946065809216",
          "blockNumber": "0x12",
          "blockTimestamp": "0x699948df",
          "transactionHash": "0x12ef914b78321372f2c7e9c0c0552a0954794d90106d7c477eb7ac5419ce0c24",
          "transactionIndex": "0x1",
          "logIndex": "0x0",
          "removed": false
        }
      ],
      "logsBloom": "0x00000000000000000000000000000000000000000000000000000000000000000010000000000000000000000000000000000000000000000000000000000000000000000000000000000000000000000000000000000010000000000000000000000000000000000000000000000008000000000000000000000000000000000000000000000000000000000000000000000000000000000000000100000000000000000000000000000000000000000000000000000000000000000000000000000000000000000000000000000000000000000020800000000000000000000000000000000000000000000000000000000001080000000100000000000000",
      "type": "0x2",
      "transactionHash": "0x12ef914b78321372f2c7e9c0c0552a0954794d90106d7c477eb7ac5419ce0c24",
      "transactionIndex": "0x1",
      "blockHash": "0xf1015cb65b3aef43c9b8bd51c37912c4a5283c34163378692dcb946065809216",
      "blockNumber": "0x12",
      "gasUsed": "0xbd06",
      "effectiveGasPrice": "0x709aa8e",
      "blobGasPrice": "0x1",
      "from": "0xf39fd6e51aad88f6f4ce6ab8827279cfffb92266",
      "to": "0xdc64a140aa3e981100a9beca4e685f962f0cf6c9",
      "contractAddress": null
    },
    {
      "status": "0x1",
      "cumulativeGasUsed": "0x7996",
      "logs": [
        {
          "address": "0xdc64a140aa3e981100a9beca4e685f962f0cf6c9",
          "topics": [
            "0x2df1cad2a2659e001c3804c872f69655356013e35c18c2e77a5d568078ab788f",
            "0x0000000000000000000000000dcd1bf9a1b36ce34237eeafef220932846bcd82"
          ],
          "data": "0x0000000000000000000000000000000000000000000000000000000000000001",
          "blockHash": "0x5c49065c13585f4168da651d6d9eafbc64673f960492e2f486b73710eb12900d",
          "blockNumber": "0x13",
          "blockTimestamp": "0x699948df",
          "transactionHash": "0xf826eef6f2b1c10ed4315f83b15103674b42117d54a2a29f491c2b2ca0b0f9a0",
          "transactionIndex": "0x0",
          "logIndex": "0x0",
          "removed": false
        }
      ],
      "logsBloom": "0x00000000000000000000000000000000000000000000000000000000000000000000010000000000000000000000000000000000000000000000000000000000000000000000000000000000000000000000000000000010200000000000000000000000000000000000000000000008000000000000000000000000000200000000000000000000000000000000000000000000000000000000000000000000000000000000000000000000000000000000000000000000000000000000000000000000000000000000000000000000000000000020000000000000000000000000000000000000000000000000000000000001080000000100000000000000",
      "type": "0x2",
      "transactionHash": "0xf826eef6f2b1c10ed4315f83b15103674b42117d54a2a29f491c2b2ca0b0f9a0",
      "transactionIndex": "0x0",
      "blockHash": "0x5c49065c13585f4168da651d6d9eafbc64673f960492e2f486b73710eb12900d",
      "blockNumber": "0x13",
      "gasUsed": "0x7996",
      "effectiveGasPrice": "0x629e2db",
      "blobGasPrice": "0x1",
      "from": "0xf39fd6e51aad88f6f4ce6ab8827279cfffb92266",
      "to": "0xdc64a140aa3e981100a9beca4e685f962f0cf6c9",
      "contractAddress": null
    },
    {
      "status": "0x1",
      "cumulativeGasUsed": "0x18c3e",
      "logs": [
        {
          "address": "0x5fbdb2315678afecb367f032d93f642f64180aa3",
          "topics": [
            "0xddf252ad1be2c89b69c2b068fc378daa952ba7f163c4a11628f55a4df523b3ef",
            "0x0000000000000000000000000000000000000000000000000000000000000000",
            "0x000000000000000000000000f39fd6e51aad88f6f4ce6ab8827279cfffb92266"
          ],
          "data": "0x00000000000000000000000000000000000000000000021e19e0c9bab2400000",
          "blockHash": "0x5c49065c13585f4168da651d6d9eafbc64673f960492e2f486b73710eb12900d",
          "blockNumber": "0x13",
          "blockTimestamp": "0x699948df",
          "transactionHash": "0xab5f428437c2224cb94a59fdf521fc940bce9c2b5b022f9bae4fc38e541612d8",
          "transactionIndex": "0x1",
          "logIndex": "0x1",
          "removed": false
        }
      ],
      "logsBloom": "0x00000000000000000000000000000000000000000000000000000000000000000000000000000000000000000000000000000000000000000000000000000000000000000000000000000008000000000000000000000000000000000000000000000040020000000000000100000800000000000000000000000010000000000000000000000000000000000000000000000000000000000000000200000000000000000000000000000000000000000000000000000000000000000000000000000042000000200000000000000000000000002000000000000000000020000000000000000000000000000000000000000000000000000000000000000000",
      "type": "0x2",
      "transactionHash": "0xab5f428437c2224cb94a59fdf521fc940bce9c2b5b022f9bae4fc38e541612d8",
      "transactionIndex": "0x1",
      "blockHash": "0x5c49065c13585f4168da651d6d9eafbc64673f960492e2f486b73710eb12900d",
      "blockNumber": "0x13",
      "gasUsed": "0x112a8",
      "effectiveGasPrice": "0x629e2db",
      "blobGasPrice": "0x1",
      "from": "0xf39fd6e51aad88f6f4ce6ab8827279cfffb92266",
      "to": "0x5fbdb2315678afecb367f032d93f642f64180aa3",
      "contractAddress": null
    },
    {
      "status": "0x1",
      "cumulativeGasUsed": "0x23fee",
      "logs": [
        {
          "address": "0x5fbdb2315678afecb367f032d93f642f64180aa3",
          "topics": [
            "0x8c5be1e5ebec7d5bd14f71427d1e84f3dd0314c0f7b2291e5b200ac8c7c3b925",
            "0x000000000000000000000000f39fd6e51aad88f6f4ce6ab8827279cfffb92266",
            "0x0000000000000000000000003aa5ebb10dc797cac828524e59a333d0a371443c"
          ],
          "data": "0x00000000000000000000000000000000000000000000021e19e0c9bab2400000",
          "blockHash": "0x5c49065c13585f4168da651d6d9eafbc64673f960492e2f486b73710eb12900d",
          "blockNumber": "0x13",
          "blockTimestamp": "0x699948df",
          "transactionHash": "0xe81ca5ab6492268bcd4e1b2f4c1d73d96787ffb30fe4942e993bcf22bfd45719",
          "transactionIndex": "0x2",
          "logIndex": "0x2",
          "removed": false
        }
      ],
      "logsBloom": "0x00040000000000000000000000000000000000000000000000000000000000000000000000000000000000000000000000000000000000000000000000200000000000002000000100000000000000000000000000000000000000000000000000000040000000000000000100000000000000000000000000000000000000000000000000000000000000000000000000000000000000000000000200000000020000000000000000000000000000000000000000000000000000000000000000000040000000200000000000000000000000002000000000000000000000000010000000000000000000000000000000000000000000000000000000000000",
      "type": "0x2",
      "transactionHash": "0xe81ca5ab6492268bcd4e1b2f4c1d73d96787ffb30fe4942e993bcf22bfd45719",
      "transactionIndex": "0x2",
      "blockHash": "0x5c49065c13585f4168da651d6d9eafbc64673f960492e2f486b73710eb12900d",
      "blockNumber": "0x13",
      "gasUsed": "0xb3b0",
      "effectiveGasPrice": "0x629e2db",
      "blobGasPrice": "0x1",
      "from": "0xf39fd6e51aad88f6f4ce6ab8827279cfffb92266",
      "to": "0x5fbdb2315678afecb367f032d93f642f64180aa3",
      "contractAddress": null
    },
    {
      "status": "0x1",
      "cumulativeGasUsed": "0xd1c0",
      "logs": [
        {
          "address": "0x5fbdb2315678afecb367f032d93f642f64180aa3",
          "topics": [
            "0xddf252ad1be2c89b69c2b068fc378daa952ba7f163c4a11628f55a4df523b3ef",
            "0x000000000000000000000000f39fd6e51aad88f6f4ce6ab8827279cfffb92266",
            "0x0000000000000000000000003aa5ebb10dc797cac828524e59a333d0a371443c"
          ],
          "data": "0x00000000000000000000000000000000000000000000021e19e0c9bab2400000",
          "blockHash": "0xe8e8bf7e25d2b56edec2b333a463e605a5843fb5e0a3784acb1c999d45e93e01",
          "blockNumber": "0x14",
          "blockTimestamp": "0x699948df",
          "transactionHash": "0x3a936d53402ce20bf61b3969ce5e86ad5797edc44b0621e5155a03b0dede6cf5",
          "transactionIndex": "0x0",
          "logIndex": "0x0",
          "removed": false
        },
        {
          "address": "0x3aa5ebb10dc797cac828524e59a333d0a371443c",
          "topics": [
            "0xcea2aa568570e239e616fd2e9bcf2301307aa1c1c1f355305a87e5cdd46bbc79",
            "0x0000000000000000000000005fbdb2315678afecb367f032d93f642f64180aa3"
          ],
          "data": "0x00000000000000000000000000000000000000000000021e19e0c9bab2400000",
          "blockHash": "0xe8e8bf7e25d2b56edec2b333a463e605a5843fb5e0a3784acb1c999d45e93e01",
          "blockNumber": "0x14",
          "blockTimestamp": "0x699948df",
          "transactionHash": "0x3a936d53402ce20bf61b3969ce5e86ad5797edc44b0621e5155a03b0dede6cf5",
          "transactionIndex": "0x0",
          "logIndex": "0x1",
          "removed": false
        }
      ],
      "logsBloom": "0x00040000000000000000000000000000000000000000000000000000000000000000000000000000000800000010000000000000000000000000000000000000000000002000000100000008000000000000000000000000000000000000000000000040000000000000000100800000000004000000000000000010000000000000000000000020000000000000000000000000000000000000020200000000000000000000000000000000000000000000000000000000000000000000000000000042004000200000000000000000000000002008000000000000000000000000000000000000000000004000000000000000000000000000000000000000",
      "type": "0x2",
      "transactionHash": "0x3a936d53402ce20bf61b3969ce5e86ad5797edc44b0621e5155a03b0dede6cf5",
      "transactionIndex": "0x0",
      "blockHash": "0xe8e8bf7e25d2b56edec2b333a463e605a5843fb5e0a3784acb1c999d45e93e01",
      "blockNumber": "0x14",
      "gasUsed": "0xd1c0",
      "effectiveGasPrice": "0x56696cd",
      "blobGasPrice": "0x1",
      "from": "0xf39fd6e51aad88f6f4ce6ab8827279cfffb92266",
      "to": "0x3aa5ebb10dc797cac828524e59a333d0a371443c",
      "contractAddress": null
    },
    {
      "status": "0x1",
      "cumulativeGasUsed": "0x1e513",
      "logs": [
        {
          "address": "0xe7f1725e7734ce288f8367e1bb143e90bb3f0512",
          "topics": [
            "0xddf252ad1be2c89b69c2b068fc378daa952ba7f163c4a11628f55a4df523b3ef",
            "0x0000000000000000000000000000000000000000000000000000000000000000",
            "0x000000000000000000000000f39fd6e51aad88f6f4ce6ab8827279cfffb92266"
          ],
          "data": "0x00000000000000000000000000000000000000000000021e19e0c9bab2400000",
          "blockHash": "0xe8e8bf7e25d2b56edec2b333a463e605a5843fb5e0a3784acb1c999d45e93e01",
          "blockNumber": "0x14",
          "blockTimestamp": "0x699948df",
          "transactionHash": "0x50ab190f79f3788712787127267650c7e0e68c0f25bd0b978e30689f2162a70b",
          "transactionIndex": "0x1",
          "logIndex": "0x2",
          "removed": false
        }
      ],
      "logsBloom": "0x00000000000000000000000000000000000000000000000000000000000000000000000000000000000000000000000010000000000000000000000000000000000000000000000000000008000000000000000000000000000000000000000000000000020000000000000100000800000000000000000000000010000000000000000000000000000000000000000000000000000000000000000000000000000000000000000000000000000000000000000000000000000000000000000000000002000000200000000000001000000000002000000000000000000020000000000000000000000000000000000000000000000000800000000000000000",
      "type": "0x2",
      "transactionHash": "0x50ab190f79f3788712787127267650c7e0e68c0f25bd0b978e30689f2162a70b",
      "transactionIndex": "0x1",
      "blockHash": "0xe8e8bf7e25d2b56edec2b333a463e605a5843fb5e0a3784acb1c999d45e93e01",
      "blockNumber": "0x14",
      "gasUsed": "0x11353",
      "effectiveGasPrice": "0x56696cd",
      "blobGasPrice": "0x1",
      "from": "0xf39fd6e51aad88f6f4ce6ab8827279cfffb92266",
      "to": "0xe7f1725e7734ce288f8367e1bb143e90bb3f0512",
      "contractAddress": null
    },
    {
      "status": "0x1",
      "cumulativeGasUsed": "0xb3c1",
      "logs": [
        {
          "address": "0xe7f1725e7734ce288f8367e1bb143e90bb3f0512",
          "topics": [
            "0x8c5be1e5ebec7d5bd14f71427d1e84f3dd0314c0f7b2291e5b200ac8c7c3b925",
            "0x000000000000000000000000f39fd6e51aad88f6f4ce6ab8827279cfffb92266",
            "0x0000000000000000000000003aa5ebb10dc797cac828524e59a333d0a371443c"
          ],
          "data": "0x00000000000000000000000000000000000000000000021e19e0c9bab2400000",
          "blockHash": "0x249b2c6c5e4a84b97a5243ed0ac9afafca41058eb2c9c6ae0ceefea717c17080",
          "blockNumber": "0x15",
          "blockTimestamp": "0x699948df",
          "transactionHash": "0xe2c97915d1b14f497379cafaa5ec1e62461a1ff6e804cee5963d2844fe8568a9",
          "transactionIndex": "0x0",
          "logIndex": "0x0",
          "removed": false
        }
      ],
      "logsBloom": "0x00040000000000000000000000000000000000000000000000000000000000000000000000000000000000000000000010000000000000000000000000200000000000002000000100000000000000000000000000000000000000000000000000000000000000000000000100000000000000000000000000000000000000000000000000000000000000000000000000000000000000000000000000000000020000000000000000000000000000000000000000000000000000000000000000000000000000200000000000001000000000002000000000000000000000000010000000000000000000000000000000000000000000800000000000000000",
      "type": "0x2",
      "transactionHash": "0xe2c97915d1b14f497379cafaa5ec1e62461a1ff6e804cee5963d2844fe8568a9",
      "transactionIndex": "0x0",
      "blockHash": "0x249b2c6c5e4a84b97a5243ed0ac9afafca41058eb2c9c6ae0ceefea717c17080",
      "blockNumber": "0x15",
      "gasUsed": "0xb3c1",
      "effectiveGasPrice": "0x4bb3239",
      "blobGasPrice": "0x1",
      "from": "0xf39fd6e51aad88f6f4ce6ab8827279cfffb92266",
      "to": "0xe7f1725e7734ce288f8367e1bb143e90bb3f0512",
      "contractAddress": null
    },
    {
      "status": "0x1",
      "cumulativeGasUsed": "0xd1d6",
      "logs": [
        {
          "address": "0xe7f1725e7734ce288f8367e1bb143e90bb3f0512",
          "topics": [
            "0xddf252ad1be2c89b69c2b068fc378daa952ba7f163c4a11628f55a4df523b3ef",
            "0x000000000000000000000000f39fd6e51aad88f6f4ce6ab8827279cfffb92266",
            "0x0000000000000000000000003aa5ebb10dc797cac828524e59a333d0a371443c"
          ],
          "data": "0x00000000000000000000000000000000000000000000021e19e0c9bab2400000",
          "blockHash": "0x9efb2cd791018486a8da3a00c46ce15223c70cb1440b93b2d2a38f513ac80261",
          "blockNumber": "0x16",
          "blockTimestamp": "0x699948df",
          "transactionHash": "0x02c332fa982c01d507dfa74fcccaf4440620293e30515a27f3fc8dbbec5b015a",
          "transactionIndex": "0x0",
          "logIndex": "0x0",
          "removed": false
        },
        {
          "address": "0x3aa5ebb10dc797cac828524e59a333d0a371443c",
          "topics": [
            "0xcea2aa568570e239e616fd2e9bcf2301307aa1c1c1f355305a87e5cdd46bbc79",
            "0x000000000000000000000000e7f1725e7734ce288f8367e1bb143e90bb3f0512"
          ],
          "data": "0x00000000000000000000000000000000000000000000021e19e0c9bab2400000",
          "blockHash": "0x9efb2cd791018486a8da3a00c46ce15223c70cb1440b93b2d2a38f513ac80261",
          "blockNumber": "0x16",
          "blockTimestamp": "0x699948df",
          "transactionHash": "0x02c332fa982c01d507dfa74fcccaf4440620293e30515a27f3fc8dbbec5b015a",
          "transactionIndex": "0x0",
          "logIndex": "0x1",
          "removed": false
        }
      ],
      "logsBloom": "0x00040000000000000400000000000000000000000000000000000000000000000000000000000000000800000010000010000000000000000000000000000000000000002000000100000008000000000000000000000000000000000000000000000000000000000000000100000000000000000000000000000014000000000000000000000020000000000000000000000000000000000000020000000000000000000000000000000002000000000000000000000000000000000000000000000002004000200000000000001000000000002000000000000000000000000000000000000000000000004000000000000000000000800000000000000000",
      "type": "0x2",
      "transactionHash": "0x02c332fa982c01d507dfa74fcccaf4440620293e30515a27f3fc8dbbec5b015a",
      "transactionIndex": "0x0",
      "blockHash": "0x9efb2cd791018486a8da3a00c46ce15223c70cb1440b93b2d2a38f513ac80261",
      "blockNumber": "0x16",
      "gasUsed": "0xd1d6",
      "effectiveGasPrice": "0x42442da",
      "blobGasPrice": "0x1",
      "from": "0xf39fd6e51aad88f6f4ce6ab8827279cfffb92266",
      "to": "0x3aa5ebb10dc797cac828524e59a333d0a371443c",
      "contractAddress": null
    }
  ],
  "libraries": [],
  "pending": [],
  "returns": {},
  "timestamp": 1771653343736,
  "chain": 31337,
  "commit": "55a7a7bd"
}