{
  "transactions": [
    {
      "hash": "0x27b11d6cd885f06a0406edeecc4b267baca264076abc2ce9c92450029a4d9835",
      "transactionType": "CALL",
      "contractName": null,
      "contractAddress": "0x8a791620dd6260079bf849dc5567adc3f2fdc318",
      "function": "setVault(address)",
      "arguments": [
        "0x0DCd1Bf9A1b36cE34237eEaFef220932846BCD82"
      ],
      "transaction": {
        "from": "0xf39fd6e51aad88f6f4ce6ab8827279cfffb92266",
        "to": "0x8a791620dd6260079bf849dc5567adc3f2fdc318",
        "gas": "0x1931b",
        "value": "0x0",
        "input": "0x6817031b0000000000000000000000000dcd1bf9a1b36ce34237eeafef220932846bcd82",
        "nonce": "0x17",
        "chainId": "0x7a69"
      },
      "additionalContracts": [],
      "isFixedGasLimit": false
    },
    {
      "hash": "0x6795684ef380022886ec816b2a23bfae27db400d23a582fdef2327597f7d31df",
      "transactionType": "CALL",
      "contractName": null,
      "contractAddress": "0x0dcd1bf9a1b36ce34237eeafef220932846bcd82",
      "function": "setOrchestrator(address)",
      "arguments": [
        "0x8A791620dd6260079BF849Dc5567aDC3F2FdC318"
      ],
      "transaction": {
        "from": "0xf39fd6e51aad88f6f4ce6ab8827279cfffb92266",
        "to": "0x0dcd1bf9a1b36ce34237eeafef220932846bcd82",
        "gas": "0xfc27",
        "value": "0x0",
        "input": "0xcd28ef0d0000000000000000000000008a791620dd6260079bf849dc5567adc3f2fdc318",
        "nonce": "0x18",
        "chainId": "0x7a69"
      },
      "additionalContracts": [],
      "isFixedGasLimit": false
    },
    {
      "hash": "0x9263ae31a860b9bf2c8dd2d8b6a4b5418008e5f911bf335535f91d5a602751e3",
      "transactionType": "CALL",
      "contractName": null,
      "contractAddress": "0xdc64a140aa3e981100a9beca4e685f962f0cf6c9",
      "function": "registerIdentity(address,uint16)",
      "arguments": [
        "0x0DCd1Bf9A1b36cE34237eEaFef220932846BCD82",
        "784"
      ],
      "transaction": {
        "from": "0xf39fd6e51aad88f6f4ce6ab8827279cfffb92266",
        "to": "0xdc64a140aa3e981100a9beca4e685f962f0cf6c9",
        "gas": "0x10516",
        "value": "0x0",
        "input": "0xc5a80fa70000000000000000000000000dcd1bf9a1b36ce34237eeafef220932846bcd820000000000000000000000000000000000000000000000000000000000000310",
        "nonce": "0x19",
        "chainId": "0x7a69"
      },
      "additionalContracts": [],
      "isFixedGasLimit": false
    },
    {
      "hash": "0xe30fbb8a436268b35eedc61bec57b8dbbe872658b4ec8254be7d7d4189313f0c",
      "transactionType": "CALL",
      "contractName": null,
      "contractAddress": "0xdc64a140aa3e981100a9beca4e685f962f0cf6c9",
      "function": "setKycStatus(address,bool)",
      "arguments": [
        "0x0DCd1Bf9A1b36cE34237eEaFef220932846BCD82",
        "true"
      ],
      "transaction": {
        "from": "0xf39fd6e51aad88f6f4ce6ab8827279cfffb92266",
        "to": "0xdc64a140aa3e981100a9beca4e685f962f0cf6c9",
        "gas": "0xa7f0",
        "value": "0x0",
        "input": "0xe37a35c70000000000000000000000000dcd1bf9a1b36ce34237eeafef220932846bcd820000000000000000000000000000000000000000000000000000000000000001",
        "nonce": "0x1a",
        "chainId": "0x7a69"
      },
      "additionalContracts": [],
      "isFixedGasLimit": false
    },
    {
      "hash": "0xcafd91e6ab0696d7b108df7f24a0ae67ea9ce6202734b601ed1e3a9214beceb1",
      "transactionType": "CALL",
      "contractName": null,
      "contractAddress": "0x5fbdb2315678afecb367f032d93f642f64180aa3",
      "function": "mint(address,uint256)",
      "arguments": [
        "0xf39Fd6e51aad88F6F4ce6aB8827279cffFb92266",
        "10000000000000000000000"
      ],
      "transaction": {
        "from": "0xf39fd6e51aad88f6f4ce6ab8827279cfffb92266",
        "to": "0x5fbdb2315678afecb367f032d93f642f64180aa3",
        "gas": "0x17b5d",
        "value": "0x0",
        "input": "0x40c10f19000000000000000000000000f39fd6e51aad88f6f4ce6ab8827279cfffb9226600000000000000000000000000000000000000000000021e19e0c9bab2400000",
        "nonce": "0x1b",
        "chainId": "0x7a69"
      },
      "additionalContracts": [],
      "isFixedGasLimit": false
    },
    {
      "hash": "0x77c18a44bcf43a22738b41a30a45732b7ed6ee1cc13ce650ee35eed3824af0d5",
      "transactionType": "CALL",
      "contractName": null,
      "contractAddress": "0x5fbdb2315678afecb367f032d93f642f64180aa3",
      "function": "approve(address,uint256)",
      "arguments": [
        "0x3Aa5ebB10DC797CAC828524e59A333d0A371443c",
        "10000000000000000000000"
      ],
      "transaction": {
        "from": "0xf39fd6e51aad88f6f4ce6ab8827279cfffb92266",
        "to": "0x5fbdb2315678afecb367f032d93f642f64180aa3",
        "gas": "0xf831",
        "value": "0x0",
        "input": "0x095ea7b30000000000000000000000003aa5ebb10dc797cac828524e59a333d0a371443c00000000000000000000000000000000000000000000021e19e0c9bab2400000",
        "nonce": "0x1c",
        "chainId": "0x7a69"
      },
      "additionalContracts": [],
      "isFixedGasLimit": false
    },
    {
      "hash": "0x1a6a0921417ca1ba93ff66bee670105766eed94aa75e29d49d8b8714aed7de2e",
      "transactionType": "CALL",
      "contractName": null,
      "contractAddress": "0x3aa5ebb10dc797cac828524e59a333d0a371443c",
      "function": "depositReserves(address,uint256)",
      "arguments": [
        "0x5FbDB2315678afecb367f032d93F642f64180aa3",
        "10000000000000000000000"
      ],
      "transaction": {
        "from": "0xf39fd6e51aad88f6f4ce6ab8827279cfffb92266",
        "to": "0x3aa5ebb10dc797cac828524e59a333d0a371443c",
        "gas": "0x121b7",
        "value": "0x0",
        "input": "0x5966e7330000000000000000000000005fbdb2315678afecb367f032d93f642f64180aa300000000000000000000000000000000000000000000021e19e0c9bab2400000",
        "nonce": "0x1d",
        "chainId": "0x7a69"
      },
      "additionalContracts": [],
      "isFixedGasLimit": false
    },
    {
      "hash": "0xbe878369ccc58a7cf1d06501848d8b4d9d522430ecc9f233d3164bcff854c9a4",
      "transactionType": "CALL",
      "contractName": null,
      "contractAddress": "0xe7f1725e7734ce288f8367e1bb143e90bb3f0512",
      "function": "mint(address,uint256)",
      "arguments": [
        "0xf39Fd6e51aad88F6F4ce6aB8827279cffFb92266",
        "10000000000000000000000"
      ],
      "transaction": {
        "from": "0xf39fd6e51aad88f6f4ce6ab8827279cfffb92266",
        "to": "0xe7f1725e7734ce288f8367e1bb143e90bb3f0512",
        "gas": "0x192a8",
        "value": "0x0",
        "input": "0x40c10f19000000000000000000000000f39fd6e51aad88f6f4ce6ab8827279cfffb9226600000000000000000000000000000000000000000000021e19e0c9bab2400000",
        "nonce": "0x1e",
        "chainId": "0x7a69"
      },
      "additionalContracts": [],
      "isFixedGasLimit": false
    },
    {
      "hash": "0xd472c2ac86b8f65022e25267a4c7cf874acc7cfbc255f5db8030f07728f3698c",
      "transactionType": "CALL",
      "contractName": null,
      "contractAddress": "0xe7f1725e7734ce288f8367e1bb143e90bb3f0512",
      "function": "approve(address,uint256)",
      "arguments": [
        "0x3Aa5ebB10DC797CAC828524e59A333d0A371443c",
        "10000000000000000000000"
      ],
      "transaction": {
        "from": "0xf39fd6e51aad88f6f4ce6ab8827279cfffb92266",
        "to": "0xe7f1725e7734ce288f8367e1bb143e90bb3f0512",
        "gas": "0x106e3",
        "value": "0x0",
        "input": "0x095ea7b30000000000000000000000003aa5ebb10dc797cac828524e59a333d0a371443c00000000000000000000000000000000000000000000021e19e0c9bab2400000",
        "nonce": "0x1f",
        "chainId": "0x7a69"
      },
      "additionalContracts": [],
      "isFixedGasLimit": false
    },
    {
      "hash": "0xf95a076d6e1a88fbd85a9a4b30af8d034a138455af4060375ffe49a94e3c6e32",
      "transactionType": "CALL",
      "contractName": null,
      "contractAddress": "0x3aa5ebb10dc797cac828524e59a333d0a371443c",
      "function": "depositReserves(address,uint256)",
      "arguments": [
        "0xe7f1725E7734CE288F8367e1Bb143E90bb3F0512",
        "10000000000000000000000"
      ],
      "transaction": {
        "from": "0xf39fd6e51aad88f6f4ce6ab8827279cfffb92266",
        "to": "0x3aa5ebb10dc797cac828524e59a333d0a371443c",
        "gas": "0x121d5",
        "value": "0x0",
        "input": "0x5966e733000000000000000000000000e7f1725e7734ce288f8367e1bb143e90bb3f051200000000000000000000000000000000000000000000021e19e0c9bab2400000",
        "nonce": "0x20",
        "chainId": "0x7a69"
      },
      "additionalContracts": [],
      "isFixedGasLimit": false
    }
  ],
  "receipts": [
    {
      "status": "0x1",
      "cumulativeGasUsed": "0x113a1",
      "logs": [
        {
          "address": "0x8a791620dd6260079bf849dc5567adc3f2fdc318",
          "topics": [
            "0x2f8788117e7eff1d82e926ec794901d17c78024a50270940304540a733656f0d",
            "0x31e0210044b4f6757ce6aa31f9c6e8d4896d24a755014887391a926c5224d959",
            "0x0000000000000000000000000dcd1bf9a1b36ce34237eeafef220932846bcd82",
            "0x000000000000000000000000f39fd6e51aad88f6f4ce6ab8827279cfffb92266"
          ],
          "data": "0x",
          "blockHash": "0x18ac0b146f47a60f3ebb4977c9d614990f232f94adf3c8d6d866c42c30578b4b",
          "blockNumber": "0xf",
          "blockTimestamp": "0x6999442c",
          "transactionHash": "0x27b11d6cd885f06a0406edeecc4b267baca264076abc2ce9c92450029a4d9835",
          "transactionIndex": "0x0",
          "logIndex": "0x0",
          "removed": false
        }
      ],
      "logsBloom": "0x00000004000000000000000000000000000000000000000000000000000000000000000000000000000000000000000000000000000000000000000000000000000000000000000000000000000000000000000000000010000000000000000000000000000000000000000100000008000080000000000000000000000000000000000000000000000000000000000000000000000000000000000000000000002000000000000000000000008000000000000000000000001000000000000000000000000000200000000000020000040000002000000100000000000000000000000000080000000000000000000000000000080000000000000000000000",
      "type": "0x2",
      "transactionHash": "0x27b11d6cd885f06a0406edeecc4b267baca264076abc2ce9c92450029a4d9835",
      "transactionIndex": "0x0",
      "blockHash": "0x18ac0b146f47a60f3ebb4977c9d614990f232f94adf3c8d6d866c42c30578b4b",
      "blockNumber": "0xf",
      "gasUsed": "0x113a1",
      "effectiveGasPrice": "0xa7ef131",
      "blobGasPrice": "0x1",
      "from": "0xf39fd6e51aad88f6f4ce6ab8827279cfffb92266",
      "to": "0x8a791620dd6260079bf849dc5567adc3f2fdc318",
      "contractAddress": null
    },
    {
      "status": "0x1",
      "cumulativeGasUsed": "0xb68f",
      "logs": [],
      "logsBloom": "0x00000000000000000000000000000000000000000000000000000000000000000000000000000000000000000000000000000000000000000000000000000000000000000000000000000000000000000000000000000000000000000000000000000000000000000000000000000000000000000000000000000000000000000000000000000000000000000000000000000000000000000000000000000000000000000000000000000000000000000000000000000000000000000000000000000000000000000000000000000000000000000000000000000000000000000000000000000000000000000000000000000000000000000000000000000000",
      "type": "0x2",
      "transactionHash": "0x6795684ef380022886ec816b2a23bfae27db400d23a582fdef2327597f7d31df",
      "transactionIndex": "0x0",
      "blockHash": "0x8e5ebba9812eb7ff09706bfc5c2447bcdce706ba301fad35315706dd4cadc3bb",
      "blockNumber": "0x10",
      "gasUsed": "0xb68f",
      "effectiveGasPrice": "0x930a783",
      "blobGasPrice": "0x1",
      "from": "0xf39fd6e51aad88f6f4ce6ab8827279cfffb92266",
      "to": "0x0dcd1bf9a1b36ce34237eeafef220932846bcd82",
      "contractAddress": null
    },
    {
      "status": "0x1",
      "cumulativeGasUsed": "0xbd06",
      "logs": [
        {
          "address": "0xdc64a140aa3e981100a9beca4e685f962f0cf6c9",
          "topics": [
            "0x04b5780035dfc2873ad5e358af8f2b2554e53a40a87a9c1c63bdca629eb4b427",
            "0x0000000000000000000000000dcd1bf9a1b36ce34237eeafef220932846bcd82"
          ],
          "data": "0x0000000000000000000000000000000000000000000000000000000000000310",
          "blockHash": "0xa457f2d2c6c00cc8849a9876bceb813627328c4982b656ef2d9caccdb9165be5",
          "blockNumber": "0x11",
          "blockTimestamp": "0x6999442c",
          "transactionHash": "0x9263ae31a860b9bf2c8dd2d8b6a4b5418008e5f911bf335535f91d5a602751e3",
          "transactionIndex": "0x0",
          "logIndex": "0x0",
          "removed": false
        }
      ],
      "logsBloom": "0x00000000000000000000000000000000000000000000000000000000000000000010000000000000000000000000000000000000000000000000000000000000000000000000000000000000000000000000000000000010000000000000000000000000000000000000000000000008000000000000000000000000000000000000000000000000000000000000000000000000000000000000000100000000000000000000000000000000000000000000000000000000000000000000000000000000000000000000000000000000000000000020800000000000000000000000000000000000000000000000000000000001080000000100000000000000",
      "type": "0x2",
      "transactionHash": "0x9263ae31a860b9bf2c8dd2d8b6a4b5418008e5f911bf335535f91d5a602751e3",
      "transactionIndex": "0x0",
      "blockHash": "0xa457f2d2c6c00cc8849a9876bceb813627328c4982b656ef2d9caccdb9165be5",
      "blockNumber": "0x11",
      "gasUsed": "0xbd06",
      "effectiveGasPrice": "0x80b7d23",
      "blobGasPrice": "0x1",
      "from": "0xf39fd6e51aad88f6f4ce6ab8827279cfffb92266",
      "to": "0xdc64a140aa3e981100a9beca4e685f962f0cf6c9",
      "contractAddress": null
    },
    {
      "status": "0x1",
      "cumulativeGasUsed": "0x7996",
      "logs": [
        {
          "address": "0xdc64a140aa3e981100a9beca4e685f962f0cf6c9",
          "topics": [
            "0x2df1cad2a2659e001c3804c872f69655356013e35c18c2e77a5d568078ab788f",
            "0x0000000000000000000000000dcd1bf9a1b36ce34237eeafef220932846bcd82"
          ],
          "data": "0x0000000000000000000000000000000000000000000000000000000000000001",
          "blockHash": "0xaaf2c9497e8a37b62a1f0747c51d39d5931d3a6bffe8aa6795572c3974319ac0",
          "blockNumber": "0x12",
          "blockTimestamp": "0x6999442c",
          "transactionHash": "0xe30fbb8a436268b35eedc61bec57b8dbbe872658b4ec8254be7d7d4189313f0c",
          "transactionIndex": "0x0",
          "logIndex": "0x0",
          "removed": false
        }
      ],
      "logsBloom": "0x00000000000000000000000000000000000000000000000000000000000000000000010000000000000000000000000000000000000000000000000000000000000000000000000000000000000000000000000000000010200000000000000000000000000000000000000000000008000000000000000000000000000200000000000000000000000000000000000000000000000000000000000000000000000000000000000000000000000000000000000000000000000000000000000000000000000000000000000000000000000000000020000000000000000000000000000000000000000000000000000000000001080000000100000000000000",
      "type": "0x2",
      "transactionHash": "0xe30fbb8a436268b35eedc61bec57b8dbbe872658b4ec8254be7d7d4189313f0c",
      "transactionIndex": "0x0",
      "blockHash": "0xaaf2c9497e8a37b62a1f0747c51d39d5931d3a6bffe8aa6795572c3974319ac0",
      "blockNumber": "0x12",
      "gasUsed": "0x7996",
      "effectiveGasPrice": "0x70ae21a",
      "blobGasPrice": "0x1",
      "from": "0xf39fd6e51aad88f6f4ce6ab8827279cfffb92266",
      "to": "0xdc64a140aa3e981100a9beca4e685f962f0cf6c9",
      "contractAddress": null
    },
    {
      "status": "0x1",
      "cumulativeGasUsed": "0x18c3e",
      "logs": [
        {
          "address": "0x5fbdb2315678afecb367f032d93f642f64180aa3",
          "topics": [
            "0xddf252ad1be2c89b69c2b068fc378daa952ba7f163c4a11628f55a4df523b3ef",
            "0x0000000000000000000000000000000000000000000000000000000000000000",
            "0x000000000000000000000000f39fd6e51aad88f6f4ce6ab8827279cfffb92266"
          ],
          "data": "0x00000000000000000000000000000000000000000000021e19e0c9bab2400000",
          "blockHash": "0xaaf2c9497e8a37b62a1f0747c51d39d5931d3a6bffe8aa6795572c3974319ac0",
          "blockNumber": "0x12",
          "blockTimestamp": "0x6999442c",
          "transactionHash": "0xcafd91e6ab0696d7b108df7f24a0ae67ea9ce6202734b601ed1e3a9214beceb1",
          "transactionIndex": "0x1",
          "logIndex": "0x1",
          "removed": false
        }
      ],
      "logsBloom": "0x00000000000000000000000000000000000000000000000000000000000000000000000000000000000000000000000000000000000000000000000000000000000000000000000000000008000000000000000000000000000000000000000000000040020000000000000100000800000000000000000000000010000000000000000000000000000000000000000000000000000000000000000200000000000000000000000000000000000000000000000000000000000000000000000000000042000000200000000000000000000000002000000000000000000020000000000000000000000000000000000000000000000000000000000000000000",
      "type": "0x2",
      "transactionHash": "0xcafd91e6ab0696d7b108df7f24a0ae67ea9ce6202734b601ed1e3a9214beceb1",
      "transactionIndex": "0x1",
      "blockHash": "0xaaf2c9497e8a37b62a1f0747c51d39d5931d3a6bffe8aa6795572c3974319ac0",
      "blockNumber": "0x12",
      "gasUsed": "0x112a8",
      "effectiveGasPrice": "0x70ae21a",
      "blobGasPrice": "0x1",
      "from": "0xf39fd6e51aad88f6f4ce6ab8827279cfffb92266",
      "to": "0x5fbdb2315678afecb367f032d93f642f64180aa3",
      "contractAddress": null
    },
    {
      "status": "0x1",
      "cumulativeGasUsed": "0x23fee",
      "logs": [
        {
          "address": "0x5fbdb2315678afecb367f032d93f642f64180aa3",
          "topics": [
            "0x8c5be1e5ebec7d5bd14f71427d1e84f3dd0314c0f7b2291e5b200ac8c7c3b925",
            "0x000000000000000000000000f39fd6e51aad88f6f4ce6ab8827279cfffb92266",
            "0x0000000000000000000000003aa5ebb10dc797cac828524e59a333d0a371443c"
          ],
          "data": "0x00000000000000000000000000000000000000000000021e19e0c9bab2400000",
          "blockHash": "0xaaf2c9497e8a37b62a1f0747c51d39d5931d3a6bffe8aa6795572c3974319ac0",
          "blockNumber": "0x12",
          "blockTimestamp": "0x6999442c",
          "transactionHash": "0x77c18a44bcf43a22738b41a30a45732b7ed6ee1cc13ce650ee35eed3824af0d5",
          "transactionIndex": "0x2",
          "logIndex": "0x2",
          "removed": false
        }
      ],
      "logsBloom": "0x00040000000000000000000000000000000000000000000000000000000000000000000000000000000000000000000000000000000000000000000000200000000000002000000100000000000000000000000000000000000000000000000000000040000000000000000100000000000000000000000000000000000000000000000000000000000000000000000000000000000000000000000200000000020000000000000000000000000000000000000000000000000000000000000000000040000000200000000000000000000000002000000000000000000000000010000000000000000000000000000000000000000000000000000000000000",
      "type": "0x2",
      "transactionHash": "0x77c18a44bcf43a22738b41a30a45732b7ed6ee1cc13ce650ee35eed3824af0d5",
      "transactionIndex": "0x2",
      "blockHash": "0xaaf2c9497e8a37b62a1f0747c51d39d5931d3a6bffe8aa6795572c3974319ac0",
      "blockNumber": "0x12",
      "gasUsed": "0xb3b0",
      "effectiveGasPrice": "0x70ae21a",
      "blobGasPrice": "0x1",
      "from": "0xf39fd6e51aad88f6f4ce6ab8827279cfffb92266",
      "to": "0x5fbdb2315678afecb367f032d93f642f64180aa3",
      "contractAddress": null
    },
    {
      "status": "0x1",
      "cumulativeGasUsed": "0x311ae",
      "logs": [
        {
          "address": "0x5fbdb2315678afecb367f032d93f642f64180aa3",
          "topics": [
            "0xddf252ad1be2c89b69c2b068fc378daa952ba7f163c4a11628f55a4df523b3ef",
            "0x000000000000000000000000f39fd6e51aad88f6f4ce6ab8827279cfffb92266",
            "0x0000000000000000000000003aa5ebb10dc797cac828524e59a333d0a371443c"
          ],
          "data": "0x00000000000000000000000000000000000000000000021e19e0c9bab2400000",
          "blockHash": "0xaaf2c9497e8a37b62a1f0747c51d39d5931d3a6bffe8aa6795572c3974319ac0",
          "blockNumber": "0x12",
          "blockTimestamp": "0x6999442c",
          "transactionHash": "0x1a6a0921417ca1ba93ff66bee670105766eed94aa75e29d49d8b8714aed7de2e",
          "transactionIndex": "0x3",
          "logIndex": "0x3",
          "removed": false
        },
        {
          "address": "0x3aa5ebb10dc797cac828524e59a333d0a371443c",
          "topics": [
            "0xcea2aa568570e239e616fd2e9bcf2301307aa1c1c1f355305a87e5cdd46bbc79",
            "0x0000000000000000000000005fbdb2315678afecb367f032d93f642f64180aa3"
          ],
          "data": "0x00000000000000000000000000000000000000000000021e19e0c9bab2400000",
          "blockHash": "0xaaf2c9497e8a37b62a1f0747c51d39d5931d3a6bffe8aa6795572c3974319ac0",
          "blockNumber": "0x12",
          "blockTimestamp": "0x6999442c",
          "transactionHash": "0x1a6a0921417ca1ba93ff66bee670105766eed94aa75e29d49d8b8714aed7de2e",
          "transactionIndex": "0x3",
          "logIndex": "0x4",
          "removed": false
        }
      ],
      "logsBloom": "0x00040000000000000000000000000000000000000000000000000000000000000000000000000000000800000010000000000000000000000000000000000000000000002000000100000008000000000000000000000000000000000000000000000040000000000000000100800000000004000000000000000010000000000000000000000020000000000000000000000000000000000000020200000000000000000000000000000000000000000000000000000000000000000000000000000042004000200000000000000000000000002008000000000000000000000000000000000000000000004000000000000000000000000000000000000000",
      "type": "0x2",
      "transactionHash": "0x1a6a0921417ca1ba93ff66bee670105766eed94aa75e29d49d8b8714aed7de2e",
      "transactionIndex": "0x3",
      "blockHash": "0xaaf2c9497e8a37b62a1f0747c51d39d5931d3a6bffe8aa6795572c3974319ac0",
      "blockNumber": "0x12",
      "gasUsed": "0xd1c0",
      "effectiveGasPrice": "0x70ae21a",
      "blobGasPrice": "0x1",
      "from": "0xf39fd6e51aad88f6f4ce6ab8827279cfffb92266",
      "to": "0x3aa5ebb10dc797cac828524e59a333d0a371443c",
      "contractAddress": null
    },
    {
      "status": "0x1",
      "cumulativeGasUsed": "0x42501",
      "logs": [
        {
          "address": "0xe7f1725e7734ce288f8367e1bb143e90bb3f0512",
          "topics": [
            "0xddf252ad1be2c89b69c2b068fc378daa952ba7f163c4a11628f55a4df523b3ef",
            "0x0000000000000000000000000000000000000000000000000000000000000000",
            "0x000000000000000000000000f39fd6e51aad88f6f4ce6ab8827279cfffb92266"
          ],
          "data": "0x00000000000000000000000000000000000000000000021e19e0c9bab2400000",
          "blockHash": "0xaaf2c9497e8a37b62a1f0747c51d39d5931d3a6bffe8aa6795572c3974319ac0",
          "blockNumber": "0x12",
          "blockTimestamp": "0x6999442c",
          "transactionHash": "0xbe878369ccc58a7cf1d06501848d8b4d9d522430ecc9f233d3164bcff854c9a4",
          "transactionIndex": "0x4",
          "logIndex": "0x5",
          "removed": false
        }
      ],
      "logsBloom": "0x00000000000000000000000000000000000000000000000000000000000000000000000000000000000000000000000010000000000000000000000000000000000000000000000000000008000000000000000000000000000000000000000000000000020000000000000100000800000000000000000000000010000000000000000000000000000000000000000000000000000000000000000000000000000000000000000000000000000000000000000000000000000000000000000000000002000000200000000000001000000000002000000000000000000020000000000000000000000000000000000000000000000000800000000000000000",
      "type": "0x2",
      "transactionHash": "0xbe878369ccc58a7cf1d06501848d8b4d9d522430ecc9f233d3164bcff854c9a4",
      "transactionIndex": "0x4",
      "blockHash": "0xaaf2c9497e8a37b62a1f0747c51d39d5931d3a6bffe8aa6795572c3974319ac0",
      "blockNumber": "0x12",
      "gasUsed": "0x11353",
      "effectiveGasPrice": "0x70ae21a",
      "blobGasPrice": "0x1",
      "from": "0xf39fd6e51aad88f6f4ce6ab8827279cfffb92266",
      "to": "0xe7f1725e7734ce288f8367e1bb143e90bb3f0512",
      "contractAddress": null
    },
    {
      "status": "0x1",
      "cumulativeGasUsed": "0xb3c1",
      "logs": [
        {
          "address": "0xe7f1725e7734ce288f8367e1bb143e90bb3f0512",
          "topics": [
            "0x8c5be1e5ebec7d5bd14f71427d1e84f3dd0314c0f7b2291e5b200ac8c7c3b925",
            "0x000000000000000000000000f39fd6e51aad88f6f4ce6ab8827279cfffb92266",
            "0x0000000000000000000000003aa5ebb10dc797cac828524e59a333d0a371443c"
          ],
          "data": "0x00000000000000000000000000000000000000000000021e19e0c9bab2400000",
          "blockHash": "0x3d48044fbfea110ea0190ea34c5f1a2fb00f7b60b635238311451462f6bfab21",
          "blockNumber": "0x13",
          "blockTimestamp": "0x6999442c",
          "transactionHash": "0xd472c2ac86b8f65022e25267a4c7cf874acc7cfbc255f5db8030f07728f3698c",
          "transactionIndex": "0x0",
          "logIndex": "0x0",
          "removed": false
        }
      ],
      "logsBloom": "0x00040000000000000000000000000000000000000000000000000000000000000000000000000000000000000000000010000000000000000000000000200000000000002000000100000000000000000000000000000000000000000000000000000000000000000000000100000000000000000000000000000000000000000000000000000000000000000000000000000000000000000000000000000000020000000000000000000000000000000000000000000000000000000000000000000000000000200000000000001000000000002000000000000000000000000010000000000000000000000000000000000000000000800000000000000000",
      "type": "0x2",
      "transactionHash": "0xd472c2ac86b8f65022e25267a4c7cf874acc7cfbc255f5db8030f07728f3698c",
      "transactionIndex": "0x0",
      "blockHash": "0x3d48044fbfea110ea0190ea34c5f1a2fb00f7b60b635238311451462f6bfab21",
      "blockNumber": "0x13",
      "gasUsed": "0xb3c1",
      "effectiveGasPrice": "0x62d9a85",
      "blobGasPrice": "0x1",
      "from": "0xf39fd6e51aad88f6f4ce6ab8827279cfffb92266",
      "to": "0xe7f1725e7734ce288f8367e1bb143e90bb3f0512",
      "contractAddress": null
    },
    {
      "status": "0x1",
      "cumulativeGasUsed": "0xd1d6",
      "logs": [
        {
          "address": "0xe7f1725e7734ce288f8367e1bb143e90bb3f0512",
          "topics": [
            "0xddf252ad1be2c89b69c2b068fc378daa952ba7f163c4a11628f55a4df523b3ef",
            "0x000000000000000000000000f39fd6e51aad88f6f4ce6ab8827279cfffb92266",
            "0x0000000000000000000000003aa5ebb10dc797cac828524e59a333d0a371443c"
          ],
          "data": "0x00000000000000000000000000000000000000000000021e19e0c9bab2400000",
          "blockHash": "0x7224daf976cdd133f13da8946702f0d598d1d5ad4131fbf88d3313916a49c755",
          "blockNumber": "0x14",
          "blockTimestamp": "0x6999442c",
          "transactionHash": "0xf95a076d6e1a88fbd85a9a4b30af8d034a138455af4060375ffe49a94e3c6e32",
          "transactionIndex": "0x0",
          "logIndex": "0x0",
          "removed": false
        },
        {
          "address": "0x3aa5ebb10dc797cac828524e59a333d0a371443c",
          "topics": [
            "0xcea2aa568570e239e616fd2e9bcf2301307aa1c1c1f355305a87e5cdd46bbc79",
            "0x000000000000000000000000e7f1725e7734ce288f8367e1bb143e90bb3f0512"
          ],
          "data": "0x00000000000000000000000000000000000000000000021e19e0c9bab2400000",
          "blockHash": "0x7224daf976cdd133f13da8946702f0d598d1d5ad4131fbf88d3313916a49c755",
          "blockNumber": "0x14",
          "blockTimestamp": "0x6999442c",
          "transactionHash": "0xf95a076d6e1a88fbd85a9a4b30af8d034a138455af4060375ffe49a94e3c6e32",
          "transactionIndex": "0x0",
          "logIndex": "0x1",
          "removed": false
        }
      ],
      "logsBloom": "0x00040000000000000400000000000000000000000000000000000000000000000000000000000000000800000010000010000000000000000000000000000000000000002000000100000008000000000000000000000000000000000000000000000000000000000000000100000000000000000000000000000014000000000000000000000020000000000000000000000000000000000000020000000000000000000000000000000002000000000000000000000000000000000000000000000002004000200000000000001000000000002000000000000000000000000000000000000000000000004000000000000000000000800000000000000000",
      "type": "0x2",
      "transactionHash": "0xf95a076d6e1a88fbd85a9a4b30af8d034a138455af4060375ffe49a94e3c6e32",
      "transactionIndex": "0x0",
      "blockHash": "0x7224daf976cdd133f13da8946702f0d598d1d5ad4131fbf88d3313916a49c755",
      "blockNumber": "0x14",
      "gasUsed": "0xd1d6",
      "effectiveGasPrice": "0x5688279",
      "blobGasPrice": "0x1",
      "from": "0xf39fd6e51aad88f6f4ce6ab8827279cfffb92266",
      "to": "0x3aa5ebb10dc797cac828524e59a333d0a371443c",
      "contractAddress": null
    }
  ],
  "libraries": [],
  "pending": [],
  "returns": {},
  "timestamp": 1771652140243,
  "chain": 31337,
  "commit": "55a7a7bd"
}