{
  "transactions": [
    {
      "hash": "0x03924672cd9b7421b8922bd41f55298cac4c8df56c9615ab2f31dc5406a20095",
      "transactionType": "CALL",
      "contractName": null,
      "contractAddress": "0x8a791620dd6260079bf849dc5567adc3f2fdc318",
      "function": "setVault(address)",
      "arguments": [
        "0x0DCd1Bf9A1b36cE34237eEaFef220932846BCD82"
      ],
      "transaction": {
        "from": "0xf39fd6e51aad88f6f4ce6ab8827279cfffb92266",
        "to": "0x8a791620dd6260079bf849dc5567adc3f2fdc318",
        "gas": "0x1931b",
        "value": "0x0",
        "input": "0x6817031b0000000000000000000000000dcd1bf9a1b36ce34237eeafef220932846bcd82",
        "nonce": "0x17",
        "chainId": "0x7a69"
      },
      "additionalContracts": [],
      "isFixedGasLimit": false
    },
    {
      "hash": "0xfb5890fd4e2dfca171849c3706ac82631433ebcfdb6930ca100b15038b26141e",
      "transactionType": "CALL",
      "contractName": null,
      "contractAddress": "0x0dcd1bf9a1b36ce34237eeafef220932846bcd82",
      "function": "setOrchestrator(address)",
      "arguments": [
        "0x8A791620dd6260079BF849Dc5567aDC3F2FdC318"
      ],
      "transaction": {
        "from": "0xf39fd6e51aad88f6f4ce6ab8827279cfffb92266",
        "to": "0x0dcd1bf9a1b36ce34237eeafef220932846bcd82",
        "gas": "0xfc27",
        "value": "0x0",
        "input": "0xcd28ef0d0000000000000000000000008a791620dd6260079bf849dc5567adc3f2fdc318",
        "nonce": "0x18",
        "chainId": "0x7a69"
      },
      "additionalContracts": [],
      "isFixedGasLimit": false
    },
    {
      "hash": "0x1d2b98efcc32c0d88f231b838588fde923529061c96c340277a261815964a79c",
      "transactionType": "CALL",
      "contractName": null,
      "contractAddress": "0xdc64a140aa3e981100a9beca4e685f962f0cf6c9",
      "function": "registerIdentity(address,uint16)",
      "arguments": [
        "0x0DCd1Bf9A1b36cE34237eEaFef220932846BCD82",
        "784"
      ],
      "transaction": {
        "from": "0xf39fd6e51aad88f6f4ce6ab8827279cfffb92266",
        "to": "0xdc64a140aa3e981100a9beca4e685f962f0cf6c9",
        "gas": "0x10516",
        "value": "0x0",
        "input": "0xc5a80fa70000000000000000000000000dcd1bf9a1b36ce34237eeafef220932846bcd820000000000000000000000000000000000000000000000000000000000000310",
        "nonce": "0x19",
        "chainId": "0x7a69"
      },
      "additionalContracts": [],
      "isFixedGasLimit": false
    },
    {
      "hash": "0x0d605b7ac6f38101e2858e0fd777df93117589c5ccaa91ac9a163ca6d1c97f00",
      "transactionType": "CALL",
      "contractName": null,
      "contractAddress": "0xdc64a140aa3e981100a9beca4e685f962f0cf6c9",
      "function": "setKycStatus(address,bool)",
      "arguments": [
        "0x0DCd1Bf9A1b36cE34237eEaFef220932846BCD82",
        "true"
      ],
      "transaction": {
        "from": "0xf39fd6e51aad88f6f4ce6ab8827279cfffb92266",
        "to": "0xdc64a140aa3e981100a9beca4e685f962f0cf6c9",
        "gas": "0xa7f0",
        "value": "0x0",
        "input": "0xe37a35c70000000000000000000000000dcd1bf9a1b36ce34237eeafef220932846bcd820000000000000000000000000000000000000000000000000000000000000001",
        "nonce": "0x1a",
        "chainId": "0x7a69"
      },
      "additionalContracts": [],
      "isFixedGasLimit": false
    },
    {
      "hash": "0x781c33a2584344dc4256b68b7540a6e8478d1b8fee9e5a710664eb51a1204e8c",
      "transactionType": "CALL",
      "contractName": null,
      "contractAddress": "0x5fbdb2315678afecb367f032d93f642f64180aa3",
      "function": "mint(address,uint256)",
      "arguments": [
        "0xf39Fd6e51aad88F6F4ce6aB8827279cffFb92266",
        "10000000000000000000000"
      ],
      "transaction": {
        "from": "0xf39fd6e51aad88f6f4ce6ab8827279cfffb92266",
        "to": "0x5fbdb2315678afecb367f032d93f642f64180aa3",
        "gas": "0x17b5d",
        "value": "0x0",
        "input": "0x40c10f19000000000000000000000000f39fd6e51aad88f6f4ce6ab8827279cfffb9226600000000000000000000000000000000000000000000021e19e0c9bab2400000",
        "nonce": "0x1b",
        "chainId": "0x7a69"
      },
      "additionalContracts": [],
      "isFixedGasLimit": false
    },
    {
      "hash": "0x3e8f0dc3a06494d28e42595e2e0f5bcf1a0b0c424ec9b44fa2adb3b7c9de46a1",
      "transactionType": "CALL",
      "contractName": null,
      "contractAddress": "0x5fbdb2315678afecb367f032d93f642f64180aa3",
      "function": "approve(address,uint256)",
      "arguments": [
        "0x3Aa5ebB10DC797CAC828524e59A333d0A371443c",
        "10000000000000000000000"
      ],
      "transaction": {
        "from": "0xf39fd6e51aad88f6f4ce6ab8827279cfffb92266",
        "to": "0x5fbdb2315678afecb367f032d93f642f64180aa3",
        "gas": "0xf831",
        "value": "0x0",
        "input": "0x095ea7b30000000000000000000000003aa5ebb10dc797cac828524e59a333d0a371443c00000000000000000000000000000000000000000000021e19e0c9bab2400000",
        "nonce": "0x1c",
        "chainId": "0x7a69"
      },
      "additionalContracts": [],
      "isFixedGasLimit": false
    },
    {
      "hash": "0x3f84a279135a694538bd9d9eb9c417cb86fc1e63e311659582a55219c2bcc0e5",
      "transactionType": "CALL",
      "contractName": null,
      "contractAddress": "0x3aa5ebb10dc797cac828524e59a333d0a371443c",
      "function": "depositReserves(address,uint256)",
      "arguments": [
        "0x5FbDB2315678afecb367f032d93F642f64180aa3",
        "10000000000000000000000"
      ],
      "transaction": {
        "from": "0xf39fd6e51aad88f6f4ce6ab8827279cfffb92266",
        "to": "0x3aa5ebb10dc797cac828524e59a333d0a371443c",
        "gas": "0x121b7",
        "value": "0x0",
        "input": "0x5966e7330000000000000000000000005fbdb2315678afecb367f032d93f642f64180aa300000000000000000000000000000000000000000000021e19e0c9bab2400000",
        "nonce": "0x1d",
        "chainId": "0x7a69"
      },
      "additionalContracts": [],
      "isFixedGasLimit": false
    },
    {
      "hash": "0xd2d615882061ba452fb3abb7413b164176c03b7bc9d005cd4ce73031bf564c2b",
      "transactionType": "CALL",
      "contractName": null,
      "contractAddress": "0xe7f1725e7734ce288f8367e1bb143e90bb3f0512",
      "function": "mint(address,uint256)",
      "arguments": [
        "0xf39Fd6e51aad88F6F4ce6aB8827279cffFb92266",
        "10000000000000000000000"
      ],
      "transaction": {
        "from": "0xf39fd6e51aad88f6f4ce6ab8827279cfffb92266",
        "to": "0xe7f1725e7734ce288f8367e1bb143e90bb3f0512",
        "gas": "0x192a8",
        "value": "0x0",
        "input": "0x40c10f19000000000000000000000000f39fd6e51aad88f6f4ce6ab8827279cfffb9226600000000000000000000000000000000000000000000021e19e0c9bab2400000",
        "nonce": "0x1e",
        "chainId": "0x7a69"
      },
      "additionalContracts": [],
      "isFixedGasLimit": false
    },
    {
      "hash": "0xe14ec1cff95f4b6e32b150ea39fa5c1ecb1bcffb63eb6eec34393e03e282b09a",
      "transactionType": "CALL",
      "contractName": null,
      "contractAddress": "0xe7f1725e7734ce288f8367e1bb143e90bb3f0512",
      "function": "approve(address,uint256)",
      "arguments": [
        "0x3Aa5ebB10DC797CAC828524e59A333d0A371443c",
        "10000000000000000000000"
      ],
      "transaction": {
        "from": "0xf39fd6e51aad88f6f4ce6ab8827279cfffb92266",
        "to": "0xe7f1725e7734ce288f8367e1bb143e90bb3f0512",
        "gas": "0x106e3",
        "value": "0x0",
        "input": "0x095ea7b30000000000000000000000003aa5ebb10dc797cac828524e59a333d0a371443c00000000000000000000000000000000000000000000021e19e0c9bab2400000",
        "nonce": "0x1f",
        "chainId": "0x7a69"
      },
      "additionalContracts": [],
      "isFixedGasLimit": false
    },
    {
      "hash": "0xf9428d9689c9ba8bf2f902cdb4acd3fd90133afc34e623d37c91bb51b5da879d",
      "transactionType": "CALL",
      "contractName": null,
      "contractAddress": "0x3aa5ebb10dc797cac828524e59a333d0a371443c",
      "function": "depositReserves(address,uint256)",
      "arguments": [
        "0xe7f1725E7734CE288F8367e1Bb143E90bb3F0512",
        "10000000000000000000000"
      ],
      "transaction": {
        "from": "0xf39fd6e51aad88f6f4ce6ab8827279cfffb92266",
        "to": "0x3aa5ebb10dc797cac828524e59a333d0a371443c",
        "gas": "0x121d5",
        "value": "0x0",
        "input": "0x5966e733000000000000000000000000e7f1725e7734ce288f8367e1bb143e90bb3f051200000000000000000000000000000000000000000000021e19e0c9bab2400000",
        "nonce": "0x20",
        "chainId": "0x7a69"
      },
      "additionalContracts": [],
      "isFixedGasLimit": false
    }
  ],
  "receipts": [
    {
      "status": "0x1",
      "cumulativeGasUsed": "0x113a1",
      "logs": [
        {
          "address": "0x8a791620dd6260079bf849dc5567adc3f2fdc318",
          "topics": [
            "0x2f8788117e7eff1d82e926ec794901d17c78024a50270940304540a733656f0d",
            "0x31e0210044b4f6757ce6aa31f9c6e8d4896d24a755014887391a926c5224d959",
            "0x0000000000000000000000000dcd1bf9a1b36ce34237eeafef220932846bcd82",
            "0x000000000000000000000000f39fd6e51aad88f6f4ce6ab8827279cfffb92266"
          ],
          "data": "0x",
          "blockHash": "0xf98c79f59a3b4b151ea94f8eb683ae6e790f42d3c61c1c40fa20d4a038847519",
          "blockNumber": "0xe",
          "blockTimestamp": "0x69994019",
          "transactionHash": "0x03924672cd9b7421b8922bd41f55298cac4c8df56c9615ab2f31dc5406a20095",
          "transactionIndex": "0x0",
          "logIndex": "0x0",
          "removed": false
        }
      ],
      "logsBloom": "0x00000004000000000000000000000000000000000000000000000000000000000000000000000000000000000000000000000000000000000000000000000000000000000000000000000000000000000000000000000010000000000000000000000000000000000000000100000008000080000000000000000000000000000000000000000000000000000000000000000000000000000000000000000000002000000000000000000000008000000000000000000000001000000000000000000000000000200000000000020000040000002000000100000000000000000000000000080000000000000000000000000000080000000000000000000000",
      "type": "0x2",
      "transactionHash": "0x03924672cd9b7421b8922bd41f55298cac4c8df56c9615ab2f31dc5406a20095",
      "transactionIndex": "0x0",
      "blockHash": "0xf98c79f59a3b4b151ea94f8eb683ae6e790f42d3c61c1c40fa20d4a038847519",
      "blockNumber": "0xe",
      "gasUsed": "0x113a1",
      "effectiveGasPrice": "0xbff6ac9",
      "blobGasPrice": "0x1",
      "from": "0xf39fd6e51aad88f6f4ce6ab8827279cfffb92266",
      "to": "0x8a791620dd6260079bf849dc5567adc3f2fdc318",
      "contractAddress": null
    },
    {
      "status": "0x1",
      "cumulativeGasUsed": "0xb68f",
      "logs": [],
      "logsBloom": "0x00000000000000000000000000000000000000000000000000000000000000000000000000000000000000000000000000000000000000000000000000000000000000000000000000000000000000000000000000000000000000000000000000000000000000000000000000000000000000000000000000000000000000000000000000000000000000000000000000000000000000000000000000000000000000000000000000000000000000000000000000000000000000000000000000000000000000000000000000000000000000000000000000000000000000000000000000000000000000000000000000000000000000000000000000000000",
      "type": "0x2",
      "transactionHash": "0xfb5890fd4e2dfca171849c3706ac82631433ebcfdb6930ca100b15038b26141e",
      "transactionIndex": "0x0",
      "blockHash": "0x01a14f72f0bb98c775c2494960baa8c95f0495d83c0fe0674593d7184eb9e5d7",
      "blockNumber": "0xf",
      "gasUsed": "0xb68f",
      "effectiveGasPrice": "0xa814bc8",
      "blobGasPrice": "0x1",
      "from": "0xf39fd6e51aad88f6f4ce6ab8827279cfffb92266",
      "to": "0x0dcd1bf9a1b36ce34237eeafef220932846bcd82",
      "contractAddress": null
    },
    {
      "status": "0x1",
      "cumulativeGasUsed": "0xbd06",
      "logs": [
        {
          "address": "0xdc64a140aa3e981100a9beca4e685f962f0cf6c9",
          "topics": [
            "0x04b5780035dfc2873ad5e358af8f2b2554e53a40a87a9c1c63bdca629eb4b427",
            "0x0000000000000000000000000dcd1bf9a1b36ce34237eeafef220932846bcd82"
          ],
          "data": "0x0000000000000000000000000000000000000000000000000000000000000310",
          "blockHash": "0xd107f30b50914fd6606f6ac7d1608bc8c17b058c89b7d7b9f50b1784eca82f1c",
          "blockNumber": "0x10",
          "blockTimestamp": "0x69994019",
          "transactionHash": "0x1d2b98efcc32c0d88f231b838588fde923529061c96c340277a261815964a79c",
          "transactionIndex": "0x0",
          "logIndex": "0x0",
          "removed": false
        }
      ],
      "logsBloom": "0x00000000000000000000000000000000000000000000000000000000000000000010000000000000000000000000000000000000000000000000000000000000000000000000000000000000000000000000000000000010000000000000000000000000000000000000000000000008000000000000000000000000000000000000000000000000000000000000000000000000000000000000000100000000000000000000000000000000000000000000000000000000000000000000000000000000000000000000000000000000000000000020800000000000000000000000000000000000000000000000000000000001080000000100000000000000",
      "type": "0x2",
      "transactionHash": "0x1d2b98efcc32c0d88f231b838588fde923529061c96c340277a261815964a79c",
      "transactionIndex": "0x0",
      "blockHash": "0xd107f30b50914fd6606f6ac7d1608bc8c17b058c89b7d7b9f50b1784eca82f1c",
      "blockNumber": "0x10",
      "gasUsed": "0xbd06",
      "effectiveGasPrice": "0x9322e70",
      "blobGasPrice": "0x1",
      "from": "0xf39fd6e51aad88f6f4ce6ab8827279cfffb92266",
      "to": "0xdc64a140aa3e981100a9beca4e685f962f0cf6c9",
      "contractAddress": null
    },
    {
      "status": "0x1",
      "cumulativeGasUsed": "0x1369c",
      "logs": [
        {
          "address": "0xdc64a140aa3e981100a9beca4e685f962f0cf6c9",
          "topics": [
            "0x2df1cad2a2659e001c3804c872f69655356013e35c18c2e77a5d568078ab788f",
            "0x0000000000000000000000000dcd1bf9a1b36ce34237eeafef220932846bcd82"
          ],
          "data": "0x0000000000000000000000000000000000000000000000000000000000000001",
          "blockHash": "0xd107f30b50914fd6606f6ac7d1608bc8c17b058c89b7d7b9f50b1784eca82f1c",
          "blockNumber": "0x10",
          "blockTimestamp": "0x69994019",
          "transactionHash": "0x0d605b7ac6f38101e2858e0fd777df93117589c5ccaa91ac9a163ca6d1c97f00",
          "transactionIndex": "0x1",
          "logIndex": "0x1",
          "removed": false
        }
      ],
      "logsBloom": "0x00000000000000000000000000000000000000000000000000000000000000000000010000000000000000000000000000000000000000000000000000000000000000000000000000000000000000000000000000000010200000000000000000000000000000000000000000000008000000000000000000000000000200000000000000000000000000000000000000000000000000000000000000000000000000000000000000000000000000000000000000000000000000000000000000000000000000000000000000000000000000000020000000000000000000000000000000000000000000000000000000000001080000000100000000000000",
      "type": "0x2",
      "transactionHash": "0x0d605b7ac6f38101e2858e0fd777df93117589c5ccaa91ac9a163ca6d1c97f00",
      "transactionIndex": "0x1",
      "blockHash": "0xd107f30b50914fd6606f6ac7d1608bc8c17b058c89b7d7b9f50b1784eca82f1c",
      "blockNumber": "0x10",
      "gasUsed": "0x7996",
      "effectiveGasPrice": "0x9322e70",
      "blobGasPrice": "0x1",
      "from": "0xf39fd6e51aad88f6f4ce6ab8827279cfffb92266",
      "to": "0xdc64a140aa3e981100a9beca4e685f962f0cf6c9",
      "contractAddress": null
    },
    {
      "status": "0x1",
      "cumulativeGasUsed": "0x112a8",
      "logs": [
        {
          "address": "0x5fbdb2315678afecb367f032d93f642f64180aa3",
          "topics": [
            "0xddf252ad1be2c89b69c2b068fc378daa952ba7f163c4a11628f55a4df523b3ef",
            "0x0000000000000000000000000000000000000000000000000000000000000000",
            "0x000000000000000000000000f39fd6e51aad88f6f4ce6ab8827279cfffb92266"
          ],
          "data": "0x00000000000000000000000000000000000000000000021e19e0c9bab2400000",
          "blockHash": "0xf83c87d772ded938078d964ccfd230b2968a63099fc0633e80ac688ad2cbed46",
          "blockNumber": "0x11",
          "blockTimestamp": "0x69994019",
          "transactionHash": "0x781c33a2584344dc4256b68b7540a6e8478d1b8fee9e5a710664eb51a1204e8c",
          "transactionIndex": "0x0",
          "logIndex": "0x0",
          "removed": false
        }
      ],
      "logsBloom": "0x00000000000000000000000000000000000000000000000000000000000000000000000000000000000000000000000000000000000000000000000000000000000000000000000000000008000000000000000000000000000000000000000000000040020000000000000100000800000000000000000000000010000000000000000000000000000000000000000000000000000000000000000200000000000000000000000000000000000000000000000000000000000000000000000000000042000000200000000000000000000000002000000000000000000020000000000000000000000000000000000000000000000000000000000000000000",
      "type": "0x2",
      "transactionHash": "0x781c33a2584344dc4256b68b7540a6e8478d1b8fee9e5a710664eb51a1204e8c",
      "transactionIndex": "0x0",
      "blockHash": "0xf83c87d772ded938078d964ccfd230b2968a63099fc0633e80ac688ad2cbed46",
      "blockNumber": "0x11",
      "gasUsed": "0x112a8",
      "effectiveGasPrice": "0x80d77fc",
      "blobGasPrice": "0x1",
      "from": "0xf39fd6e51aad88f6f4ce6ab8827279cfffb92266",
      "to": "0x5fbdb2315678afecb367f032d93f642f64180aa3",
      "contractAddress": null
    },
    {
      "status": "0x1",
      "cumulativeGasUsed": "0x1c658",
      "logs": [
        {
          "address": "0x5fbdb2315678afecb367f032d93f642f64180aa3",
          "topics": [
            "0x8c5be1e5ebec7d5bd14f71427d1e84f3dd0314c0f7b2291e5b200ac8c7c3b925",
            "0x000000000000000000000000f39fd6e51aad88f6f4ce6ab8827279cfffb92266",
            "0x0000000000000000000000003aa5ebb10dc797cac828524e59a333d0a371443c"
          ],
          "data": "0x00000000000000000000000000000000000000000000021e19e0c9bab2400000",
          "blockHash": "0xf83c87d772ded938078d964ccfd230b2968a63099fc0633e80ac688ad2cbed46",
          "blockNumber": "0x11",
          "blockTimestamp": "0x69994019",
          "transactionHash": "0x3e8f0dc3a06494d28e42595e2e0f5bcf1a0b0c424ec9b44fa2adb3b7c9de46a1",
          "transactionIndex": "0x1",
          "logIndex": "0x1",
          "removed": false
        }
      ],
      "logsBloom": "0x00040000000000000000000000000000000000000000000000000000000000000000000000000000000000000000000000000000000000000000000000200000000000002000000100000000000000000000000000000000000000000000000000000040000000000000000100000000000000000000000000000000000000000000000000000000000000000000000000000000000000000000000200000000020000000000000000000000000000000000000000000000000000000000000000000040000000200000000000000000000000002000000000000000000000000010000000000000000000000000000000000000000000000000000000000000",
      "type": "0x2",
      "transactionHash": "0x3e8f0dc3a06494d28e42595e2e0f5bcf1a0b0c424ec9b44fa2adb3b7c9de46a1",
      "transactionIndex": "0x1",
      "blockHash": "0xf83c87d772ded938078d964ccfd230b2968a63099fc0633e80ac688ad2cbed46",
      "blockNumber": "0x11",
      "gasUsed": "0xb3b0",
      "effectiveGasPrice": "0x80d77fc",
      "blobGasPrice": "0x1",
      "from": "0xf39fd6e51aad88f6f4ce6ab8827279cfffb92266",
      "to": "0x5fbdb2315678afecb367f032d93f642f64180aa3",
      "contractAddress": null
    },
    {
      "status": "0x1",
      "cumulativeGasUsed": "0x29818",
      "logs": [
        {
          "address": "0x5fbdb2315678afecb367f032d93f642f64180aa3",
          "topics": [
            "0xddf252ad1be2c89b69c2b068fc378daa952ba7f163c4a11628f55a4df523b3ef",
            "0x000000000000000000000000f39fd6e51aad88f6f4ce6ab8827279cfffb92266",
            "0x0000000000000000000000003aa5ebb10dc797cac828524e59a333d0a371443c"
          ],
          "data": "0x00000000000000000000000000000000000000000000021e19e0c9bab2400000",
          "blockHash": "0xf83c87d772ded938078d964ccfd230b2968a63099fc0633e80ac688ad2cbed46",
          "blockNumber": "0x11",
          "blockTimestamp": "0x69994019",
          "transactionHash": "0x3f84a279135a694538bd9d9eb9c417cb86fc1e63e311659582a55219c2bcc0e5",
          "transactionIndex": "0x2",
          "logIndex": "0x2",
          "removed": false
        },
        {
          "address": "0x3aa5ebb10dc797cac828524e59a333d0a371443c",
          "topics": [
            "0xcea2aa568570e239e616fd2e9bcf2301307aa1c1c1f355305a87e5cdd46bbc79",
            "0x0000000000000000000000005fbdb2315678afecb367f032d93f642f64180aa3"
          ],
          "data": "0x00000000000000000000000000000000000000000000021e19e0c9bab2400000",
          "blockHash": "0xf83c87d772ded938078d964ccfd230b2968a63099fc0633e80ac688ad2cbed46",
          "blockNumber": "0x11",
          "blockTimestamp": "0x69994019",
          "transactionHash": "0x3f84a279135a694538bd9d9eb9c417cb86fc1e63e311659582a55219c2bcc0e5",
          "transactionIndex": "0x2",
          "logIndex": "0x3",
          "removed": false
        }
      ],
      "logsBloom": "0x00040000000000000000000000000000000000000000000000000000000000000000000000000000000800000010000000000000000000000000000000000000000000002000000100000008000000000000000000000000000000000000000000000040000000000000000100800000000004000000000000000010000000000000000000000020000000000000000000000000000000000000020200000000000000000000000000000000000000000000000000000000000000000000000000000042004000200000000000000000000000002008000000000000000000000000000000000000000000004000000000000000000000000000000000000000",
      "type": "0x2",
      "transactionHash": "0x3f84a279135a694538bd9d9eb9c417cb86fc1e63e311659582a55219c2bcc0e5",
      "transactionIndex": "0x2",
      "blockHash": "0xf83c87d772ded938078d964ccfd230b2968a63099fc0633e80ac688ad2cbed46",
      "blockNumber": "0x11",
      "gasUsed": "0xd1c0",
      "effectiveGasPrice": "0x80d77fc",
      "blobGasPrice": "0x1",
      "from": "0xf39fd6e51aad88f6f4ce6ab8827279cfffb92266",
      "to": "0x3aa5ebb10dc797cac828524e59a333d0a371443c",
      "contractAddress": null
    },
    {
      "status": "0x1",
      "cumulativeGasUsed": "0x3ab6b",
      "logs": [
        {
          "address": "0xe7f1725e7734ce288f8367e1bb143e90bb3f0512",
          "topics": [
            "0xddf252ad1be2c89b69c2b068fc378daa952ba7f163c4a11628f55a4df523b3ef",
            "0x0000000000000000000000000000000000000000000000000000000000000000",
            "0x000000000000000000000000f39fd6e51aad88f6f4ce6ab8827279cfffb92266"
          ],
          "data": "0x00000000000000000000000000000000000000000000021e19e0c9bab2400000",
          "blockHash": "0xf83c87d772ded938078d964ccfd230b2968a63099fc0633e80ac688ad2cbed46",
          "blockNumber": "0x11",
          "blockTimestamp": "0x69994019",
          "transactionHash": "0xd2d615882061ba452fb3abb7413b164176c03b7bc9d005cd4ce73031bf564c2b",
          "transactionIndex": "0x3",
          "logIndex": "0x4",
          "removed": false
        }
      ],
      "logsBloom": "0x00000000000000000000000000000000000000000000000000000000000000000000000000000000000000000000000010000000000000000000000000000000000000000000000000000008000000000000000000000000000000000000000000000000020000000000000100000800000000000000000000000010000000000000000000000000000000000000000000000000000000000000000000000000000000000000000000000000000000000000000000000000000000000000000000000002000000200000000000001000000000002000000000000000000020000000000000000000000000000000000000000000000000800000000000000000",
      "type": "0x2",
      "transactionHash": "0xd2d615882061ba452fb3abb7413b164176c03b7bc9d005cd4ce73031bf564c2b",
      "transactionIndex": "0x3",
      "blockHash": "0xf83c87d772ded938078d964ccfd230b2968a63099fc0633e80ac688ad2cbed46",
      "blockNumber": "0x11",
      "gasUsed": "0x11353",
      "effectiveGasPrice": "0x80d77fc",
      "blobGasPrice": "0x1",
      "from": "0xf39fd6e51aad88f6f4ce6ab8827279cfffb92266",
      "to": "0xe7f1725e7734ce288f8367e1bb143e90bb3f0512",
      "contractAddress": null
    },
    {
      "status": "0x1",
      "cumulativeGasUsed": "0xb3c1",
      "logs": [
        {
          "address": "0xe7f1725e7734ce288f8367e1bb143e90bb3f0512",
          "topics": [
            "0x8c5be1e5ebec7d5bd14f71427d1e84f3dd0314c0f7b2291e5b200ac8c7c3b925",
            "0x000000000000000000000000f39fd6e51aad88f6f4ce6ab8827279cfffb92266",
            "0x0000000000000000000000003aa5ebb10dc797cac828524e59a333d0a371443c"
          ],
          "data": "0x00000000000000000000000000000000000000000000021e19e0c9bab2400000",
          "blockHash": "0xd4d82e619e7fa352c650f79981f3ece1eb928a7bc644f523ac3f205a8e60bdc3",
          "blockNumber": "0x12",
          "blockTimestamp": "0x69994019",
          "transactionHash": "0xe14ec1cff95f4b6e32b150ea39fa5c1ecb1bcffb63eb6eec34393e03e282b09a",
          "transactionIndex": "0x0",
          "logIndex": "0x0",
          "removed": false
        }
      ],
      "logsBloom": "0x00040000000000000000000000000000000000000000000000000000000000000000000000000000000000000000000010000000000000000000000000200000000000002000000100000000000000000000000000000000000000000000000000000000000000000000000100000000000000000000000000000000000000000000000000000000000000000000000000000000000000000000000000000000020000000000000000000000000000000000000000000000000000000000000000000000000000200000000000001000000000002000000000000000000000000010000000000000000000000000000000000000000000800000000000000000",
      "type": "0x2",
      "transactionHash": "0xe14ec1cff95f4b6e32b150ea39fa5c1ecb1bcffb63eb6eec34393e03e282b09a",
      "transactionIndex": "0x0",
      "blockHash": "0xd4d82e619e7fa352c650f79981f3ece1eb928a7bc644f523ac3f205a8e60bdc3",
      "blockNumber": "0x12",
      "gasUsed": "0xb3c1",
      "effectiveGasPrice": "0x70fea9f",
      "blobGasPrice": "0x1",
      "from": "0xf39fd6e51aad88f6f4ce6ab8827279cfffb92266",
      "to": "0xe7f1725e7734ce288f8367e1bb143e90bb3f0512",
      "contractAddress": null
    },
    {
      "status": "0x1",
      "cumulativeGasUsed": "0xd1d6",
      "logs": [
        {
          "address": "0xe7f1725e7734ce288f8367e1bb143e90bb3f0512",
          "topics": [
            "0xddf252ad1be2c89b69c2b068fc378daa952ba7f163c4a11628f55a4df523b3ef",
            "0x000000000000000000000000f39fd6e51aad88f6f4ce6ab8827279cfffb92266",
            "0x0000000000000000000000003aa5ebb10dc797cac828524e59a333d0a371443c"
          ],
          "data": "0x00000000000000000000000000000000000000000000021e19e0c9bab2400000",
          "blockHash": "0xc5386e4c930781405db9b1e34e63006579aecaade6cbe43944f425f3b7c92d4f",
          "blockNumber": "0x13",
          "blockTimestamp": "0x69994019",
          "transactionHash": "0xf9428d9689c9ba8bf2f902cdb4acd3fd90133afc34e623d37c91bb51b5da879d",
          "transactionIndex": "0x0",
          "logIndex": "0x0",
          "removed": false
        },
        {
          "address": "0x3aa5ebb10dc797cac828524e59a333d0a371443c",
          "topics": [
            "0xcea2aa568570e239e616fd2e9bcf2301307aa1c1c1f355305a87e5cdd46bbc79",
            "0x000000000000000000000000e7f1725e7734ce288f8367e1bb143e90bb3f0512"
          ],
          "data": "0x00000000000000000000000000000000000000000000021e19e0c9bab2400000",
          "blockHash": "0xc5386e4c930781405db9b1e34e63006579aecaade6cbe43944f425f3b7c92d4f",
          "blockNumber": "0x13",
          "blockTimestamp": "0x69994019",
          "transactionHash": "0xf9428d9689c9ba8bf2f902cdb4acd3fd90133afc34e623d37c91bb51b5da879d",
          "transactionIndex": "0x0",
          "logIndex": "0x1",
          "removed": false
        }
      ],
      "logsBloom": "0x00040000000000000400000000000000000000000000000000000000000000000000000000000000000800000010000010000000000000000000000000000000000000002000000100000008000000000000000000000000000000000000000000000000000000000000000100000000000000000000000000000014000000000000000000000020000000000000000000000000000000000000020000000000000000000000000000000002000000000000000000000000000000000000000000000002004000200000000000001000000000002000000000000000000000000000000000000000000000004000000000000000000000800000000000000000",
      "type": "0x2",
      "transactionHash": "0xf9428d9689c9ba8bf2f902cdb4acd3fd90133afc34e623d37c91bb51b5da879d",
      "transactionIndex": "0x0",
      "blockHash": "0xc5386e4c930781405db9b1e34e63006579aecaade6cbe43944f425f3b7c92d4f",
      "blockNumber": "0x13",
      "gasUsed": "0xd1d6",
      "effectiveGasPrice": "0x62e9ec7",
      "blobGasPrice": "0x1",
      "from": "0xf39fd6e51aad88f6f4ce6ab8827279cfffb92266",
      "to": "0x3aa5ebb10dc797cac828524e59a333d0a371443c",
      "contractAddress": null
    }
  ],
  "libraries": [],
  "pending": [],
  "returns": {},
  "timestamp": 1771651097583,
  "chain": 31337,
  "commit": "55a7a7bd"
}