{
  "transactions": [
    {
      "hash": "0x45f8a48f8708059b8c73804d99c60ea54889757d18c3bdb3d39179bd2a042bf5",
      "transactionType": "CREATE",
      "contractName": "PriceOracle",
      "contractAddress": "0x68b1d87f95878fe05b998f19b66f4baba5de1aed",
      "function": null,
      "arguments": [
        "0xf39Fd6e51aad88F6F4ce6aB8827279cffFb92266"
      ],
      "transaction": {
        "from": "0xf39fd6e51aad88f6f4ce6ab8827279cfffb92266",
        "gas": "0x5b4ae",
        "value": "0x0",
        "input": "0x6080346100b957601f61049238819003918201601f19168301916001600160401b038311848410176100bd578084926020946040528339810103126100b957516001600160a01b0390818116908190036100b95780156100a1575f80546001600160a01b03198116831782556040519316907f8be0079c531659141344cd1fd0a4f28419497f9722a3daafe3b4186f6b6457e09080a36103c090816100d28239f35b604051631e4fbdf760e01b81525f6004820152602490fd5b5f80fd5b634e487b7160e01b5f52604160045260245ffdfe6040608081526004361015610012575f80fd5b5f3560e01c80632bdb70971461024d57806337cef7911461020b578063715018a6146101b4578063838e44151461013d5780638790fac11461011b5780638da5cb5b146100f45763f2fde38b14610067575f80fd5b346100f05760203660031901126100f0576100806102fd565b61008861035f565b6001600160a01b039081169182156100da57505f54826bffffffffffffffffffffffff60a01b8216175f55167f8be0079c531659141344cd1fd0a4f28419497f9722a3daafe3b4186f6b6457e05f80a3005b51631e4fbdf760e01b81525f6004820152602490fd5b5f80fd5b50346100f0575f3660031901126100f0575f5490516001600160a01b039091168152602090f35b50346100f0575f3660031901126100f05760209051670de0b6b3a76400008152f35b50346100f057806003193601126100f0576004356024356001600160a01b038116908190036100f0575f526001602052815f20549061017d821515610313565b8181029181830414901517156101a057670de0b6b3a76400006020925191048152f35b634e487b7160e01b5f52601160045260245ffd5b346100f0575f3660031901126100f0576101cc61035f565b5f80546001600160a01b0319811682556001600160a01b03167f8be0079c531659141344cd1fd0a4f28419497f9722a3daafe3b4186f6b6457e08280a3005b50346100f05760203660031901126100f0576020906001600160a01b036102306102fd565b165f5260018252805f205490610247821515610313565b51908152f35b50346100f057806003193601126100f0576102666102fd565b6024359061027261035f565b81156102b9577f492de3ddd6d733b461680f630083e98c567b860343e3f9ac763ee61d7c57b5489160209160018060a01b031693845f526001835281815f205551908152a2005b825162461bcd60e51b815260206004820152601860248201527f4f7261636c653a2072617465206d757374206265203e203000000000000000006044820152606490fd5b600435906001600160a01b03821682036100f057565b1561031a57565b60405162461bcd60e51b815260206004820152601960248201527f4f7261636c653a206e6f207261746520666f7220746f6b656e000000000000006044820152606490fd5b5f546001600160a01b0316330361037257565b60405163118cdaa760e01b8152336004820152602490fdfea2646970667358221220c4047ec306bd35d61008c2396455f5968db0d619225b71c586c57233c66b9cc264736f6c63430008180033000000000000000000000000f39fd6e51aad88f6f4ce6ab8827279cfffb92266",
        "nonce": "0x12",
        "chainId": "0x7a69"
      },
      "additionalContracts": [],
      "isFixedGasLimit": false
    },
    {
      "hash": "0x21458dd4ce00b16070bb250b17cad78bbea42b0801a13b59da1ea5fb24561286",
      "transactionType": "CREATE",
      "contractName": "MockSwapRouter",
      "contractAddress": "0x3aa5ebb10dc797cac828524e59a333d0a371443c",
      "function": null,
      "arguments": [
        "0x68B1D87F95878fE05B998F19b66F4baba5De1aed",
        "0xf39Fd6e51aad88F6F4ce6aB8827279cffFb92266"
      ],
      "transaction": {
        "from": "0xf39fd6e51aad88f6f4ce6ab8827279cfffb92266",
        "gas": "0xb4a0d",
        "value": "0x0",
        "input": "0x60a0346100e457601f6109e538819003918201601f19168301916001600160401b038311848410176100e85780849260409485528339810103126100e4576020610048826100fc565b916001600160a01b0391829161005e91016100fc565b169182156100cc575f80546001600160a01b03198116851782556040519491908416907f8be0079c531659141344cd1fd0a4f28419497f9722a3daafe3b4186f6b6457e09080a3166080526108d4908161011182396080518181816101ad015281816102e101526103d10152f35b604051631e4fbdf760e01b81525f6004820152602490fd5b5f80fd5b634e487b7160e01b5f52604160045260245ffd5b51906001600160a01b03821682036100e45756fe604060808152600480361015610013575f80fd5b5f3560e01c80635966e733146106865780636e81221c14610367578063715018a6146103105780637dc0d1d0146102cd5780638da5cb5b146102a6578063bbbaffab14610166578063e478795d146101025763f2fde38b14610073575f80fd5b346100fe5760203660031901126100fe5761008c6106e4565b9061009561078b565b6001600160a01b039182169283156100e85750505f54826bffffffffffffffffffffffff60a01b8216175f55167f8be0079c531659141344cd1fd0a4f28419497f9722a3daafe3b4186f6b6457e05f80a3005b905f6024925191631e4fbdf760e01b8352820152fd5b5f80fd5b82346100fe57806003193601126100fe577fcf3e2ed8c545de2d902ea60194df2faa514dad26e69937899d836f775b6973a8602061013e6106e4565b6024359061014a61078b565b6001600160a01b03169361015f82338761083f565b51908152a2005b5090346100fe5760603660031901126100fe576101816106e4565b6101896106fa565b82516337cef79160e01b8082526001600160a01b03938416868301526020959192917f00000000000000000000000000000000000000000000000000000000000000008516908785602481855afa94851561029c579088949392915f96610266575b50906024929188519788958694855216908301525afa91821561025c575f9261022b575b5061021f61022492604435610746565b61076d565b9051908152f35b91508382813d8311610255575b6102428183610710565b810103126100fe5790519061021f61020f565b503d610238565b83513d5f823e3d90fd5b85819493969297503d8311610295575b6102808183610710565b810103126100fe5790519387939060246101eb565b503d610276565b87513d5f823e3d90fd5b82346100fe575f3660031901126100fe575f5490516001600160a01b039091168152602090f35b82346100fe575f3660031901126100fe57517f00000000000000000000000000000000000000000000000000000000000000006001600160a01b03168152602090f35b346100fe575f3660031901126100fe5761032861078b565b5f80546001600160a01b0319811682556001600160a01b03167f8be0079c531659141344cd1fd0a4f28419497f9722a3daafe3b4186f6b6457e08280a3005b50346100fe5760803660031901126100fe576103816106e4565b9161038a6106fa565b606435936001600160a01b0380861692604435908488036100fe578216928216918284146106435781156106005785516337cef79160e01b808252888201859052602099927f0000000000000000000000000000000000000000000000000000000000000000168a83602481845afa9283156105f6578793928c928c925f956105bc575b50906024918c51968794859384528301525afa91821561053e575f9261058b575b5061021f61043d9285610746565b9687156105485786516370a0823160e01b815230828201528981602481895afa90811561053e579089915f9161050d575b50106104c05750816104af8888936104a97f268a93038deccaf0b954c94b2c84d566a2176cb264383b94f7f3843c63c198f79630338a6107b6565b8761083f565b81519081528789820152a451908152f35b865162461bcd60e51b8152908101899052602160248201527f53776170526f757465723a20696e73756666696369656e7420726573657276656044820152607360f81b6064820152608490fd5b8092508b8092503d8311610537575b6105268183610710565b810103126100fe578890515f61046e565b503d61051c565b88513d5f823e3d90fd5b865162461bcd60e51b8152908101899052601a60248201527f53776170526f757465723a207a65726f20616d6f756e744f75740000000000006044820152606490fd5b91508982813d83116105b5575b6105a28183610710565b810103126100fe5790519061021f61042f565b503d610598565b9392509350935081813d83116105ef575b6105d78183610710565b810103126100fe5789602488948d935194909161040e565b503d6105cd565b89513d5f823e3d90fd5b855162461bcd60e51b8152602081890152601960248201527f53776170526f757465723a207a65726f20616d6f756e74496e000000000000006044820152606490fd5b855162461bcd60e51b8152602081890152601c60248201527f53776170526f757465723a206964656e746963616c20746f6b656e73000000006044820152606490fd5b82346100fe57806003193601126100fe577fcea2aa568570e239e616fd2e9bcf2301307aa1c1c1f355305a87e5cdd46bbc7960206106c26106e4565b602435906106ce61078b565b6001600160a01b03169361015f823033886107b6565b600435906001600160a01b03821682036100fe57565b602435906001600160a01b03821682036100fe57565b90601f8019910116810190811067ffffffffffffffff82111761073257604052565b634e487b7160e01b5f52604160045260245ffd5b8181029291811591840414171561075957565b634e487b7160e01b5f52601160045260245ffd5b8115610777570490565b634e487b7160e01b5f52601260045260245ffd5b5f546001600160a01b0316330361079e57565b60405163118cdaa760e01b8152336004820152602490fd5b6040516323b872dd60e01b5f9081526001600160a01b03938416600452938316602452604494909452909160209060648180855af160015f5114811615610820575b836040525f6060521561080a57505050565b635274afe760e01b835216600482015260249150fd5b600181151661083657813b15153d1516166107f8565b833d5f823e3d90fd5b60405163a9059cbb60e01b5f9081526001600160a01b039384166004526024949094529260209060448180855af160015f5114811615610888575b836040521561080a57505050565b600181151661083657813b15153d15161661087a56fea2646970667358221220550c40f9329ff28fd533cb6877a8a9cc47e856aa1fae717fccf95f366d72a3bf64736f6c6343000818003300000000000000000000000068b1d87f95878fe05b998f19b66f4baba5de1aed000000000000000000000000f39fd6e51aad88f6f4ce6ab8827279cfffb92266",
        "nonce": "0x13",
        "chainId": "0x7a69"
      },
      "additionalContracts": [],
      "isFixedGasLimit": false
    },
    {
      "hash": "0x471362d06ffe0556a21dbab1232ce436153989afaf33c2b7e143f98384e91c2a",
      "transactionType": "CREATE",
      "contractName": "ADIPayRouter",
      "contractAddress": "0xc6e7df5e7b4f2a278906862b61205850344d4e7d",
      "function": null,
      "arguments": [
        "0x68B1D87F95878fE05B998F19b66F4baba5De1aed",
        "0x3Aa5ebB10DC797CAC828524e59A333d0A371443c",
        "0xf39Fd6e51aad88F6F4ce6aB8827279cffFb92266"
      ],
      "transaction": {
        "from": "0xf39fd6e51aad88f6f4ce6ab8827279cfffb92266",
        "gas": "0xc94c3",
        "value": "0x0",
        "input": "0x60c03461010a57601f610b3538819003918201601f19168301916001600160401b0383118484101761010e5780849260609460405283398101031261010a57604061004982610122565b9161005660208201610122565b6001600160a01b03929091839161006d9101610122565b169283156100f2575f80546001600160a01b03198116861782556040519585939290918416907f8be0079c531659141344cd1fd0a4f28419497f9722a3daafe3b4186f6b6457e09080a3166080521660a0526109fe9081610137823960805181818161027c01528181610357015261046b015260a05181818161013c01526105bc0152f35b604051631e4fbdf760e01b81525f6004820152602490fd5b5f80fd5b634e487b7160e01b5f52604160045260245ffd5b51906001600160a01b038216820361010a5756fe608060409080825260049081361015610016575f80fd5b5f3560e01c90816324a9d853146108a357508063469048401461087b5780635f7b684b146103d75780636055a41b14610302578063715018a6146102ab5780637dc0d1d0146102685780638790fac1146102465780638da5cb5b1461021f578063b4f2e8b81461016b578063c31c9c07146101285763f2fde38b14610099575f80fd5b34610124576020366003190112610124576100b26108bd565b906100bb61099d565b6001600160a01b0391821692831561010e5750505f54826bffffffffffffffffffffffff60a01b8216175f55167f8be0079c531659141344cd1fd0a4f28419497f9722a3daafe3b4186f6b6457e05f80a3005b905f6024925191631e4fbdf760e01b8352820152fd5b5f80fd5b8234610124575f36600319011261012457517f00000000000000000000000000000000000000000000000000000000000000006001600160a01b03168152602090f35b503461012457816003193601126101245780356101866108d3565b9161018f61099d565b60c882116101ee57506001819055600280546001600160a01b0319166001600160a01b03939093169283179055915191825260208201527f7cfad8b150be9751a5386cc4e0f549618032ff63d14fab4f77cd4b0aaaedc24290604090a1005b606490602085519162461bcd60e51b8352820152600b60248201526a4665653a206d617820322560a81b6044820152fd5b8234610124575f366003190112610124575f5490516001600160a01b039091168152602090f35b8234610124575f3660031901126101245760209051670de0b6b3a76400008152f35b8234610124575f36600319011261012457517f00000000000000000000000000000000000000000000000000000000000000006001600160a01b03168152602090f35b34610124575f366003190112610124576102c361099d565b5f80546001600160a01b0319811682556001600160a01b03167f8be0079c531659141344cd1fd0a4f28419497f9722a3daafe3b4186f6b6457e08280a3005b5090346101245780600319360112610124576020610353926103226108d3565b835163838e441560e01b815282359281019283526001600160a01b0390911660208301529384918291604090910190565b03817f00000000000000000000000000000000000000000000000000000000000000006001600160a01b03165afa9081156103ce575f91610399575b6020925051908152f35b90506020823d6020116103c6575b816103b4602093836108e9565b8101031261012457602091519061038f565b3d91506103a7565b513d5f823e3d90fd5b5034610124576080366003190112610124576103f16108bd565b602480359390926001600160a01b039290916044918235858116918282036101245760649687359681881680980361012457818316998a1561083b578b156107fb57865163838e441560e01b81528281018d81526001600160a01b039096166020878101919091529098909586908a9081906040010381877f0000000000000000000000000000000000000000000000000000000000000000165afa988915610682575f996107cc575b50881561078d5787519a6323b872dd60e01b5f52338452308352898252865f8281808c5af19b60019c8d5f5114811615610778575b818b525f606052156107645750868b898e938282145f146105b75750505050505087995b54808b02908b8204148b1517156105a457612710900491828b039a8b116105935750509188918361053494151580610586575b610571575b50508761091f565b8251978852870152850152606084015260808301527f643acff6359b7e7e48a63907f266066bc9fdbe89454135c7f98ec4f5ff228dc460a03393a3005b61057f91600254168a61091f565b5f8061052c565b5081600254161515610527565b601190634e487b7160e01b5f52525ffd5b50634e487b7160e01b5f90815260118352fd5b8d8d8a7f00000000000000000000000000000000000000000000000000000000000000001696815163095ea7b360e01b91825f52898d52848c528a8d8a5f8381808d5af1835f5114811615610757575b8487521561068c575b5050505050916084949596915f93519889978896631ba0488760e21b88528d8801528b87015285015230908401525af1908115610682575f91610655575b50996104f4565b90508581813d831161067b575b61066c81836108e9565b8101031261012457515f61064e565b503d610662565b88513d5f823e3d90fd5b5f9550859398919499508392979a96508b908a845252818d525af190805f5114821615610742575b50818d521561072e57508d895f868f8f8f84928a8e8594519a8552528c525af190805f5114821615610710575b50818c52156106fc578989928f8f938f918f91818a8d610610565b635274afe760e01b81528581018a90528490fd5b811516610725578a3b15153d1516168e6106e1565b503d5f823e3d90fd5b635274afe760e01b81528681018b90528590fd5b811516610725578b3b15153d1516168f6106b4565b893b15153d151616610607565b635274afe760e01b81528481018990528390fd5b8d81151661072557893b15153d1516166104d0565b8a9350601c7f506179526f757465723a207a65726f20746f6b656e20616d6f756e740000000092878a519562461bcd60e51b8752860152840152820152fd5b9098508581813d83116107f4575b6107e481836108e9565b810103126101245751975f61049b565b503d6107da565b907f506179526f757465723a207a65726f2066696174416d6f756e7400000000000088601a8c9460208b519562461bcd60e51b8752860152840152820152fd5b907f506179526f757465723a207a65726f206d65726368616e7400000000000000008860188c9460208b519562461bcd60e51b8752860152840152820152fd5b8234610124575f3660031901126101245760025490516001600160a01b039091168152602090f35b34610124575f366003190112610124576020906001548152f35b600435906001600160a01b038216820361012457565b602435906001600160a01b038216820361012457565b90601f8019910116810190811067ffffffffffffffff82111761090b57604052565b634e487b7160e01b5f52604160045260245ffd5b60405163a9059cbb60e01b5f9081526001600160a01b039384166004526024949094529260209060448180855af160015f511481161561097e575b836040521561096857505050565b635274afe760e01b835216600482015260249150fd5b600181151661099457813b15153d15161661095a565b833d5f823e3d90fd5b5f546001600160a01b031633036109b057565b60405163118cdaa760e01b8152336004820152602490fdfea2646970667358221220b3ec3dff46c593780cebd5df4f9626ef2a663909a83cd47875d362415726ea7864736f6c6343000818003300000000000000000000000068b1d87f95878fe05b998f19b66f4baba5de1aed0000000000000000000000003aa5ebb10dc797cac828524e59a333d0a371443c000000000000000000000000f39fd6e51aad88f6f4ce6ab8827279cfffb92266",
        "nonce": "0x14",
        "chainId": "0x7a69"
      },
      "additionalContracts": [],
      "isFixedGasLimit": false
    },
    {
      "hash": "0x6bbe94f3cbc120fe052c867a437d44b1cbceb528ce7b95d8c8f7fdd2feedc454",
      "transactionType": "CALL",
      "contractName": "PriceOracle",
      "contractAddress": "0x68b1d87f95878fe05b998f19b66f4baba5de1aed",
      "function": "setRate(address,uint256)",
      "arguments": [
        "0x5FbDB2315678afecb367f032d93F642f64180aa3",
        "1000000000000000000"
      ],
      "transaction": {
        "from": "0xf39fd6e51aad88f6f4ce6ab8827279cfffb92266",
        "to": "0x68b1d87f95878fe05b998f19b66f4baba5de1aed",
        "gas": "0x100f0",
        "value": "0x0",
        "input": "0x2bdb70970000000000000000000000005fbdb2315678afecb367f032d93f642f64180aa30000000000000000000000000000000000000000000000000de0b6b3a7640000",
        "nonce": "0x15",
        "chainId": "0x7a69"
      },
      "additionalContracts": [],
      "isFixedGasLimit": false
    },
    {
      "hash": "0x0fee990f623832cbfdd3b37bbafa8f0fe6861fd483d6078ea7ea0ed9d84a76c5",
      "transactionType": "CALL",
      "contractName": "PriceOracle",
      "contractAddress": "0x68b1d87f95878fe05b998f19b66f4baba5de1aed",
      "function": "setRate(address,uint256)",
      "arguments": [
        "0xe7f1725E7734CE288F8367e1Bb143E90bb3F0512",
        "500000000000000000"
      ],
      "transaction": {
        "from": "0xf39fd6e51aad88f6f4ce6ab8827279cfffb92266",
        "to": "0x68b1d87f95878fe05b998f19b66f4baba5de1aed",
        "gas": "0x100f0",
        "value": "0x0",
        "input": "0x2bdb7097000000000000000000000000e7f1725e7734ce288f8367e1bb143e90bb3f051200000000000000000000000000000000000000000000000006f05b59d3b20000",
        "nonce": "0x16",
        "chainId": "0x7a69"
      },
      "additionalContracts": [],
      "isFixedGasLimit": false
    }
  ],
  "receipts": [
    {
      "status": "0x1",
      "cumulativeGasUsed": "0x4639a",
      "logs": [
        {
          "address": "0x68b1d87f95878fe05b998f19b66f4baba5de1aed",
          "topics": [
            "0x8be0079c531659141344cd1fd0a4f28419497f9722a3daafe3b4186f6b6457e0",
            "0x0000000000000000000000000000000000000000000000000000000000000000",
            "0x000000000000000000000000f39fd6e51aad88f6f4ce6ab8827279cfffb92266"
          ],
          "data": "0x",
          "blockHash": "0x52f0201aaa0361b122239bc755d703f8d1ef1a14a5e1bdcda4196e4c56091ee6",
          "blockNumber": "0xd",
          "blockTimestamp": "0x69993903",
          "transactionHash": "0x45f8a48f8708059b8c73804d99c60ea54889757d18c3bdb3d39179bd2a042bf5",
          "transactionIndex": "0x0",
          "logIndex": "0x0",
          "removed": false
        }
      ],
      "logsBloom": "0x00000000000000000000000000000000000000000000000000800000000000000000000000000000000000020000000000000000000000000000000000000000000000000000000000000000000000000001000000000000000000000000000000000000020000000000000100000800000000000000000000000000000000400000000000000000000000000000000000000000000000000000000000000000000000000000000008000000000000000000000000000000000000000000000000000000000000200000000000000000000000002000000000000000000020000000000000000000000000000000000000000000000000000100000000000000",
      "type": "0x2",
      "transactionHash": "0x45f8a48f8708059b8c73804d99c60ea54889757d18c3bdb3d39179bd2a042bf5",
      "transactionIndex": "0x0",
      "blockHash": "0x52f0201aaa0361b122239bc755d703f8d1ef1a14a5e1bdcda4196e4c56091ee6",
      "blockNumber": "0xd",
      "gasUsed": "0x4639a",
      "effectiveGasPrice": "0xd827aea",
      "blobGasPrice": "0x1",
      "from": "0xf39fd6e51aad88f6f4ce6ab8827279cfffb92266",
      "to": null,
      "contractAddress": "0x68b1d87f95878fe05b998f19b66f4baba5de1aed"
    },
    {
      "status": "0x1",
      "cumulativeGasUsed": "0x8af1e",
      "logs": [
        {
          "address": "0x3aa5ebb10dc797cac828524e59a333d0a371443c",
          "topics": [
            "0x8be0079c531659141344cd1fd0a4f28419497f9722a3daafe3b4186f6b6457e0",
            "0x0000000000000000000000000000000000000000000000000000000000000000",
            "0x000000000000000000000000f39fd6e51aad88f6f4ce6ab8827279cfffb92266"
          ],
          "data": "0x",
          "blockHash": "0x4c50e8fc0cb245d3d770bd6325b733a417a44e5f1313c600f3307c37d207b152",
          "blockNumber": "0xe",
          "blockTimestamp": "0x69993903",
          "transactionHash": "0x21458dd4ce00b16070bb250b17cad78bbea42b0801a13b59da1ea5fb24561286",
          "transactionIndex": "0x0",
          "logIndex": "0x0",
          "removed": false
        }
      ],
      "logsBloom": "0x00000000000000000000000000000000000000000000000000800000000000000000000000000000000800000010000000000000000000000000000000000000000000000000000000000000000000000001000000000000000000000000000000000000020000000000000100000800000000000000000000000000000000400000000000000000000000000000000000000000000000000000000000000000000000000000000000000000000000000000000000000000000000000000000000000000000000200000000000000000000000002000000000000000000020000000000000000000000000004000000000000000000000000000000000000000",
      "type": "0x2",
      "transactionHash": "0x21458dd4ce00b16070bb250b17cad78bbea42b0801a13b59da1ea5fb24561286",
      "transactionIndex": "0x0",
      "blockHash": "0x4c50e8fc0cb245d3d770bd6325b733a417a44e5f1313c600f3307c37d207b152",
      "blockNumber": "0xe",
      "gasUsed": "0x8af1e",
      "effectiveGasPrice": "0xbda75cd",
      "blobGasPrice": "0x1",
      "from": "0xf39fd6e51aad88f6f4ce6ab8827279cfffb92266",
      "to": null,
      "contractAddress": "0x3aa5ebb10dc797cac828524e59a333d0a371443c"
    },
    {
      "status": "0x1",
      "cumulativeGasUsed": "0x9ad83",
      "logs": [
        {
          "address": "0xc6e7df5e7b4f2a278906862b61205850344d4e7d",
          "topics": [
            "0x8be0079c531659141344cd1fd0a4f28419497f9722a3daafe3b4186f6b6457e0",
            "0x0000000000000000000000000000000000000000000000000000000000000000",
            "0x000000000000000000000000f39fd6e51aad88f6f4ce6ab8827279cfffb92266"
          ],
          "data": "0x",
          "blockHash": "0x7465556bea5e8cc2c2a45cbf1dd478b5308b634ddbd0e9ff92520b2c051e5207",
          "blockNumber": "0xf",
          "blockTimestamp": "0x69993903",
          "transactionHash": "0x471362d06ffe0556a21dbab1232ce436153989afaf33c2b7e143f98384e91c2a",
          "transactionIndex": "0x0",
          "logIndex": "0x0",
          "removed": false
        }
      ],
      "logsBloom": "0x00000000000000000000000000000000000000000000000000800000000000000000000000000000000000800000000000000000000000000000000000000000000000000000000000000000000000000001000000000000000000000000000000000000020000000000000100000800000000000000000000000000000000400000000000000000000000000000000000000000000000000000000000000000000000000000000000000000000000000000000000000000000000000000000000000000000000200000000000100000000000002000000000000000000020000000000000000000000000800000000000000000000000000000000000000000",
      "type": "0x2",
      "transactionHash": "0x471362d06ffe0556a21dbab1232ce436153989afaf33c2b7e143f98384e91c2a",
      "transactionIndex": "0x0",
      "blockHash": "0x7465556bea5e8cc2c2a45cbf1dd478b5308b634ddbd0e9ff92520b2c051e5207",
      "blockNumber": "0xf",
      "gasUsed": "0x9ad83",
      "effectiveGasPrice": "0xa6d8b46",
      "blobGasPrice": "0x1",
      "from": "0xf39fd6e51aad88f6f4ce6ab8827279cfffb92266",
      "to": null,
      "contractAddress": "0xc6e7df5e7b4f2a278906862b61205850344d4e7d"
    },
    {
      "status": "0x1",
      "cumulativeGasUsed": "0xa6788",
      "logs": [
        {
          "address": "0x68b1d87f95878fe05b998f19b66f4baba5de1aed",
          "topics": [
            "0x492de3ddd6d733b461680f630083e98c567b860343e3f9ac763ee61d7c57b548",
            "0x0000000000000000000000005fbdb2315678afecb367f032d93f642f64180aa3"
          ],
          "data": "0x0000000000000000000000000000000000000000000000000de0b6b3a7640000",
          "blockHash": "0x7465556bea5e8cc2c2a45cbf1dd478b5308b634ddbd0e9ff92520b2c051e5207",
          "blockNumber": "0xf",
          "blockTimestamp": "0x69993903",
          "transactionHash": "0x6bbe94f3cbc120fe052c867a437d44b1cbceb528ce7b95d8c8f7fdd2feedc454",
          "transactionIndex": "0x1",
          "logIndex": "0x1",
          "removed": false
        }
      ],
      "logsBloom": "0x00000000000000000000000000000000000000000000000000000000000000000000000000000000000000020000000000000020000000000000000000000000000000000000000000000000000000000000000000000000000000000000000000000000000000000000008000800200000004000000000000000000000000000000000000000000000000000000000000000000000000000000000000000000000000000000000008000000000000000000000000000000000000000000000000000000000000000000000000000000000000000008000000000000000000000000000000000000000000000000000000000000000000000100000000000000",
      "type": "0x2",
      "transactionHash": "0x6bbe94f3cbc120fe052c867a437d44b1cbceb528ce7b95d8c8f7fdd2feedc454",
      "transactionIndex": "0x1",
      "blockHash": "0x7465556bea5e8cc2c2a45cbf1dd478b5308b634ddbd0e9ff92520b2c051e5207",
      "blockNumber": "0xf",
      "gasUsed": "0xba05",
      "effectiveGasPrice": "0xa6d8b46",
      "blobGasPrice": "0x1",
      "from": "0xf39fd6e51aad88f6f4ce6ab8827279cfffb92266",
      "to": "0x68b1d87f95878fe05b998f19b66f4baba5de1aed",
      "contractAddress": null
    },
    {
      "status": "0x1",
      "cumulativeGasUsed": "0xb218d",
      "logs": [
        {
          "address": "0x68b1d87f95878fe05b998f19b66f4baba5de1aed",
          "topics": [
            "0x492de3ddd6d733b461680f630083e98c567b860343e3f9ac763ee61d7c57b548",
            "0x000000000000000000000000e7f1725e7734ce288f8367e1bb143e90bb3f0512"
          ],
          "data": "0x00000000000000000000000000000000000000000000000006f05b59d3b20000",
          "blockHash": "0x7465556bea5e8cc2c2a45cbf1dd478b5308b634ddbd0e9ff92520b2c051e5207",
          "blockNumber": "0xf",
          "blockTimestamp": "0x69993903",
          "transactionHash": "0x0fee990f623832cbfdd3b37bbafa8f0fe6861fd483d6078ea7ea0ed9d84a76c5",
          "transactionIndex": "0x2",
          "logIndex": "0x2",
          "removed": false
        }
      ],
      "logsBloom": "0x00000000000000000400000000000000000000000000000000000000000000000000000000000000000000020000000000000020000000000000000000000000000000000000000000000000000000000000000000000000000000000000000000000000000000000000008000000200000000000000000000000004000000000000000000000000000000000000000000000000000000000000000000000000000000000000000008000002000000000000000000000000000000000000000000000000000000000000000000000000000000000000000000000000000000000000000000000000000000000000000000000000000000000100000000000000",
      "type": "0x2",
      "transactionHash": "0x0fee990f623832cbfdd3b37bbafa8f0fe6861fd483d6078ea7ea0ed9d84a76c5",
      "transactionIndex": "0x2",
      "blockHash": "0x7465556bea5e8cc2c2a45cbf1dd478b5308b634ddbd0e9ff92520b2c051e5207",
      "blockNumber": "0xf",
      "gasUsed": "0xba05",
      "effectiveGasPrice": "0xa6d8b46",
      "blobGasPrice": "0x1",
      "from": "0xf39fd6e51aad88f6f4ce6ab8827279cfffb92266",
      "to": "0x68b1d87f95878fe05b998f19b66f4baba5de1aed",
      "contractAddress": null
    }
  ],
  "libraries": [],
  "pending": [],
  "returns": {},
  "timestamp": 1771649283809,
  "chain": 31337,
  "commit": "55a7a7bd"
}